:020000040800F2
:10000000E8190020350200081136000811340008F4
:100010000D36000869140008053F000800000000C4
:10002000000000000000000000000000C1360008D1
:10003000DD140008000000008136000819370008B0
:100040004F0200084F0200084F0200084F0200084C
:100050004F0200084F0200084F0200084F0200083C
:100060004F0200084F0200084F0200084F0200082C
:100070004F0200086D1400084F0200084F020008EC
:100080007D1400084F0200084F0200084F020008CC
:100090004F0200084F0200084F0200084F020008FC
:1000A0004F0200084F0200084F0200084F020008EC
:1000B0004F0200084F0200084F0200084F020008DC
:1000C0004F0200084F0200084F0200084F020008CC
:1000D0004F0200084F020008E53E0008F53E000808
:1000E0004F0200084F0200084F02000800F002F81B
:1000F00000F090F80AA090E8000C82448344AAF132
:100100000107DA4501D100F085F8AFF2090EBAE82F
:100110000F0013F0010F18BFFB1A43F0010318473B
:10012000B46C0000D46C0000103A24BF78C878C1C9
:10013000FAD8520724BF30C830C144BF04680C60ED
:10014000704700000023002400250026103A28BF35
:1001500078C1FBD8520728BF30C148BF0B60704739
:100160006E2900F0B981702900F0FB82662906F043
:100170008384652906F08084672906F07D846129DF
:1001800006F07C8403681B0A28BF41F080016929BE
:1001900000F06681642900F06381752900F06081B8
:1001A0006F2900F08982782900F0C782E92900F0E0
:1001B0002382E42900F02082F52900F01D82EF2936
:1001C00000F08682F82900F0C6820368DB0928BFA8
:1001D00041F08001632900F0C787732900F0CC87C4
:1001E000E32900F0D787F32900F0DC87002070476F
:1001F0001FB501F02DF804000020002106F026FCB8
:10020000401C60600020002106F00AFCE0601FBD79
:1002100010B510BD00F0EEFF1146FFF7E9FF05F045
:1002200061FD01F0CBF803B4FFF7F2FF03BC01F06E
:1002300013F900000948804709480047FEE7FEE738
:10024000FEE7FEE7FEE7FEE7FEE7FEE7FEE7FEE786
:1002500004480549054A064B704700008D370008E1
:10026000ED000008E80D0020E8190020E81100204A
:10027000E81100200FB41CB5084B06AA7B44694660
:100280000090059800F041F904460020694600F00E
:100290004FF920461CBC5DF814FB0000B1020000C1
:1002A0001CB50C46064B7B4469460090204600F086
:1002B0002CF904460020694600F03AF920461CBD9E
:1002C0008702000010B5431C02E010F8011B71B159
:1002D0008107FAD14FF0013202C88C1A8C4314EA1C
:1002E000C211F9D0C01A0A0603D0C01E10BDC01A30
:1002F00010BD0A0401D0801E10BD0902FCD0401EB2
:1003000010BD4FF000020429C0F0128010F0030C61
:1003100000F01B80CCF1040CBCF1020F18BF00F8F8
:10032000012BA8BF20F8022BA1EB0C0100F00DB8A7
:100330005FEAC17C24BF00F8012B00F8012B48BF05
:1003400000F8012B70474FF0000200B513469446A9
:100350009646203922BFA0E80C50A0E80C50B1F11D
:100360002001BFF4F7AF090728BFA0E80C5048BF31
:100370000CC05DF804EB890028BF40F8042B08BFCF
:10038000704748BF20F8022B11F0804F18BF00F8CB
:10039000012B704770477047704770B504468569F8
:1003A0000068C10601D5302600E02026C00707D02E
:1003B00070BDD4E9012130469047206A401C20627C
:1003C0006D1EF6D570BD70B5044685690078C0070E
:1003D00007D170BDD4E9012120209047206A401C3C
:1003E00020626D1EF6D570BD09684A0501D540B280
:1003F0007047C905FCD500B2704709684A0501D5A8
:10040000C0B27047C905FCD580B2704770B50C46C4
:100410000546012A05D02878800600D5EA69002320
:1004200002E0012305E05B1C934202D2E05C00285D
:10043000F9D1A869E618C01AA861286A1844286288
:100440002846FFF7AAFF04E0D5E9012114F8010BC3
:100450009047B442F8D32846FFF7B5FF70BD0000BF
:100460002DE9F0410646002410687529314616A58D
:1004700010D0FFF7B9FF002802DA404213A507E0C9
:1004800031688A0701D512A502E0490704D511A5F4
:10049000012401E0FFF7B1FF00210A2206F1240741
:1004A00009E0B0FBF2FCB0FBF2F302FB1C003030C1
:1004B00078541846491C0028F3D123462A46304672
:1004C000BDE8F04100F061BA000000002D0000001E
:1004D0002B0000002000000011680268006A53052C
:1004E00001D508700AE0D30501D5088006E013069F
:1004F00003D5C217C1E9000200E00860012070477F
:1005000001694A1C02610878704700B58FB0CDE9D7
:1005100001310021059105497944CDE903101146C7
:10052000684600F029F90FB000BD0000E5FFFFFFAD
:100530000A6802F8010B0A60704700002DE9FF5FAE
:1005400015468A460446DFF8AC80F8440027D8E90F
:1005500000103E46CDE9001010E03AF816106A4649
:1005600002A800F023FE411C07D02178890603D59C
:10057000E269391891420DD80744761C207880062C
:1005800002D5E069B84205DDAE42E6DB3AF8160076
:100590000028E2D1A069C01BA0612046FFF7FDFE44
:1005A000D8E90010CDE90010002017E03AF8181043
:1005B0006A4602A800F0FAFDB0F1FF3F81460BD079
:1005C00000250DF1080B05E0D4E901211BF8050019
:1005D00090476D1C4D45F7D308F10100B0428046AD
:1005E000E4DB206A384420622046FFF7ECFEBDE8D9
:1005F000FF9F0000326500002DE9F0418046D21DCA
:1006000022F007020025D2E90002F52915A614D030
:10061000011E72F1000106DA0023D0EB030063EB48
:10062000020211A608E0D8F800108B0701D50FA62A
:1006300002E0490701D50EA601251146002408F164
:10064000240704E000F05CF930323A55641C50EAAB
:100650000102F7D12B46324621464046BDE8F04123
:1006600000F093B9000000002D0000002B000000F6
:100670002000000030B4002100F1240408E002F062
:100680000705D208303542EA4372DB086554491C3D
:1006900052EA0305F3D10468002310A2250708D508
:1006A00004F020040C4304D0C46901230CA2641E8E
:1006B000C46130BC00F069B910B504462146106829
:1006C000FFF79BFE02462046BDE810400023D1E71D
:1006D000D21D22F00701D1E90023CBE70000000082
:1006E00030000000F0B40D460188090502D5214C08
:1006F0007C4402E01F4C7C440E34002100F12406AF
:1007000008E002F00F071209E75D42EA03721B09D5
:100710007754491C52EA0307F3D1027800231207E9
:1007200004D5702D06D009B1022311342246F0BC45
:1007300000F02BB901231034F8E770B504460D46DC
:1007400021461068FFF759FE024629462046BDE8BB
:1007500070400023C6E7D21D22F00703D3E900232F
:10076000C0E70368126843F0200303600823C361F5
:100770000023B7E7946300002DE9F05F8946044643
:100780004FF0000ADFF874B1FB44C0F820A0204607
:10079000E1688847002874D0252806D0D4E90121D3
:1007A0009047206A401C2062F1E700265F46204601
:1007B000E16888472028054607DB312D05D27819E6
:1007C00010F8200C08B10643F1E7B00701D526F078
:1007D0000406C4F81CA00027C4F818A02A2D09D0CC
:1007E000284606F015F938B304EB8708303DC8F801
:1007F000185019E059F8041B204604EB8702916158
:10080000E1688847012F054618D1E069002820DA01
:1008100026F020061DE0D8F8180000EB800005EB5C
:1008200040003038C8F818002046E168884705467F
:1008300006F0EEF80028EED1012F0AD02E2D08D1B7
:100840002046E16888477F1C0546022F46F02006B7
:10085000C4DBA069002803DA404246F00106A0612B
:10086000F00701D026F010066C2D0BD0682D09D0B2
:100870004C2D39D06A2D35D0742D35D07A2D33D00A
:1008800016E038E0E1682F4620468847B842054622
:1008900009D16C2F26D04FF48060E16806432046D2
:1008A0008847054604E06C2F1AD04FF48070064349
:1008B0000DB3A5F14100192802D8203546F4006691
:1008C0004A462946204626604E46FFF749FC80B13D
:1008D00001280BD0F61D26F0070000F1080956E7A5
:1008E0004020E4E78020D8E70020D6E706F104099D
:1008F0004DE7284652E7206ABDE8F09F24630000D8
:1009000030B5B0F10A0271F100034FEA900E4EEAE1
:10091000817EB0EB0E0061EB91014FEA101E4EEAB2
:10092000017E10EB0E0041EB11114FEA102E4EEA42
:10093000016E10EB0E0041EB11214FEA104E4EEA12
:10094000014E10EB0E0041EB1141401841F1000146
:100950004FEAD00040EA41704FEAD1014FEA8104EA
:1009600044EA907410EB800544EB01046D1944EBEC
:100970000404521BA3414FF0000348BF0A3200D5C4
:1009800030BD401C41F1000130BD2DE9F0470D465E
:1009900099469246044600F124080168880604D569
:1009A000E06921F01001216000E00120A84201DD92
:1009B000471B00E00027A1697A1902EB0900081A19
:1009C000A0612078C00602D42046FFF7E6FC00268E
:1009D00008E0D4E901211AF806009047206A401C7B
:1009E000761C20624E45F4DB2078C0060AD52046EE
:1009F000FFF7D3FC06E0D4E9012130209047206ABC
:100A0000401C2062381EA7F10107F4DC07E0D4E99E
:100A1000012118F805009047206A401C2062281E1A
:100A2000A5F10105F3DC2046FFF7CDFC2078000698
:100A300002D50220BDE8F0870120FBE72DE9FF4F3A
:100A40000C461E464FF0FF378BB0D2E90001DDF8AF
:100A500060800A908A46C1F30A5505B93D460021D7
:100A600008464FF00000BAF1000F00F4400005DA2C
:100A700000EB80004FF4400101EA50004FEA90592A
:100A8000B9F1010F00DDB9460A9850EA4A000ED0CC
:100A900044F61050A5F2FF3545432F14B8F1000F6E
:100AA0001ED07542291E1EDDC9F100021CE0B8F1FE
:100AB000010F4FF0000001D0302103E0F24305E0C8
:100AC0002154401CB042FBDB30460022002121545F
:100AD0000B99C1F80880C1E900200FB0BDE8F08F84
:100AE000BD1B6D1CDEE74A4600DA694206A800F02D
:100AF000F3FB06AB93E8070003AB83E8070050461F
:100B00000A9905F0A8FB8DE80700A0F500501F38F2
:100B100000900398002D0ADD42F21F014A46084466
:100B2000002303A90390684605F012FE09E0A0F532
:100B300000504A461F38002303A90390684605F079
:100B40001CFE8DE807000004000C03D04FF0FF30BE
:100B5000410800E01046B8F1000F03D000220092D7
:100B600015461EE0751E05D4FFF7CAFE30326255E9
:100B70006D1EF9D5B3460122084302D000227F1C26
:100B800004E02078302801D100227F1E002A099736
:100B900084D01DE0112D07DAFFF7B2FE3032625526
:100BA0006D1C50EA0102F5D1084302D00098C8B18B
:100BB0000EE00021681E05E0235C625C6354225451
:100BC000401E491C8142F7DBAB46A81B401E099022
:100BD000002004F80B000B98099AC0F80880C0E9BF
:100BE000002B7AE711264FF0000857E72DE9F04F68
:100BF00088460446D21D22F0070191B0D1E90001D8
:100C0000CDE90A0105F0F0FE02460B98C00F01D0B5
:100C10002D2007E02068810701D52B2002E020214C
:100C200001EAC000032A099001D0072A05DB034628
:100C30004146204600F010FB0BE12078800601D5EC
:100C4000E06900E00620B8F1650F814606D0B8F1F2
:100C5000660F18D0B8F1670F70D131E00020B9F1FC
:100C6000110F009001DB112301E009F101030AAA31
:100C700001A90CA8FFF7E2FEDDE90C70002609F1DE
:100C80000105834647E001204B4600904FF00047A6
:100C90000AAA01A90CA8FFF7D1FEDDE90DB00C9955
:100CA0005D46002610B909F101000D18B9EB0500E9
:100CB00003D4C0F1FF3609F10105A5EB09002BE0D3
:100CC000B9F1010F01DA4FF001090020B9F1110F5C
:100CD0000090484601DD112300E003460AAA01A95D
:100CE0000CA8FFF7ABFEDDE90C704D4600268346ED
:100CF000207800070AD4AB4500DA5D4601A8012D33
:100D000004DD411911F8011C302907D04F4502DAE2
:100D100017F1040F04DA012082460FE06D1EEEE7A2
:100D2000002F02DCED1B3E4403E0781CA84200DDEE
:100D30007D1CB81B00F1010A4FF000472078000726
:100D400003D4AA4501DB4FF0FF3A0021B7F1004F71
:100D50000DF143088DF8431024D002202B23002FDF
:100D600001DA7F422D230A21021EA0F1010000DCDE
:100D70005FB197FBF1FC97FBF1F201FB1C7C17467E
:100D80000CF1300C08F801CDEEE7A8F1010003707A
:100D90002188090501D5452100E06521A0F1010860
:100DA00000F8011C09980FA9A1EB0807FF1D00B16D
:100DB0000120411901EBEA70A1693844081A401E6C
:100DC000A0612078C00602D42046FFF7E6FA099811
:100DD00028B1D4E901219047206A401C2062207884
:100DE000C00622D52046FFF7D8FA1EE0002E04DB0D
:100DF000B34502DD01A8805D00E03020D4E9012187
:100E00009047206A401C2062761CAAF101005FEA2C
:100E1000000A0AD100F01CFAC0680168405CD4E9FD
:100E200001219047206A401C2062281EA5F101057F
:100E3000DCDC07E0D4E9012118F8010B9047206AB7
:100E4000401C2062381EA7F10107F3DC2046FFF7A3
:100E5000BAFA032011B041E62DE9F04F04460D46E1
:100E6000D21D22F0070089B0D0E9009748463946E4
:100E700005F0BAFD0246F80F01D02D2307E02068E7
:100E8000810701D52B2302E0202101EAC0038DF860
:100E900020300BB1012000E00020032A824601D05F
:100EA000072A04DB2946204600F0D6F93FE12078E6
:100EB000800601D40D2500E0E569C7F30A560D2D23
:100EC00049DA00214FEA175B08464FF00000002F77
:100ED00000F4400007DA00EB80004FF4400100EB23
:100EE000D07001EA60008115012901DD4FF0FF316A
:100EF00000224FEA850CBCF1180F06D31346ACF163
:100F000018004FF08052C24003E04FF4801323FAE0
:100F10000CF30CF10C0CBCF1200F04D3ACF1200C41
:100F200009FA0CF001E007FA0CF000294FF0004834
:100F300001DD18B90FE00ED140450CD319EB0209C1
:100F40005F4121B9404502D19F4329EA0209BBEB29
:100F5000175F00D0761C2088000502D57B487844B6
:100F600002E07A487844193808AA302302F80A3097
:100F7000037C0AF10101002E0AF1020A53546A4669
:100F800002DC4FF0300101E04FF031014FF0010879
:100F90008DF8001002D0A6F2FF3603E059EA4701AF
:100FA00000D06B4E002D02DC2178090704D54FF0EC
:100FB00002082E218DF80110C44600210BE0C7F372
:100FC00003433F01C35C491C6D1E02F8083005292C
:100FD00008F1010801DA002DF1DC00210CE000EB42
:100FE0001973491C1B786D1E082902F808304FEA56
:100FF000091908F1010801DA002DF0DC21688B06DF
:1010000002D516E0A8F10108E04505DD02EB080372
:1010100013F8013C302BF5D0B8F1000F09DD02EBDD
:10102000080313F8013C2E2B03D1090701D4A8F1C2
:101030000108002D05DD3E2102F808106D1E08F1A3
:101040000108407C002E02F8080008F1010804DACB
:101050002D20764202F8080002E02B2002F808005A
:101060000A214FF47A70864208F101080BDB96FBE7
:10107000F0F3303302F8083096FBF0F308F1010882
:1010800000FB136601E0642E0CDB642096FBF0F39A
:10109000303302F8083096FBF0F308F1010800FB4A
:1010A000136601E00A2E06DB96FBF1F0303002F801
:1010B000080008F1010896FBF1F001FB10603030E8
:1010C00002F80800A16908F1010808EB050202EB2B
:1010D0000A00081AA0612078C00602D42046FFF753
:1010E0005CF9216A08AE01EB0A00206204E0D4E951
:1010F000012116F8010B9047BAF1010AF7D22078C6
:10110000C00602D52046FFF748F96E4609E016F8FA
:10111000010B3E280FD0D4E901219047206A401CE2
:101120002062B8F10108F2D22046FFF74CF909B06D
:101130000320BDE8F08F206A2844206203E0D4E950
:101140000121302090476D1EEBD3F8E7725B000061
:1011500002FCFFFF10B5436913B1AFF3008001E05B
:10116000FFF754F9012010BD127800F124010A7034
:1011700000224A700122EDE711684FF0FF32E9E7E3
:1011800010B5436913B1AFF3008001E0FFF7D6F962
:10119000012010BD128800F1240182840022C28443
:1011A0000122EDE711684FF0FF32E9E72DE9F04148
:1011B00016460C46054600F043F8036893F8010113
:1011C000012807D0FF2C12D8185D80B101202C70A7
:1011D000BDE8F081D3F807013246214603F2071338
:1011E000C7182846BC46BDE8F041002360474FF0D1
:1011F000FF30EDE7754600F0EBF8AE4605006946B6
:10120000534620F00700854618B020B5FFF720F8B8
:10121000BDE820404FF000064FF000074FF00008F7
:101220004FF0000BAC46ACE8C009ACE8C009ACE834
:10123000C009ACE8C00921F007018D4670470000E5
:1012400010B500F005F8001D10BD00BF01580000EA
:1012500000487047300000202DE9F0411F46044649
:1012600003260168072A01F4006004DB08B116A513
:1012700005E016A503E008B115A500E015A521F0CD
:1012800010002060A069C01EA0610FB1401EA061C7
:101290002046FFF782F84FB1D4E901213846904744
:1012A000206A401C2062C01C206206E0206AFAE727
:1012B000D4E9012115F8010B9047761EF8D220469B
:1012C000FFF781F8BDE8F0814E414E006E616E007F
:1012D000494E4600696E66002DE9F0478146164684
:1012E0008AB0354878440DC88DE80D0032487844FE
:1012F000801C03AC0DC884E80D0041F69B30084407
:10130000372190FBF1F290FBF1F5A5F1800501FB8F
:1013100012041B3C02D56442012000E00020DFF8EB
:1013200098A080460027FA44AAF1BE0A0EE0E00722
:101330000AD03246684607EB470101230AEB8101D8
:1013400005F01BFA8DE8070064107F1C002CEED11D
:10135000194F7F44AE3F19E0E80715D007EB0410A2
:101360000DF1180A90E80E008AE80E00C068F042FD
:1013700001D1981908903246012306A903A805F067
:10138000FCF903AB83E807006D10641C002DE3D16A
:101390004FF0010332466946B8F1000F03A802D0AE
:1013A00005F0D6F901E005F0E8F9C9E90001C9F84E
:1013B00008200AB0BDE8F0877C58000010B504464C
:1013C000AFF300802046BDE81040FEF72CBF0000C0
:1013D00000487047100000204FF0013C50F8042BEB
:1013E00051F8043B9A4221D1A2EB0C03934313EA38
:1013F000CC1317D150F8042B51F8043B9A4215D165
:10140000A2EB0C03934313EACC130BD150F8042B3B
:1014100051F8043B9A4209D1A2EB0C03934313EA1F
:10142000CC13DBD04FF00000704700BFD01A01BAD8
:10143000B1FA81F101F0180122FA01F0CB40DBB2E0
:10144000C0B2C01AC1F120012CFA01F3D11A9143A4
:1014500011EAC311E6D1704701491820ABBEFEE77F
:101460002600020070470000FFE7FEE780B540F667
:10147000C840C2F2000000F007F980BD80B540F618
:101480008440C2F2000000F0FFF880BD84B00390F9
:101490000291019200930398C16B026C012090406D
:1014A00048600098039909684860039840681028CC
:1014B00009D1FFE7019803990968886002980399A8
:1014C0000968C86008E00298039909688860019873
:1014D00003990968C860FFE704B0704770470000CF
:1014E00081B0EFF3108072B60090FFE7FEE70000D6
:1014F00083B0019000208DF80300019890F821003E
:1015000002280DD0FFE7019904208863FFE70199C5
:10151000002081F82000FFE701208DF80B0021E07A
:1015200001980168086820F00E00086001980168C1
:10153000086820F0010008600198C16B026C01206E
:1015400090404860FFE70199012081F82100FFE702
:101550000199002081F82000FFE79DF803008DF835
:101560000B00FFE79DF80B0003B0704780B588B013
:10157000079000208DF81B00079890F821000228A2
:1015800007D0FFE707990420886301208DF81B002E
:1015900076E007980168086820F00E000860079858
:1015A0000168086820F001000860079800680821B9
:1015B000C4F20201884203D1FFE70120059047E011
:1015C000079800681C21C4F20201884203D1FFE79A
:1015D0001020049039E0079800683021C4F202011D
:1015E000884204D1FFE74FF4807003902AE0079807
:1015F00000684421C4F20201884204D1FFE74FF49D
:10160000805002901BE0079800685821C4F2020144
:10161000884204D1FFE74FF4803001900CE0079836
:1016200001686C22C4F202024FF08070914208BF40
:101630004FF480100190FFE701980290FFE70298B5
:101640000390FFE703980490FFE704980590FFE7F5
:1016500005980421C4F2020108600799012081F86D
:101660002100FFE70799002081F82000FFE7079895
:10167000406B20B1FFE70798416B8847FFE7FFE722
:101680009DF81B0008B080BD80B58EB00D900D9800
:10169000C06B00680C900D98006800680B900C9867
:1016A0000D99096CC8404007002875D5FFE79DF8E3
:1016B0002C00400700286FD5FFE70D9800680068F0
:1016C0008006002807D4FFE70D980168086820F01D
:1016D00004000860FFE70D9800680821C4F20201C9
:1016E000884203D1FFE704200A9047E00D98006884
:1016F0001C21C4F20201884203D1FFE74020099077
:1017000039E00D9800683021C4F20201884204D10A
:10171000FFE74FF4806008902AE00D9800684421AC
:10172000C4F20201884204D1FFE74FF480400790E1
:101730001BE00D9800685821C4F20201884204D1D0
:10174000FFE74FF4802006900CE00D9801686C22B2
:10175000C4F202024FF08060914208BF4FF4800053
:101760000690FFE706980790FFE707980890FFE7C5
:1017700008980990FFE709980A90FFE70A98042162
:10178000C4F2020108600D98C06A20B1FFE70D980D
:10179000C16A8847FFE7B8E00C980D99096CC8400A
:1017A0008007002840F18080FFE79DF82C0080072B
:1017B000002879D5FFE70D980068006880060028AA
:1017C0000BD4FFE70D980168086820F00A00086054
:1017D0000D99012081F82100FFE70D98006808218C
:1017E000C4F20201884203D1FFE70220059047E0DE
:1017F0000D9800681C21C4F20201884203D1FFE762
:101800002020049039E00D9800683021C4F20201D4
:10181000884204D1FFE74FF4007003902AE00D984E
:1018200000684421C4F20201884204D1FFE74FF46A
:10183000005002901BE00D9800685821C4F202018C
:10184000884204D1FFE74FF4003001900CE00D987E
:1018500001686C22C4F202024FF00070914208BF8E
:101860004FF400100190FFE701980290FFE7029803
:101870000390FFE703980490FFE704980590FFE7C3
:1018800005980421C4F202010860FFE70D990020C9
:1018900081F82000FFE70D98806A20B1FFE70D98DE
:1018A000816A8847FFE72FE00C980D99096CC840C2
:1018B0000007002827D5FFE79DF82C000007002827
:1018C00021D5FFE70D980168086820F00E00086038
:1018D0000D98C26B016C012000FA01F151600D9965
:1018E00088630D9981F82100FFE70D99002081F8A8
:1018F0002000FFE70D98006B20B1FFE70D98016B0A
:101900008847FFE7FFE7FFE7FFE70EB080BD000075
:1019100083B0019000200090019820B9FFE70120DA
:101920008DF80B0047E0019908684FF6F872CBF686
:10193000FD7210444CF6CD42CCF6CC42A0FB020224
:101940006FF0030000EA9200086401990020C4F2DD
:101950000200C8630199022081F821000198006803
:1019600000680090009843F6F07188430090019958
:101970004868D1F808C0CB680A6940EA0C001843EF
:1019800010434A6910438A691043C96901430098AA
:1019900008430090009801990968086001990020A7
:1019A0008863019A012182F82110019981F82000B1
:1019B0008DF80B00FFE79DF80B0003B070470000A7
:1019C00080B586B0049003910292019300208DF8B7
:1019D0000300FFE7049890F82000012804D1FFE7F6
:1019E00002208DF817004CE00499012081F82000B6
:1019F000FFE7FFE7049890F82100012832D1FFE7C4
:101A00000499022081F82100049900208863049839
:101A10000168086820F00100086004980399029AA0
:101A2000019BFFF733FD0498C06A38B1FFE70498C3
:101A30000168086840F00E0008600CE00498016836
:101A4000086820F00400086004980168086840F005
:101A50000A000860FFE704980168086840F0010088
:101A6000086009E0FFE70499002081F82000FFE703
:101A700002208DF80300FFE79DF803008DF81700A2
:101A8000FFE79DF8170006B080BD000090B00F90F2
:101A90000E9100200D900990FFE70E9800680D99B7
:101AA000C840002800F07F81FFE70D9901208840A1
:101AB0000C900E9800680C9908400B900B980C99AC
:101AC000884240F06C81FFE70E984068059000283E
:101AD00051D0FFE7059801283AD0FFE70598022882
:101AE0003FD0FFE7059803285FD0FFE7059811284E
:101AF00032D0FFE70598122838D0FFE7059800217B
:101B0000C1F21101884236D0FFE705980021C1F2E9
:101B1000120188422FD0FFE705980021C1F2210170
:101B2000884228D0FFE705980021C1F222018842AF
:101B300021D0FFE705980021C1F2310188421AD077
:101B4000FFE705980021C1F23201884213D02FE04F
:101B50000E98C06809902CE00E98C0680430099077
:101B600027E00E98C0680830099022E00E98C068FF
:101B70000C3009901DE00E98806818B9FFE704202A
:101B8000099011E00E988068012806D1FFE708202F
:101B900009900C980F99086105E0082009900C98AD
:101BA0000F994861FFE7FFE703E00020099000E09C
:101BB000FFE70B98FF2803D8FFE70F98049003E096
:101BC0000F9804300490FFE7049808900B98FF28C2
:101BD00004D8FFE70D988000039006E00D996FF0A0
:101BE0001F0000EB81000390FFE70398079008981F
:101BF0000068079A0F219140884309999140084352
:101C0000089908600E98C079C006002840F1C68087
:101C1000FFE7FFE741F21800C4F20200016841F05B
:101C200001010160006800F0010006900698FFE7DE
:101C30000D9820F003000821C4F2010140580A90D9
:101C40000D9800F0030081000F2000FA01F10A98BE
:101C500088430A900F9840F60001C4F201018842BF
:101C600003D1FFE70020029026E00F9840F60041E4
:101C7000C4F20101884203D1FFE70120019018E07E
:101C80000F9841F20001C4F20101884203D1FFE73D
:101C9000022000900AE00F9941F20042C4F20102D2
:101CA0000420914208BF03200090FFE700980190B4
:101CB000FFE701980290FFE702980D9901F00301F8
:101CC000890000FA01F10A9808430A900A980D99D0
:101CD00021F003010822C4F2010288500E98807995
:101CE000C006002809D5FFE70B9A40F20841C4F26C
:101CF000010108681043086008E00B9A40F20841AF
:101D0000C4F20101086890430860FFE70E988079EB
:101D10008006002809D5FFE70B9A40F20C41C4F277
:101D2000010108681043086008E00B9A40F20C417A
:101D3000C4F20101086890430860FFE70E988079BB
:101D40008007002809D5FFE70B9A40F20441C4F24E
:101D5000010108681043086008E00B9A40F2044152
:101D6000C4F20101086890430860FFE70E9880798B
:101D7000C00748B1FFE70B9A40F20041C4F20101ED
:101D800008681043086008E00B9A40F20041C4F272
:101D90000101086890430860FFE7FFE7FFE70D983F
:101DA00001300D9079E610B07047000040F6E45025
:101DB000C2F200000068704740F20500C2F2000065
:101DC000027840F6E451C2F200010868104408604D
:101DD0007047000080B582B042F20001C4F20201F7
:101DE000086840F0100008600320019000F09AF8A5
:101DF000019800F005F800F03BF8002002B080BD2B
:101E000080B582B0009040F20000C2F2000000688D
:101E100040F20501C2F200010A784FF47A71B1FB79
:101E2000F2F1B0FBF1F000F091FD20B1FFE70120ED
:101E30008DF8070018E000980F280DD8FFE70099EB
:101E40004FF0FF30002200F053F8009840F20801F4
:101E5000C2F20001086003E001208DF8070003E0F2
:101E600000208DF80700FFE79DF8070002B080BD55
:101E700080B584B0FFE741F21800C4F202000168A7
:101E800041F001010160006800F001000390039837
:101E9000FFE7FFE741F21C00C4F20200016841F0D5
:101EA00080510160006800F0805002900298FFE7C6
:101EB000052000F037F8FFE70421C4F201010868AB
:101EC0000190019820F0E0600190019840F00070CE
:101ED000019001980860FFE704B080BD80B582B032
:101EE0008DF807009DF9070002F00EF802B080BDE2
:101EF00080B586B08DF817000491039200200290FF
:101F000002F01AF802909DF91700019002980499C6
:101F1000039A01F07FFB0146019802F015F806B024
:101F200080BD000080B582B00190019802F02EF8CB
:101F300002B080BD80B584B002900191029820B9B2
:101F4000FFE701208DF80F001BE1019842F200012C
:101F5000C4F20201096801F00701884216D9FFE7BF
:101F600042F20000C4F20200016821F00701019A68
:101F700011430160006800F007000199884204D015
:101F8000FFE701208DF80F00FBE0FFE702980078E3
:101F9000800700282AD5FFE702980078400700282C
:101FA00009D5FFE741F20401C4F20201086840F4D8
:101FB000E0600860FFE7029800780007002809D574
:101FC000FFE741F20401C4F20201086840F46050E6
:101FD0000860FFE741F20401C4F20201086820F042
:101FE000F000029A926810430860FFE702980078B8
:101FF000C007002860D0FFE70298406801280ED192
:10200000FFE741F20000C4F20200006880030028EC
:1020100004D4FFE701208DF80F00B2E021E0029820
:10202000406802280ED1FFE741F20000C4F202002E
:1020300000688001002804D4FFE701208DF80F001C
:102040009FE00DE041F20000C4F20200006880074A
:10205000002804D4FFE701208DF80F0091E0FFE78E
:10206000FFE741F20401C4F20201086820F0030016
:10207000029A526810430860FFF798FE0090FFE74D
:1020800041F20400C4F20200006800F00C00029962
:102090004968B0EB810F0ED0FFE7FFF787FE00998C
:1020A000401A41F28931884204D3FFE703208DF8BA
:1020B0000F0066E0E4E7FFE7019842F20001C4F296
:1020C0000201096801F00701884216D2FFE742F2D7
:1020D0000000C4F20200016821F00701019A1143D7
:1020E0000160006800F007000199884204D0FFE712
:1020F00001208DF80F0044E0FFE7029800784007C8
:1021000000280CD5FFE741F20401C4F2020108687F
:1021100020F4E060029AD26810430860FFE702985A
:102120000078000700280DD5FFE741F20401C4F252
:102130000201086820F46050029A126940EAC20065
:102140000860FFE700F04CF841F20401C4F202011C
:102150000968C9B20A0946F67C31C0F60001895CFB
:10216000C84040F20001C2F20001086040F20800DD
:10217000C2F200000068FFF743FE00208DF80F0058
:10218000FFE79DF80F0004B080BD000040F20000A2
:10219000C2F200000068704780B5FFF7F7FF41F218
:1021A0000401C4F202010968C1F3022246F68C312F
:1021B000C0F60001895CC84080BD000080B5FFF713
:1021C000E5FF41F20401C4F202010968C1F3C22231
:1021D00046F68C31C0F60001895CC84080BD000025
:1021E00086B000200590049003900290019041F287
:1021F0000400C4F2020000680590059800F00C008D
:102200000146009100283FD0FFE70098042804D041
:10221000FFE70098082806D037E041F20020C0F21E
:102220007A00019037E00598C0F3834146F6943078
:10223000C0F60000405C02909DF81600C007C0B1D7
:10224000FFE741F20400C4F202000068C0F340411D
:1022500046F6A430C0F60000405C0490029841F2BB
:102260000021C0F27A0148430499B0FBF1F00390D9
:1022700007E0029840F60011C0F23D014843039088
:10228000FFE70398019006E0FFE741F20020C0F26B
:102290007A000190FFE7019806B0704780B586B0DC
:1022A0000490049820B9FFE701208DF817002EE371
:1022B00004980078C007002800F0AE80FFE741F2E4
:1022C0000400C4F20200006800F00C00042813D0DF
:1022D000FFE741F20400C4F20200006800F00C00C5
:1022E00008281BD1FFE741F20400C4F20200006895
:1022F000C003002812D5FFE741F20000C4F202003B
:1023000000688003002808D5FFE70498406820B9DA
:10231000FFE701208DF81700F9E27CE0FFE7049861
:102320004068B0F5803F09D1FFE741F20001C4F2F7
:102330000201086840F48030086032E00498406888
:1023400068B9FFE741F20001C4F20201086820F415
:1023500080300860086820F48020086020E004983D
:102360004068B0F5A02F0DD1FFE741F20001C4F2A3
:102370000201086840F480200860086840F480305A
:1023800008600CE041F20001C4F20201086820F488
:1023900080300860086820F480200860FFE7FFE7CD
:1023A000FFE7FFE704984068D0B1FFE7FFF7FEFCC6
:1023B0000390FFE741F20000C4F2020000688003CE
:1023C00000280CD4FFE7FFF7F1FC0399401A6528B9
:1023D00004D3FFE703208DF8170098E2EAE719E03D
:1023E000FFF7E4FC0390FFE741F20000C4F20200B3
:1023F0000068800300280CD5FFE7FFF7D7FC03999E
:10240000401A652804D3FFE703208DF817007EE209
:10241000EAE7FFE7FFE7FFE7049800788007002876
:1024200040F18D80FFE741F20400C4F20200006831
:1024300010F00C0F13D0FFE741F20400C4F20200C9
:10244000006800F00C00082829D1FFE741F20400E1
:10245000C4F202000068C003002820D4FFE741F264
:102460000000C4F2020000688007002809D5FFE7D9
:1024700004980069012804D0FFE701208DF81700B7
:1024800045E241F20001C4F20201086820F0F800C0
:10249000049A526940EAC2000860FFE74EE00498DF
:1024A000006958B3FFE70021C4F24221012008600F
:1024B000FFF77CFC0390FFE741F20000C4F202004A
:1024C0000068800700280CD4FFE7FFF76FFC039932
:1024D000401A032804D3FFE703208DF8170016E203
:1024E000EAE741F20001C4F20201086820F0F800B6
:1024F000049A526940EAC20008601EE00021C4F25A
:10250000422100200860FFF751FC0390FFE741F2F1
:102510000000C4F202000068800700280CD5FFE725
:10252000FFF744FC0399401A032804D3FFE7032074
:102530008DF81700EBE1EAE7FFE7FFE7FFE7049814
:1025400000780007002848D5FFE70498806918B391
:10255000FFE740F28041C4F2422101200860FFF70A
:1025600025FC0390FFE741F22400C4F2020000685A
:10257000800700280CD4FFE7FFF718FC0399401AE6
:10258000032804D3FFE703208DF81700BFE1EAE733
:10259000012001F077F81FE040F28041C4F24221AF
:1025A00000200860FFF702FC0390FFE741F22400DF
:1025B000C4F202000068800700280CD5FFE7FFF78F
:1025C000F5FB0399401A032804D3FFE703208DF895
:1025D00017009CE1EAE7FFE7FFE70498007840076F
:1025E000002840F1D880FFE700208DF8070041F275
:1025F0001C00C4F202000068C000002813D4FFE7EA
:10260000FFE741F21C00C4F20200016841F0805172
:102610000160006800F0805000900098FFE7012002
:102620008DF80700FFE747F20000C4F200000068E1
:10263000C005002822D4FFE747F20001C4F20001E0
:10264000086840F480700860FFF7B0FB0390FFE774
:1026500047F20000C4F200000068C00500280CD456
:10266000FFE7FFF7A3FB0399401A652804D3FFE7B0
:1026700003208DF817004AE1EAE7FFE7FFE7049837
:10268000C068012809D1FFE741F22001C4F202012C
:10269000086840F00100086031E00498C06868B93B
:1026A000FFE741F22001C4F20201086820F00100B6
:1026B0000860086820F0040008601FE00498C06803
:1026C00005280DD1FFE741F22001C4F2020108689C
:1026D00040F004000860086840F0010008600CE069
:1026E00041F22001C4F20201086820F001000860F4
:1026F000086820F004000860FFE7FFE7FFE7FFE756
:102700000498C068E0B1FFE7FFF750FB0390FFE7D4
:1027100041F22000C4F202000068800700280ED4B5
:10272000FFE7FFF743FB0399401A41F289318842E2
:1027300004D3FFE703208DF81700E8E0E8E71BE08B
:10274000FFF734FB0390FFE741F22000C4F20200E0
:102750000068800700280ED5FFE7FFF727FB0399E5
:10276000401A41F28931884204D3FFE703208DF8F3
:102770001700CCE0E8E7FFE79DF80700012809D142
:10278000FFE741F21C01C4F20201086820F080500A
:102790000860FFE7FFE70498C069002800F0B380F5
:1027A000FFE741F20400C4F20200006800F00C00F0
:1027B000082800F08280FFE70498C06902285CD1F5
:1027C000FFE76021C4F2422100200860FFF7EEFA23
:1027D0000390FFE741F20000C4F2020000688001AC
:1027E00000280CD5FFE7FFF7E1FA0399401A032808
:1027F00004D3FFE703208DF8170088E0EAE7049888
:10280000006AB0F5803F0CD1FFE741F20401C4F249
:102810000201086820F40030049A926810430860AE
:10282000FFE741F20401C4F20201086820F47410C9
:10283000049B1A6A5B6A1A43104308606021C4F261
:10284000422101200860FFF7B1FA0390FFE741F24F
:102850000000C4F202000068800100280CD4FFE7E9
:10286000FFF7A4FA0399401A032804D3FFE70320D3
:102870008DF817004BE0EAE71EE06021C4F2422128
:1028800000200860FFF792FA0390FFE741F2000092
:10289000C4F202000068800100280CD5FFE7FFF7B2
:1028A00085FA0399401A032804D3FFE703208DF823
:1028B00017002CE0EAE7FFE724E00498C06901284C
:1028C00004D1FFE701208DF8170020E041F2040059
:1028D000C4F2020000680290029800F4803004996B
:1028E000096A884208D1FFE7029800F47010049941
:1028F000496A884204D0FFE701208DF8170006E0FE
:10290000FFE7FFE7FFE700208DF81700FFE79DF8DE
:10291000170006B080BD000081B000900098042828
:1029200009D1FFE74EF21001CEF20001086840F035
:102930000400086008E04EF21001CEF200010868C1
:1029400020F004000860FFE701B0704780B582B056
:102950000190019800F0B6FE02B080BD80B586B04F
:1029600004900391ADF80A20049890F842002028C2
:102970004DD1FFE7039820B1FFE7BDF80A0020B969
:10298000FFE701208DF8170045E004990120086356
:1029900004990020486304980399BDF80A2001F0C7
:1029A00067F98DF809009DF8090058BBFFE7049806
:1029B000006B012821D1FFE7FFE700200190049878
:1029C00000680068019004980068406801900198D0
:1029D000FFE7FFE7FFE70498006850E8030F40F0C7
:1029E00010000090FFE700990498026842E8031085
:1029F0000028F0D1FFE7FFE703E001208DF8090090
:102A0000FFE7FFE79DF809008DF8170003E00220BB
:102A10008DF81700FFE79DF8170006B080BD000095
:102A200080B582B00190ADF802100198006844F2C0
:102A30000041C4F20001884220D1FFE746F68850E9
:102A4000C0F6000003F072F9BDF8022040F27831C0
:102A5000C2F20001B1F800086FF3DF3200F4004069
:102A60001044A1F80008B1F8000840F40040A1F8B3
:102A7000000803F065FA03F0BFF93EE00198006832
:102A800044F60001C4F20001884235D1FFE7BDF8E9
:102A9000020040F27221C2F20001088040F270117F
:102AA000C2F200010120087040F27110C2F2000071
:102AB0004078012807D1FFE740F20401C2F200018B
:102AC000012008700FE040F27110C2F2000040785F
:102AD000022807D1FFE740F20401C2F20001022000
:102AE0000870FFE7FFE740F27110C2F2000003F048
:102AF000A5F903F009FAFFE7FFE702B080BD000087
:102B000080B582B0019001980068006800F008016B
:102B10000020B0EBD10F1CD0FFE7FFE700200090B2
:102B20000198006800680090019800684068009073
:102B30000098FFE701980068006801980068406805
:102B40000199202081F842000199002081F840007D
:102B5000FFE70198006844F20041C4F20001884296
:102B600009D1FFE746F69C50C0F6000003F0DEF8FE
:102B700003F042F919E00198006844F60001C4F23C
:102B80000001884209D1FFE746F6AF50C0F60000C9
:102B900003F0CCF803F0B8F906E046F6C250C0F6F0
:102BA000000003F0C3F8FFE7FFE702B080BD0000BC
:102BB00080B592B01190119800680068109011983B
:102BC0000068C0680F901198006840690E9000205E
:102BD0000D900C90109800F00F000D900D9888B992
:102BE000FFE79DF84000800600280AD5FFE79DF822
:102BF0003C008006002804D5FFE7119800F024FF70
:102C0000E9E1FFE70D98002800F0C280FFE79DF89A
:102C10003800C00738B9FFE7BDF83C0010F4907FDA
:102C200000F0B680FFE79DF84000C00758B1FFE70D
:102C30009DF83D00C00730B1FFE71199486C40F0A6
:102C400001004864FFE79DF84000400700280BD5CD
:102C5000FFE79DF83800C00730B1FFE71199486CD5
:102C600040F002004864FFE79DF84000800700281C
:102C70000BD5FFE79DF83800C00730B1FFE7119989
:102C8000486C40F004004864FFE79DF840000007EE
:102C9000002811D5FFE79DF83C008006002805D4E8
:102CA000FFE79DF83800C00730B1FFE71199486C85
:102CB00040F008004864FFE71198406C002866D097
:102CC000FFE79DF84000800600280AD5FFE79DF841
:102CD0003C008006002804D5FFE7119800F0B4FE00
:102CE000FFE7119800684069C0F380100C901198BC
:102CF000406C0007002804D4FFE70C9800283ED061
:102D0000FFE7119800F026FE119800684069400620
:102D100000282FD5FFE7FFE7FFE71198006850E88C
:102D2000050F20F040000B90FFE70B991198026807
:102D300042E805100028F0D1FFE7FFE71198C06BCB
:102D400098B1FFE71198C16B43F29170C0F6000093
:102D500048631198C06BFEF709FC28B1FFE7119892
:102D6000C06B416B8847FFE703E01198FFF7C8FE8F
:102D7000FFE703E01198FFF7C3FEFFE706E01198B5
:102D8000FFF7BEFE119900204864FFE7FFE722E14C
:102D90001198006B012840F0FE80FFE79DF840008D
:102DA000C006002840F1F780FFE79DF83C00C00610
:102DB000002840F1F080FFE7FFE700200A9011981B
:102DC000006800680A901198006840680A900A98A4
:102DD000FFE71198006840694006002840F18180B3
:102DE000FFE71198C06B00684068ADF82600BDF899
:102DF0002600002874D0FFE7BDF826001199898DC0
:102E000088426DDAFFE7BDF826001199C885119850
:102E1000C06B8069202858D0FFE7FFE7FFE71198D3
:102E2000006850E8030F20F480700890FFE70899CD
:102E30001198026842E803100028F0D1FFE7FFE78D
:102E4000FFE7FFE71198006850E8050F20F0010048
:102E50000790FFE707991198026842E805100028DB
:102E6000F0D1FFE7FFE7FFE7FFE71198006850E8C0
:102E7000050F20F040000690FFE7069911980268C0
:102E800042E805100028F0D1FFE7FFE71199202064
:102E900081F84200119900200863FFE7FFE71198CD
:102EA000006850E8030F20F010000590FFE7059937
:102EB0001198026842E803100028F0D1FFE7FFE70D
:102EC0001198C06BFEF714FBFFE7119902204863CD
:102ED0001198818DC28D891A89B2FFF7A1FDFFE794
:102EE00079E01199888DC98D401AADF812001198BA
:102EF000C08D00284ED0FFE7BDF81200002849D051
:102F0000FFE7FFE7FFE71198006850E8030F20F4A0
:102F100090700390FFE703991198026842E803104C
:102F20000028F0D1FFE7FFE7FFE7FFE7119800680F
:102F300050E8050F20F001000290FFE70299119878
:102F4000026842E805100028F0D1FFE7FFE7119979
:102F5000202081F84200119900200863FFE7FFE775
:102F60001198006850E8030F20F010000190FFE76F
:102F700001991198026842E803100028F0D1FFE798
:102F8000FFE71199022048631198BDF81210FFF76E
:102F900047FDFFE71FE09DF84000000600280AD526
:102FA000FFE79DF83C000006002804D5FFE71198D4
:102FB00000F0E4FE0FE09DF84000400600280AD52E
:102FC000FFE79DF83C004006002804D5FFE7119874
:102FD00000F00AFDFFE712B080BD000080B582B0AE
:102FE0000090009820B9FFE701208DF8070040E02D
:102FF0000098806908B1FFE700E0FFE7009890F8CB
:10300000410040B9FFE70099002081F84000009896
:1030100000F034F8FFE70099242081F8410000987F
:103020000168C86820F40050C860009800F0C2FD34
:1030300000980168086920F49040086100980168D0
:10304000486920F02A00486100980168C86840F487
:103050000050C860009900204864009A202182F83E
:103060004110009A82F84210009948638DF80700D9
:10307000FFE79DF8070002B080BD000080B598B062
:1030800017900020169015901490139017980068D0
:1030900043F60001C4F20101884239D1FFE7FFE79E
:1030A00041F21800C4F20200016841F4804101605D
:1030B000006800F4804012901298FFE7FFE741F2A9
:1030C0001800C4F20200016841F0040101600068C8
:1030D00000F0040011901198FFE74FF40070139076
:1030E000022014900320169040F60000C4F2010064
:1030F0000B9013A90C91FEF7C9FC0B980C994FF497
:1031000080621392002214921592FEF7BFFCE1E058
:103110001798006844F20041C4F20001884266D169
:10312000FFE7FFE741F21C00C4F20200016841F42E
:1031300000310160006800F4003010901098FFE743
:10314000FFE741F21800C4F20200016841F00401F7
:103150000160006800F004000F900F98FFE7042062
:103160001390022014900320169040F60000C4F241
:103170000100079013A90891FEF788FC07980899A9
:10318000082213920022099214921592FEF77EFCF7
:10319000099940F68440C2F200000A906C22C4F201
:1031A00002020260416081608022C260016141616F
:1031B00081614FF48051C161FEF7AAFB18B1FFE7AE
:1031C000FEF78EF9FFE7FFE7179840F68441C2F259
:1031D0000001C16317984862FFE72620069001218D
:1031E0000222FEF785FE0698FEF778FE71E017983A
:1031F000006844F60001C4F20001884268D1FFE78C
:10320000FFE741F21C00C4F20200016841F4802192
:103210000160006800F480200E900E98FFE7FFE741
:1032200041F21800C4F20200016841F00801016097
:10323000006800F008000D900D98FFE74FF48060E3
:103240001390022014900320169040F60040C4F220
:103250000100029013A90391FEF718FC029803994C
:103260004FF4006213920022049214921592FEF71A
:103270000DFC049940F6C840C2F2000005903022CF
:10328000C4F202020260416081608022C26001617A
:10329000416181614FF48051C161FEF739FB18B182
:1032A000FFE7FEF71DF9FFE7FFE7179840F6C84173
:1032B000C2F20001C16317984862FFE7272001901E
:1032C00001221146FEF714FE0198FEF707FEFFE704
:1032D000FFE7FFE718B080BD81B0009001B07047F4
:1032E00081B0009001B0704780B58AB00890079116
:1032F000ADF81A20059300200290089890F841003C
:10330000202878D1FFE7079820B1FFE7BDF81A0021
:1033100020B9FFE701208DF8270070E00899002010
:1033200048640899212081F84100FEF73FFD029092
:10333000BDF81A0008998884BDF81A000899C88455
:1033400008988068B0F5805F09D1FFE708980069A8
:1033500028B9FFE7002004900798039004E007983D
:10336000049000200390FFE7FFE70898C08C58B353
:10337000FFE70898029B05996A46116080210022A8
:1033800000F046FD20B1FFE703208DF8270036E06E
:10339000049858B9FFE7039800886FF35F200899F5
:1033A0000968486003980230039008E004980078A8
:1033B000089909684860049801300490FFE708996B
:1033C000C88C0138C884D0E70898029B05996A46E2
:1033D00011604021002200F01BFD20B1FFE7032017
:1033E0008DF827000BE00899202081F8410000208B
:1033F0008DF8270003E002208DF82700FFE79DF8F5
:1034000027000AB080BD000081B0009001B0704775
:10341000FFE7FEE780B584B0FFE741F21400C4F295
:103420000200016841F001010160006800F0010044
:1034300003900398FFE70D200090002101910122E5
:10344000FEF756FD0098FEF749FD01991020029005
:103450000222FEF74DFD0298FEF740FD04B080BD4C
:1034600080B58AB000200990089007900690FFE789
:1034700041F21800C4F20200016841F0100101603D
:10348000006800F0100005900598FFE7FFE741F2A3
:103490001800C4F20200016841F0200101600068D8
:1034A00000F0200004900498FFE7FFE741F21800C5
:1034B000C4F20200016841F004010160006800F0FC
:1034C000040003900398FFE7FFE741F21800C4F2FD
:1034D0000200016841F008010160006800F0080086
:1034E00002900298FFE74FF6FF70069003200090CD
:1034F000079041F20000C4F2010006A90191FEF715
:10350000C5FA0098019949F6F3120692079040F621
:103510000000C4F20100FEF7B9FA009801994FF2D9
:10352000FF320692079040F60040C4F20100FEF719
:10353000ADFA0098019904220692079041F20040EA
:10354000C4F20100FEF7A2FA0AB080BD80B582B0D5
:1035500040F60C50C2F20000019043F60001C4F2A4
:10356000010101604FF4E131416000218160C160DF
:1035700001610C2242618161C161FFF72FFD18B129
:10358000FFE7FDF7ADFFFFE702B080BD80B582B079
:1035900040F65450C2F20000019044F20041C4F2DF
:1035A000000101604FF41641416000218160C1605B
:1035B00001610C2242618161C161FFF70FFD18B109
:1035C000FFE7FDF78DFFFFE702B080BD80B582B059
:1035D00040F69C50C2F20000019044F60001C4F293
:1035E000000101604FF4E131416000218160C16060
:1035F00001610C2242618161C161FFF7EFFC18B1EA
:10360000FFE7FDF76DFFFFE702B080BDFFE7FEE7D4
:10361000FFE7FEE788B0079006910592079800F053
:10362000070004900498C0F10700052803D3FFE7C2
:103630000420019004E00498C0F107000190FFE726
:103640000198039004980430062803D8FFE700206F
:10365000009003E0049803380090FFE70098029080
:1036600006980399012202FA01F101390840029BF0
:10367000984005999A40013A1140084308B07047B4
:103680007047000082B00190019840F20001C2F240
:1036900000010968C90844F6D352C1F26202A1FBD5
:1036A0000221890948430090FFE700BFFFE7009827
:1036B000411E00910028F8D1FFE702B070470000DA
:1036C0007047000080B582B0009000980138B0F1DA
:1036D000807F03D3FFE70120019019E000980138B3
:1036E0004EF21401CEF2000108604FF0FF300F21BE
:1036F00000F02AFC4EF21801CEF200010020086012
:103700004EF21002CEF20002072111600190FFE795
:10371000019802B080BD000080B5FEF74DFB80BD72
:1037200080B590B006A800902821FCF70CFE009808
:1037300000230593049303930293019301220692BD
:103740004FF48031079108930A9202220D920E9154
:103750004FF4E0110F91FEF7A1FD18B1FFE7FDF75F
:10376000BFFEFFE70F20019002210291002003908D
:103770004FF480620492059001A8FEF7DBFB18B1BC
:10378000FFE7FDF7ADFEFFE710B080BD704700001A
:1037900080B582B001900198406A009000990020A5
:1037A000C8850099C8840098FFF7AAF902B080BDC7
:1037B00080B584B00390002002900398406A019085
:1037C000019800684069C0B2C0090290019890F861
:1037D000410021280AD1FFE7029838B1FFE701999B
:1037E0000020C884019800F013F9FFE701980068F1
:1037F0004069C0F380100290019890F8420022289E
:103800000AD1FFE7029838B1FFE701990020C88587
:10381000019800F09FF8FFE70199486C40F0100014
:1038200048640198FFF76CF904B080BD80B586B09C
:1038300005900598406A0490059800680068800625
:1038400000285AD4FFE704990020C885FFE7FFE766
:103850000498006850E8030F20F480700390FFE79D
:1038600003990498026842E803100028F0D1FFE7AA
:10387000FFE7FFE7FFE70498006850E8050F20F036
:1038800001000290FFE702990498026842E80510DF
:103890000028F0D1FFE7FFE7FFE7FFE704980068A3
:1038A00050E8050F20F040000190FFE701990498CF
:1038B000026842E805100028F0D1FFE7FFE704990D
:1038C000202081F842000498006B012814D1FFE702
:1038D000FFE7FFE70498006850E8030F20F01000AE
:1038E0000090FFE700990498026842E8031000285E
:1038F000F0D1FFE7FFE7FFE7FFE704990020486307
:103900000498006B012805D1FFE70498818DFFF72B
:1039100087F803E00498FFF7DFFCFFE706B080BDFF
:1039200080B582B001900198406A00900099012012
:1039300048630098006B012806D1FFE70098818D4D
:103940004908FFF76DF803E00098FFF7C9FCFFE7AF
:1039500002B080BD84B00390FFE7FFE703980068E2
:1039600050E8030F20F490700290FFE7029903984B
:10397000026842E803100028F0D1FFE7FFE7FFE705
:10398000FFE70398006850E8050F20F00100019060
:10399000FFE701990398026842E805100028F0D17A
:1039A000FFE7FFE70398006B012814D1FFE7FFE76B
:1039B000FFE70398006850E8030F20F01000009024
:1039C000FFE700990398026842E803100028F0D14D
:1039D000FFE7FFE7FFE70399202081F84200039902
:1039E0000020086304B0704780B582B00190019850
:1039F0000168C86820F04000C8600199202081F863
:103A000041000198FFF700FD002002B080BD0000DA
:103A100082B00190FFE7FFE70198006850E8030FCC
:103A200020F0C0000090FFE700990198026842E88A
:103A300003100028F0D1FFE7FFE70199202081F86B
:103A4000410002B07047000080B586B00490049831
:103A500090F84200222840F0A480FFE70498806894
:103A6000B0F5805F15D1FFE70498006988B9FFE7DA
:103A7000002003900498806A0290049800684068CF
:103A80006FF35F20029908800499886A0230886287
:103A900025E00498806A03900020029004988068D2
:103AA000B0F5805F08D0FFE70498806850B9FFE761
:103AB0000498006930B9FFE70498006840680399EA
:103AC000087007E004980068406800F07F000399E0
:103AD0000870FFE70499886A01308862FFE704995B
:103AE000C88D0138C8850004002856D1FFE7049826
:103AF0000168C86820F02000C86004980168C868A0
:103B000020F48070C86004980168486920F00100C2
:103B100048610499202081F84200049900204863FC
:103B20000498006B012830D1FFE704990020086356
:103B3000FFE7FFE70498006850E8030F20F010004B
:103B40000190FFE701990498026842E803100028F9
:103B5000F0D1FFE7FFE7049800680068C00600287E
:103B60000ED5FFE7FFE7002000900498006800688A
:103B7000009004980068406800900098FFE7FFE715
:103B80000498818DFEF74CFF03E00498FFF7A4FB37
:103B9000FFE700208DF8170007E000208DF81700E0
:103BA00003E002208DF81700FFE79DF8170006B02C
:103BB00080BD000080B584B0039003980068006960
:103BC00020F44050039A1168D268104308610399A9
:103BD00088680A694969104308430290039800689D
:103BE000C06841F20C61884302990843039909684F
:103BF000C86003980068406920F44070039A116817
:103C00009269104348610398006843F60001C4F2CA
:103C10000101884204D1FFE7FEF7D0FA019003E0EA
:103C2000FEF7BAFA0190FFE7019819214843039A79
:103C3000116852689200B0FBF2FC48F21F52C5F2C4
:103C4000EB12ACFB02304309642003FB10CC3220A2
:103C500000EB0C10A0FB0202F02000EA521000EB77
:103C60000310C2F343121044886004B080BD00000A
:103C700080B588B007900691ADF816200698079990
:103C80008862BDF816000799888507990020486466
:103C9000079A222182F842100799CA6B43F62D0138
:103CA000C0F6000191620799CA6B43F62111C0F674
:103CB0000001D1620799CA6B43F2B171C0F60001ED
:103CC00011630799C96B486306A8049007980168B7
:103CD000C06B0431049A1268BDF81630FDF770FE0F
:103CE000FFE700200390079800680068039007989A
:103CF0000068406803900398FFE707980069A0B147
:103D0000FFE7FFE7FFE70798006850E8030F40F47C
:103D100080700290FFE702990798026842E803105A
:103D20000028F0D1FFE7FFE7FFE7FFE7FFE707988D
:103D3000006850E8050F40F001000190FFE701998D
:103D40000798026842E805100028F0D1FFE7FFE776
:103D5000FFE7FFE70798006850E8050F40F04000D4
:103D60000090FFE700990798026842E805100028D4
:103D7000F0D1FFE7FFE7002008B080BD83B00190DD
:103D8000019890F8410021283AD1FFE70198806816
:103D9000B0F5805F13D1FFE70198006978B9FFE7BC
:103DA0000198006A0090009800886FF35F200199E5
:103DB000096848600199086A0230086208E0019ABF
:103DC000106A411C11620078019909684860FFE798
:103DD0000199C88C0138C884000468B9FFE70198CC
:103DE0000168C86820F08000C86001980168C86850
:103DF00040F04000C860FFE700208DF80B0003E0B2
:103E000002208DF80B00FFE79DF80B0003B0704710
:103E100080B588B0DDF828C0069005918DF8132094
:103E20000393FFE706980068006805990840401A68
:103E3000B0FA80F040099DF81310884249D1FFE79D
:103E40000A980130002843D0FFE70A9840B1FFE705
:103E5000FDF7ACFF0399401A0A99884237D9FFE76A
:103E6000FFE7FFE70698006850E8030F20F4D070E2
:103E70000290FFE702990698026842E803100028C2
:103E8000F0D1FFE7FFE7FFE7FFE70698006850E89B
:103E9000050F20F001000190FFE7019906980268E4
:103EA00042E805100028F0D1FFE7FFE7069920203F
:103EB00081F84100069981F84200FFE70699002049
:103EC00081F84000FFE703208DF81F0005E0FFE7C1
:103ED000A8E700208DF81F00FFE79DF81F0008B03D
:103EE00080BD000080B540F65450C2F20000FEF7DD
:103EF0005FFE80BD80B540F69C50C2F20000FEF728
:103F000057FE80BDFFE7FEE781B08DF803009DF905
:103F1000030000280ED4FFE79DF9031001F01F02F3
:103F2000012090404A094EF20011CEF2000141F802
:103F30002200FFE701B070474EF60C50CEF20000B1
:103F40000068C0F30220704782B08DF8070000912E
:103F50009DF9070000280AD4FFE7009800019DF9A9
:103F600007104EF20042CEF2000288540BE0009897
:103F700000019DF8071001F00F014EF61452CEF229
:103F800000028854FFE702B07047000083B002903F
:103F9000029800F0070000904EF60C51CEF200019E
:103FA0000868019001984FF6FF02104001900198B7
:103FB000009A40EA02200022C0F2FA521043019017
:103FC0000198086003B0704788B006908DF817100C
:103FD000049203930020ADF80600069820B9FFE78D
:103FE00003208DF81F0061E00498006820B9FFE706
:103FF00003208DF81F0059E0069801300290FFE77A
:104000000298017800200D29009007D0FFE7029860
:1040100040780A3818BF01200090FFE70098C007D9
:10402000C0B3FFE79DF81700F8B9FFE70298BDF8A5
:104030000610401A04990860039808B9FFE729E0C0
:10404000029800782C280BD0FFE7029800782A28E5
:1040500006D0FFE7BDF806000130ADF8060015E018
:10406000BDF806000399088014E0029800782C2817
:1040700005D0FFE7029800782A2806D1FFE79DF8CF
:10408000170001388DF81700FFE7FFE702980130AD
:104090000290B5E79DF8170020B1FFE701208DF8E9
:1040A0001F0003E000208DF81F00FFE79DF81F00B0
:1040B00008B0704780B58CB00A9009910A9818B181
:1040C000FFE7099820B9FFE703208DF82F003BE2B6
:1040D0000A9807AA00231946FFF776FF8DF82300F8
:1040E0009DF8230078B9FFE70798807847280AD120
:1040F000FFE70798C078472805D1FFE707980079C0
:10410000412804D0FFE703208DF82F001CE20A9815
:10411000012107AA0023FFF757FF8DF82300079816
:1041200006A90DF1170201F05DFA01469DF8230082
:1041300008448DF823009DF8230028B9FFE79DF877
:104140001700032804D0FFE701208DF82F00FBE1C2
:1041500006984CF66B21C6F65F3180FB010188158D
:1041600000EBD17348F21F51C5F2EB1183FB010242
:10417000500900EBD270642200FB1230099B1870CA
:1041800006984BF28953C1F2F84380FB030358139E
:1041900000EBD37383FB010C4FEA5C1000EBDC7087
:1041A00000FB1230099B5870069B44F6D350C1F2B5
:1041B000620083FB003C4FEAAC1303EBDC7383FB30
:1041C000011C4FEA5C1101EBDC7101FB1231099A11
:1041D0009170069A82FB0001880900EBD1704FF4C0
:1041E0007A7100FB1120099988800A98022107AA98
:1041F0000023FFF7E9FE8DF82300079806A90DF1CB
:10420000170201F0EFF901469DF8230008448DF8EC
:1042100023009DF8230020B1FFE701208DF82F0037
:1042200092E19DF8171006A8052201F0CFF8069933
:104230004CF66B20C6F65F3081FB0012911501EB46
:10424000D27148F2A062C0F201025143099AD160D2
:10425000069A82FB0001881500EBD17049F280615B
:10426000C0F2980100FB112148F68900C8F68800C9
:1042700081FB00200144481100EBD1720999C86804
:104280001044C8600A98032107AA0023FFF79CFE88
:104290008DF823009DF8230050B9FFE707980078B8
:1042A0004E2809D0FFE707980078532804D0FFE78D
:1042B00001208DF82F0047E1079800784E3818BF8D
:1042C0000120099908720A98042107AA0023FFF720
:1042D0007BFE8DF82300079806A90DF1170201F067
:1042E00081F901469DF8230008448DF823009DF8CC
:1042F000230020B1FFE701208DF82F0024E19DF875
:10430000171006A80522049201F060F80499069A95
:104310004CF66B20C6F65F3082FB00239A1502EB49
:10432000D37248F2A063C0F201035A43099B5A6159
:10433000069B83FB0002901500EBD27049F280626D
:10434000C0F2980200FB123248F68900C8F68800D5
:1043500082FB00300244501100EBD273099A50697D
:10436000184450610A9807AA0023FFF72DFE8DF824
:1043700023009DF8230050B9FFE7079800784528EF
:1043800009D0FFE707980078572804D0FFE70120FD
:104390008DF82F00D8E007980078453818BF012025
:1043A000099908740A98062107AA0023FFF70CFE52
:1043B0008DF82300079806A90DF1170201F012F9F4
:1043C00001469DF8230008448DF823009DF8230042
:1043D00020B9FFE79DF8170020B1FFE701208DF815
:1043E0002F00B1E00698039040B1FFE70398012841
:1043F00008D0FFE70398022808D00BE009990020B5
:1044000008760BE009990120087607E00999022057
:10441000087603E001208DF82F0095E00A98072127
:1044200007AA0023FFF7D0FD8DF82300079806A9FF
:104430000DF1170201F0D6F801469DF8230008445B
:104440008DF823009DF8230020B9FFE79DF81700A1
:1044500020B1FFE701208DF82F0075E0069809993B
:1044600048760A98082107AA0023FFF7ADFD8DF8CA
:104470002300079806A90DF1170201F0B3F80146D1
:104480009DF8230008448DF823009DF8230020B1F7
:10449000FFE701208DF82F0056E09DF8171006A8C1
:1044A0000290012200F092FF0698099948830A9829
:1044B000092107AA0023FFF787FD02998DF8230041
:1044C00007980DF1170201F08DF801469DF82300C1
:1044D00008448DF823009DF8230020B1FFE7012058
:1044E0008DF82F0030E09DF8171006A801900122EA
:1044F00000F06CFF06980999C8610A980E2107AA76
:104500000023FFF761FD01998DF8230007980DF155
:10451000170201F067F801469DF8230008448DF862
:1045200023009DF8230020B9FFE79DF8170020B174
:10453000FFE701208DF82F0006E00698099908840E
:1045400000208DF82F00FFE79DF82F000CB080BDF4
:1045500080B58CB00A9009910020ADF81A000A9835
:1045600018B1FFE7099820B9FFE703208DF82F0065
:104570003AE10A9807AA00231946FFF725FD8DF8AE
:1045800023009DF8230078B9FFE707988078472833
:104590000AD1FFE70798C078532805D1FFE70798AD
:1045A0000079412804D0FFE703208DF82F001BE19C
:1045B0000A98012107AA0023FFF706FD8DF82300C2
:1045C0009DF8230050B9FFE7079800784D2809D0DF
:1045D000FFE707980078412804D0FFE701208DF815
:1045E0002F0001E1079800784D3818BF0120099984
:1045F00008700A98022107AA0023FFF7E5FC8DF84E
:104600002300079805A90DF1130200F0EBFF014606
:104610009DF8230008448DF823009DF8230020B95D
:10462000FFE79DF8130020B1FFE701208DF82F0070
:10463000DAE005980390012808D0FFE703980228E4
:1046400008D0FFE70398032808D00BE00999002061
:1046500048700BE009990120487007E00999022091
:10466000487003E001208DF82F00BDE000208DF898
:104670001200FFE79DF812000B2840DCFFE70A98C4
:104680009DF812100331C9B207AA0DF11A03FFF702
:104690009BFC8DF823009DF8230020B1FFE701204B
:1046A0008DF82F00A0E0BDF81A0038B9FFE709988F
:1046B0009DF812100144002088701AE0079805A99F
:1046C0000DF1130200F08EFF8DF823009DF82300FA
:1046D00020B9FFE79DF8130020B1FFE701208DF816
:1046E0002F0081E0059809999DF8122011448870E7
:1046F000FFE79DF8120001308DF81200BAE70A9822
:104700000F2107AA0023FFF75FFC8DF8230007980D
:1047100005A90DF1130200F065FF01469DF8230085
:1047200008448DF823009DF8230020B1FFE7012005
:104730008DF82F0058E09DF8131005A80290012273
:1047400000F044FE05980999C8810A98102107AA2B
:104750000023FFF739FC02998DF8230007980DF12B
:10476000130200F03FFF01469DF8230008448DF836
:1047700023009DF8230020B1FFE701208DF82F00D2
:1047800032E09DF8131005A80190012200F01EFEF2
:104790000598099908820A98112107AA0023FFF7B2
:1047A00013FC01998DF8230007980DF1130200F016
:1047B00019FF01469DF8230008448DF823009DF859
:1047C000230020B1FFE701208DF82F000CE09DF8B9
:1047D000131005A8012200F0F9FD059809994882F7
:1047E00000208DF82F00FFE79DF82F000CB080BD52
:1047F00080B58AB008900791089818B1FFE707982C
:1048000020B9FFE703208DF8270046E2089805AAA3
:1048100000231946FFF7D8FB8DF81B009DF81B00FD
:1048200078B9FFE70598807847280AD1FFE705980F
:10483000C078532805D1FFE705980079562804D0A1
:10484000FFE703208DF8270027E205980078472826
:1048500009D1FFE705984078502804D1FFE70520EB
:104860008DF8030012E005980078422809D1FFE78F
:1048700005984078442804D1FFE706208DF803000E
:1048800003E001208DF8270007E2FFE708980121E7
:1048900005AA0023FFF798FB8DF81B00059803A9D4
:1048A0000DF10B0200F09EFE01469DF81B0008442E
:1048B0008DF81B009DF81B0020B9FFE79DF80B0049
:1048C00020B1FFE701208DF82700E6E103988DF87D
:1048D0000A000898032105AA0023FFF775FB8DF84D
:1048E0001B00059803A90DF10B0200F07BFE0146A9
:1048F0009DF81B0008448DF81B009DF81B00A8B90B
:10490000FFE79DF80B0088B9FFE703989DF80A20A0
:104910006FF0030101EB8201884207DBFFE7039898
:104920009DF80A10B0EB810F04DDFFE701208DF840
:104930002700B2E1039807990870079800780D28BE
:1049400007DBFFE707990C20087003208DF80A00A9
:10495000FFE700208DF80900FFE79DF809009DF8AA
:104960000A10884280F29581FFE708989DF80310AD
:104970009DF809200132D2B201AB00F061FD8DF843
:104980001B009DF81B0020B1FFE701208DF82700D8
:1049900083E10198012105AA0023FFF715FB8DF89B
:1049A0001B00059803A90DF10B0200F01BFE014648
:1049B0009DF81B0008448DF81B009DF81B0050B9A2
:1049C000FFE79DF80B0030B9FFE703989DF80A1048
:1049D000884204DAFFE701208DF827005DE10198A5
:1049E000022105AA0023FFF7EFFA8DF81B000598B6
:1049F00003A90DF10B0200F0F5FD01469DF81B0027
:104A000008448DF81B009DF81B0058B9FFE79DF87E
:104A10000B0038B9FFE703989DF80910013188426F
:104A200004D0FFE701208DF8270036E1019803212B
:104A300005AA0023FFF7C8FA8DF81B00059803A903
:104A40000DF10B0200F0CEFD01469DF81B0008445D
:104A50008DF81B009DF81B0050B9FFE79DF80B0077
:104A600030B9FFE7039807990978884204DAFFE72D
:104A700001208DF8270010E100208DF80200FFE7EB
:104A80009DF80200032800F3FD80FFE701989DF8E0
:104A90000220042101EB8201C9B205AA0023FFF71D
:104AA00093FA8DF81B00059803A90DF10B0200F095
:104AB00099FD8DF81B009DF81B0020B9FFE79DF8BC
:104AC0000B0020B1FFE701208DF82700E5E00398F7
:104AD00007999DF809309DF8022002EB830201EB53
:104AE000C201488001989DF80220052101EB820156
:104AF000C9B205AA0023FFF767FA8DF81B000598D5
:104B000003A90DF10B0200F06DFD01469DF81B009D
:104B100008448DF81B009DF81B0020B9FFE79DF8A5
:104B20000B0020B1FFE701208DF82700B5E00398C6
:104B300007999DF809309DF8022002EB830201EBF2
:104B4000C201087101989DF80220062101EB820143
:104B5000C9B205AA0023FFF737FA8DF81B000598A4
:104B600003A90DF10B0200F03DFD01469DF81B006D
:104B700008448DF81B009DF81B0020B9FFE79DF845
:104B80000B0020B1FFE701208DF8270085E0039896
:104B900007999DF809309DF8022002EB830201EB92
:104BA000C201C88001989DF80220072101EB820113
:104BB000C9B205AA0DF11203FFF706FA8DF81B0022
:104BC0009DF81B0020B1FFE701208DF8270064E06D
:104BD000BDF81200F0B9FFE707989DF809209DF88D
:104BE000021001EB820100EBC101002008729DF868
:104BF00009009DF80A10013988420AD1FFE79DF8A3
:104C0000020007990A7803219143884201D1FFE706
:104C100038E031E0059803A90DF10B0200F0E2FC49
:104C20008DF81B009DF81B0020B9FFE79DF80B00D5
:104C300020B1FFE701208DF827002EE003980799A7
:104C40009DF809309DF8022002EB830201EBC201BE
:104C500008729DF809009DF80A10013988420AD1AE
:104C6000FFE79DF8020007990A78032191438842E3
:104C700001D1FFE706E0FFE79DF8020001308DF863
:104C80000200FDE6FFE79DF8090001308DF80900FC
:104C900063E600208DF82700FFE79DF827000AB0A3
:104CA00080BD000080B58CB00A9009910A9818B1B7
:104CB000FFE7099820B9FFE703208DF82F0070E285
:104CC0000A9807AA00231946FFF77EF98DF82300FA
:104CD0009DF8230078B9FFE70798807852280AD119
:104CE000FFE70798C0784D2805D1FFE707980079BE
:104CF000432804D0FFE703208DF82F0051E20A98E3
:104D0000012107AA0023FFF75FF98DF82300079818
:104D100006A90DF1170200F065FC01469DF823007D
:104D200008448DF823009DF8230028B9FFE79DF87B
:104D30001700032804D0FFE701208DF82F0030E290
:104D400006984CF66B21C6F65F3180FB0101881591
:104D500000EBD17348F21F51C5F2EB1183FB010246
:104D6000500900EBD270642200FB1230099B1870CE
:104D700006984BF28953C1F2F84380FB03035813A2
:104D800000EBD37383FB010C4FEA5C1000EBDC708B
:104D900000FB1230099B5870069B44F6D350C1F2B9
:104DA000620083FB003C4FEAAC1303EBDC7383FB34
:104DB000011C4FEA5C1101EBDC7101FB1231099A15
:104DC0009170069A82FB0001880900EBD1704FF4C4
:104DD0007A7100FB1120099988800A98022107AA9C
:104DE0000023FFF7F1F88DF823009DF8230050B958
:104DF000FFE707980078562809D0FFE70798007862
:104E0000412804D0FFE701208DF82F00C9E1079861
:104E10000078563818BF0120099988720A98032132
:104E200007AA0023FFF7D0F88DF82300079806A9FA
:104E30000DF1170200F0D6FB01469DF8230008444F
:104E40008DF823009DF8230020B1FFE701208DF8A5
:104E50002F00A6E19DF8171006A8052200F0B6FA6B
:104E600006994CF66B20C6F65F3081FB0012911557
:104E700001EBD27148F2A062C0F201025143099ADB
:104E80001161069A82FB0001881500EBD17049F28E
:104E90008061C0F2980100FB112148F68900C8F634
:104EA000880081FB00200144481100EBD172099970
:104EB0000869104408610A98042107AA0023FFF733
:104EC00083F88DF823009DF8230050B9FFE7079879
:104ED00000784E2809D0FFE707980078532804D0BF
:104EE000FFE701208DF82F005BE1079800784E382E
:104EF00018BF0120099908730A98052107AA002301
:104F0000FFF762F88DF82300079806A90DF1170244
:104F100000F068FB01469DF8230008448DF823004B
:104F20009DF8230020B1FFE701208DF82F0038E124
:104F30009DF8171006A8052200F048FA06994CF6CD
:104F40006B20C6F65F3081FB0012911501EBD27128
:104F500048F2A062C0F201025143099A9161069A97
:104F600082FB0001881500EBD17049F28061C0F22C
:104F7000980100FB112148F68900C8F6880081FBE2
:104F800000200144481100EBD1720999886910444E
:104F900088610A98062107AA0023FFF715F88DF803
:104FA00023009DF8230050B9FFE7079800784528B3
:104FB00009D0FFE707980078572804D0FFE70120C1
:104FC0008DF82F00EDE007980078453818BF0120D4
:104FD000099908750A98072107AA0023FEF7F4FF2C
:104FE0008DF82300079806A90DF1170200F0FAFAD0
:104FF00001469DF8230008448DF823009DF8230006
:1050000020B1FFE701208DF82F00CAE09DF81710AE
:1050100006A80490012200F0D9F90698099988831E
:105020000A98082107AA0023FEF7CEFF04998DF8FD
:10503000230007980DF1170200F0D4FA01469DF8FD
:10504000230008448DF823009DF8230020B1FFE7DA
:1050500001208DF82F00A4E09DF8171006A80390FA
:10506000012200F0B3F906980999C8830A9809212A
:1050700007AA0023FEF7A8FF03998DF823000798DD
:105080000DF1170200F0AEFA01469DF82300084426
:105090008DF823009DF8230020B9FFE79DF8170045
:1050A00020B1FFE701208DF82F007AE0069B48F23F
:1050B0001F50C5F2EB1083FB0012510901EBD272B5
:1050C000642102FB113202F5FA62099BDA80069A2A
:1050D00082FB00235A1102EBD37383FB002C4FEAAF
:1050E0005C1202EBDC7202FB1132099B1A72069A07
:1050F00048F6AD33C6F6DB0382FB03231A1302EB3B
:10510000D37282FB0003580900EBD37000FB11201F
:10511000099948720A980C2107AA0023FEF754FF48
:105120008DF823009DF82300A0B9FFE707980078C9
:105130004E2813D0FFE70798007841280ED0FFE7EC
:1051400007980078442809D0FFE707980078452899
:1051500004D0FFE701208DF82F0022E007980078A7
:105160004E2803D1FFE70020029012E00798007854
:10517000412803D1FFE70120019007E0079801785B
:105180000320442908BF02200190FFE70198029004
:10519000FFE70298099981F8200000208DF82F0080
:1051A000FFE79DF82F000CB080BD000080B58AB0ED
:1051B00008900791089818B1FFE7079820B9FFE712
:1051C00003208DF82700FDE0089805AA0023194662
:1051D000FEF7FAFE8DF81B009DF81B0078B9FFE77B
:1051E0000598807856280AD1FFE70598C07854289A
:1051F00005D1FFE705980079472804D0FFE7032091
:105200008DF82700DEE00898012105AA0023FEF7AB
:10521000DBFE8DF81B00059803A90DF10B0200F0D1
:10522000E1F901469DF81B0008448DF81B009DF82C
:105230001B0028B9FFE79DF80B00012804D0FFE709
:1052400001208DF82700BDE0039807990880089891
:10525000032105AA0DF11203FEF7B6FE8DF81B001F
:105260009DF81B0020B1FFE701208DF82700A9E081
:10527000BDF8120020B9FFE707990020488013E02D
:10528000059803A90DF10B0200F0ACF98DF81B0095
:105290009DF81B0020B1FFE701208DF8270091E069
:1052A000039807994880FFE70898052105AA00237D
:1052B000FEF78AFE8DF81B00059803A90DF10B027D
:1052C00000F090F901469DF81B0008448DF81B0082
:1052D0009DF81B0028B9FFE79DF80B00012804D0BA
:1052E000FFE701208DF827006CE00398079988807C
:1052F0000898072105AA0023FEF766FE8DF81B001B
:10530000059803A90DF10B0200F06CF901469DF818
:105310001B0008448DF81B009DF81B0028B9FFE70F
:105320009DF80B00012804D0FFE701208DF827002D
:1053300048E003980799C8800898092105AA002326
:10534000FEF742FE8DF81B009DF81B00A0B9FFE799
:10535000059800784E2813D0FFE70598007841287B
:105360000ED0FFE705980078442809D0FFE705989C
:105370000078452804D0FFE701208DF8270021E0C0
:10538000059800784E2803D1FFE70020019012E035
:1053900005980078412803D1FFE70120009007E03D
:1053A000059801780320442908BF02200090FFE7F8
:1053B00000980190FFE701980799087200208DF886
:1053C0002700FFE79DF827000AB080BD82B001905A
:1053D0008DF803108DF80220019808B9FFE72DE041
:1053E000FFE79DF803009DF80210884212DDFFE7F9
:1053F0000199086846F26762C6F2666280FB0202A3
:10540000901000EBD27008609DF8030001388DF811
:105410000300E6E7FFE79DF803009DF802108842CD
:105420000CDAFFE70199086800EB80004000086093
:105430009DF8030001308DF80300ECE702B07047DF
:1054400080B58AB008908DF81F108DF81E20069345
:10545000089818B1FFE7069820B9FFE703208DF8F8
:105460002700BAE09DF81E0020B9FFE701208DF863
:105470001E00FFE79DF81F0001460191092861D831
:105480000199DFE801F0050E172029323B444D5603
:1054900046F6AC31C0F600010DF11200FAF7EAFE53
:1054A00054E046F6D031C0F600010DF11200FAF7D3
:1054B000E1FE4BE046F6B831C0F600010DF11200F6
:1054C000FAF7D8FE42E046F6BE31C0F600010DF113
:1054D0001200FAF7CFFE39E046F6B231C0F600010D
:1054E0000DF11200FAF7C6FE30E046F6DC31C0F6E8
:1054F00000010DF11200FAF7BDFE27E046F6D631A5
:10550000C0F600010DF11200FAF7B4FE1EE046F6F7
:10551000C431C0F600010DF11200FAF7ABFE15E040
:1055200046F6CA31C0F600010DF11200FAF7A2FEEC
:105530000CE046F6A631C0F600010DF11200FAF7B4
:1055400099FE03E003208DF8270046E008980390B9
:10555000FFE703980078E0B3FFE70398007824287A
:1055600032D1FFE700208DF80B00FFE79DF80B001C
:10557000042813DCFFE703989DF80B2010444078C3
:105580000DF11201895C884201D0FFE706E0FFE7D8
:105590009DF80B0001308DF80B00E7E79DF80B003C
:1055A000052810D1FFE79DF81E0001388DF81E0078
:1055B000000638B9FFE703980699086000208DF8C7
:1055C00027000AE0FFE7FFE7FFE7039801300390B9
:1055D000BFE701208DF82700FFE79DF827000AB0FC
:1055E00080BD00008BB00990089107920998069041
:1055F000002004908DF80F00099818B1FFE7089873
:1056000020B9FFE703208DF82B0087E0069800788B
:105610002D280ED0FFE706980078302805DBFFE73D
:10562000069800783A2804DBFFE703208DF82B006A
:1056300074E0069800782D2807D1FFE7069801301E
:105640000690FF208DF8170003E001208DF8170069
:10565000FFE7FFE70698017801202E29029012D07B
:10566000FFE70698017800203029019008DBFFE76A
:105670000698017800203A29B8BF01200190FFE781
:1056800001980290FFE70298C00748B3FFE79DF832
:105690000F0030B1FFE79DF80F0001308DF80F00CB
:1056A000FFE7069800782E2809D1FFE79DF80F0044
:1056B00001308DF80F00069801300690CAE7069871
:1056C000007830388DF81600049800EB80019DF8C2
:1056D000160000EB41000490069801300690B9E7EF
:1056E00004989DF91710484308990860079888B1F5
:1056F000FFE79DF80F0028B1FFE79DF80F00013884
:10570000009003E09DF80F000090FFE700980799D4
:105710000870FFE700208DF82B00FFE79DF82B00B5
:105720000BB0704781B040F27830C2F20000B0F8A0
:1057300000180120B0EBD13F0CD1FFE740F27830E8
:10574000C2F20000B0F800286FF3DF32002181546C
:10575000009002E000200090FFE7009801B0704741
:1057600080B5D8B0DDF874C1DDF870C1DDF86CC16A
:10577000DDF868C156905591549253935698B0B93C
:10578000FFE7559898B9FFE7549880B9FFE7539819
:1057900068B9FFE75A9850B9FFE75B9838B9FFE757
:1057A0005C9820B9FFE703208DF85F0127E2002015
:1057B0008DF83C018DF814018DF8FE008DF89A00EB
:1057C0008DF834008DF80E00FFE75D98002800F09A
:1057D0001282FFE7FFF7A6FF51905198002800F0D2
:1057E000E781FFE7549818B9FFE75A9898B3FFE7A5
:1057F0009DF83C0178BBFFE75198002250AB114661
:10580000FFF71EFE8DF84B019DF84B0110BBFFE723
:10581000509846A9FEF74EFC8DF84B019DF84B01C0
:10582000B8B9FFE7FF208DF83C01549820B1FFE79D
:105830004D9854990880FFE75A9848B1FFE79DF8C2
:1058400030015A9908709DF831015A994870FFE764
:10585000FFE7FFE703E0FF208DF83C01FFE75A98E0
:1058600000284AD0FFE79DF81401002845D1FFE742
:1058700051980221002250ABFFF7E2FD8DF84B0159
:105880009DF84B01C0BBFFE7509840A9FEF760FEB2
:105890008DF84B019DF84B0168BBFFE7FF208DF8A9
:1058A00014019DF801015A99887000208DF80300B9
:1058B000FFE79DF803000B2810DCFFE79DF80320AD
:1058C00040A8104480785A9901EB42018880FFE794
:1058D0009DF8030001308DF80300EAE7BDF80E01E2
:1058E0005A998883BDF810015A99C883BDF81201EE
:1058F0005A990884FFE7FFE703E0FF208DF81401C1
:10590000FFE75B9800285ED0FFE79DF8FE000028C7
:1059100059D1FFE751980521002250ABFFF790FDC8
:105920008DF84B019DF84B0100284BD1FFE75098B3
:1059300027A9FEF75DFF8DF84B019DF84B0100286C
:105940003FD1FFE7FF208DF8FE009DF89C005B999A
:10595000087000208DF80300FFE79DF803009DF814
:105960009C1088422CDAFFE727A802309DF803300C
:1059700030F833105B9A02EBC30251809DF803307C
:1059800000EBC30189785B9A02EBC30211719DF8A9
:10599000033000EBC30189885B9A02EBC302D1801C
:1059A0009DF8032000EBC20080795B9901EBC201F6
:1059B0000872FFE79DF8030001308DF80300CCE783
:1059C000FFE7FFE703E0FF208DF8FE00FFE75C98AC
:1059D00000285ED0FFE79DF89A00002859D1FFE724
:1059E00051980621002250ABFFF72AFD8DF84B019C
:1059F0009DF84B0100284BD1FFE750980EA9FEF708
:105A0000F7FE8DF84B019DF84B0100283FD1FFE7D1
:105A1000FF208DF89A009DF838005C9908700020EE
:105A20008DF80300FFE79DF803009DF838108842C9
:105A30002CDAFFE70EA802309DF8033030F833105F
:105A40005C9A02EBC30251809DF8033000EBC30166
:105A500089785C9A02EBC30211719DF8033000EB68
:105A6000C30189885C9A02EBC302D1809DF80320B0
:105A700000EBC20080795C9901EBC2010872FFE77C
:105A80009DF8030001308DF80300CCE7FFE7FFE746
:105A900003E0FF208DF89A00FFE7569820B9FFE752
:105AA0005598002854D0FFE79DF8340000284FD1C6
:105AB000FFE751980721002250ABFFF7C1FC8DF89A
:105AC0004B019DF84B01002841D1FFE7509804A9F4
:105AD000FFF7E8F88DF84B019DF84B01B0BBFFE7ED
