:020000040800F2
:10000000080B002035020008412E0008CD2C000806
:100010003D2E00083D140008A13400080000000037
:10002000000000000000000000000000F12E0008A9
:100030004114000800000000B12E0008492F0008FC
:100040004F0200084F0200084F0200084F0200084C
:100050004F0200084F0200084F0200084F0200083C
:100060004F0200084F0200084F0200084F0200082C
:100070004F0200084F0200084F0200084F0200081C
:100080004F0200084F0200084F0200084F0200080C
:100090004F0200084F0200084F0200084F020008FC
:1000A0004F0200084F0200084F0200084F020008EC
:1000B0004F0200084F0200084F0200084F020008DC
:1000C0004F0200084F0200084F0200084F020008CC
:1000D0004F0200084F020008913400084F02000848
:1000E0004F0200084F0200084F02000800F002F81B
:1000F00000F090F80AA090E8000C82448344AAF132
:100100000107DA4501D100F085F8AFF2090EBAE82F
:100110000F0013F0010F18BFFB1A43F0010318473B
:10012000C03E0000E03E0000103A24BF78C878C10D
:10013000FAD8520724BF30C830C144BF04680C60ED
:10014000704700000023002400250026103A28BF35
:1001500078C1FBD8520728BF30C148BF0B60704739
:100160006E2900F0A381702900F0E582662903F072
:100170009F86652903F09C86672903F0998661298B
:1001800003F0988603681B0A28BF41F080016929A3
:1001900000F05081642900F04D81752900F04A81FA
:1001A0006F2900F07382782900F0B182E92900F00C
:1001B0000D82E42900F00A82F52900F00782EF2978
:1001C00000F07082F82900F0B0820368DB0928BFD4
:1001D00041F08001632900F0B187732900F0B687F0
:1001E000E32900F0C187F32900F0C687002070479B
:1001F0001FB501F017F804000020002103F042FEB3
:10020000401C60600020002103F026FEE0601FBD5E
:1002100010B510BD00F0D8FF1146FFF7E9FF03F05D
:10022000A1F901F0B5F803B4FFF7F2FF03BC01F048
:10023000FDF800000948804709480047FEE7FEE74F
:10024000FEE7FEE7FEE7FEE7FEE7FEE7FEE7FEE786
:1002500004480549054A064B70470000BD2F0008B9
:10026000ED00000808050020080B0020080700200A
:10027000080700201CB50C46064B7B4469460090DD
:10028000204600F02CF904460020694600F03AF9B7
:1002900020461CBD8702000010B5431C02E010F888
:1002A000011B71B18107FAD14FF0013202C88C1ADB
:1002B0008C4314EAC211F9D0C01A0A0603D0C01E3A
:1002C00010BDC01A10BD0A0401D0801E10BD090265
:1002D000FCD0401E10BD4FF000020429C0F0128077
:1002E00010F0030C00F01B80CCF1040CBCF1020FE9
:1002F00018BF00F8012BA8BF20F8022BA1EB0C01BE
:1003000000F00DB85FEAC17C24BF00F8012B00F8B3
:10031000012B48BF00F8012B70474FF0000200B5D9
:10032000134694469646203922BFA0E80C50A0E818
:100330000C50B1F12001BFF4F7AF090728BFA0E8C6
:100340000C5048BF0CC05DF804EB890028BF40F892
:10035000042B08BF704748BF20F8022B11F0804FD4
:1003600018BF00F8012B704770477047704770B591
:10037000044685690068C10601D5302600E02026C4
:10038000C00707D070BDD4E9012130469047206AEC
:10039000401C20626D1EF6D570BD70B5044685699F
:1003A0000078C00707D170BDD4E901212020904713
:1003B000206A401C20626D1EF6D570BD09684A0592
:1003C00001D540B27047C905FCD500B27047096835
:1003D0004A0501D5C0B27047C905FCD580B2704747
:1003E00070B50C460546012A05D02878800600D550
:1003F000EA69002302E0012305E05B1C934202D27C
:10040000E05C0028F9D1A869E618C01AA861286A3A
:10041000184428622846FFF7AAFF04E0D5E9012125
:1004200014F8010B9047B442F8D32846FFF7B5FF04
:1004300070BD00002DE9F0410646002410687529C2
:10044000314616A510D0FFF7B9FF002802DA404266
:1004500013A507E031688A0701D512A502E0490714
:1004600004D511A5012401E0FFF7B1FF00210A2204
:1004700006F1240709E0B0FBF2FCB0FBF2F302FB4B
:100480001C00303078541846491C0028F3D123460C
:100490002A463046BDE8F04100F061BA0000000095
:1004A0002D0000002B0000002000000011680268F1
:1004B000006A530501D508700AE0D30501D508800C
:1004C00006E0130603D5C217C1E9000200E0086088
:1004D0000120704701694A1C02610878704700B525
:1004E0008FB0CDE901310021059105497944CDE96D
:1004F00003101146684600F029F90FB000BD000056
:10050000E5FFFFFF0A6802F8010B0A607047000070
:100510002DE9FF5F15468A460446DFF8AC80F844B3
:100520000027D8E900103E46CDE9001010E03AF867
:1005300016106A4602A800F023FE411C07D021785D
:10054000890603D5E269391891420DD80744761C13
:100550002078800602D5E069B84205DDAE42E6DBD0
:100560003AF816000028E2D1A069C01BA06120461D
:10057000FFF7FDFED8E90010CDE90010002017E0DC
:100580003AF818106A4602A800F0FAFDB0F1FF3FF1
:1005900081460BD000250DF1080B05E0D4E90121BF
:1005A0001BF8050090476D1C4D45F7D308F101007D
:1005B000B0428046E4DB206A384420622046FFF7E0
:1005C000ECFEBDE8FF9F0000963900002DE9F041E8
:1005D0008046D21D22F007020025D2E90002F5294B
:1005E00015A614D0011E72F1000106DA0023D0EB2B
:1005F000030063EB020211A608E0D8F800108B0795
:1006000001D50FA602E0490701D50EA60125114626
:10061000002408F1240704E000F05CF930323A5578
:10062000641C50EA0102F7D12B463246214640466F
:10063000BDE8F04100F093B9000000002D0000007B
:100640002B0000002000000030B4002100F1240441
:1006500008E002F00705D208303542EA4372DB08B1
:100660006554491C52EA0305F3D10468002310A223
:10067000250708D504F020040C4304D0C4690123E5
:100680000CA2641EC46130BC00F069B910B5044608
:1006900021461068FFF79BFE02462046BDE8104049
:1006A0000023D1E7D21D22F00701D1E90023CBE7D7
:1006B0000000000030000000F0B40D46018809057C
:1006C00002D5214C7C4402E01F4C7C440E340021B6
:1006D00000F1240608E002F00F071209E75D42EA84
:1006E00003721B097754491C52EA0307F3D10278BD
:1006F0000023120704D5702D06D009B1022311344E
:100700002246F0BC00F02BB901231034F8E770B595
:1007100004460D4621461068FFF759FE0246294659
:100720002046BDE870400023C6E7D21D22F0070333
:10073000D3E90023C0E70368126843F02003036095
:100740000823C3610023B7E7F83700002DE9F05F05
:10075000894604464FF0000ADFF874B1FB44C0F844
:1007600020A02046E1688847002874D0252806D0BC
:10077000D4E901219047206A401C2062F1E700265D
:100780005F462046E16888472028054607DB312D73
:1007900005D2781910F8200C08B10643F1E7B0072C
:1007A00001D526F00406C4F81CA00027C4F818A040
:1007B0002A2D09D0284603F047FB38B304EB8708FD
:1007C000303DC8F8185019E059F8041B204604EBD6
:1007D00087029161E1688847012F054618D1E069D9
:1007E000002820DA26F020061DE0D8F8180000EBDB
:1007F000800005EB40003038C8F818002046E1685A
:100800008847054603F020FB0028EED1012F0AD0CF
:100810002E2D08D12046E16888477F1C0546022F0F
:1008200046F02006C4DBA069002803DA404246F007
:100830000106A061F00701D026F010066C2D0BD048
:10084000682D09D04C2D39D06A2D35D0742D35D076
:100850007A2D33D016E038E0E1682F4620468847ED
:10086000B842054609D16C2F26D04FF48060E1686C
:10087000064320468847054604E06C2F1AD04FF403
:10088000807006430DB3A5F14100192802D8203528
:1008900046F400664A462946204626604E46FFF743
:1008A0005FFC80B101280BD0F61D26F0070000F197
:1008B000080956E74020E4E78020D8E70020D6E783
:1008C00006F104094DE7284652E7206ABDE8F09F8B
:1008D0008837000030B5B0F10A0271F100034FEA29
:1008E000900E4EEA817EB0EB0E0061EB91014FEA73
:1008F000101E4EEA017E10EB0E0041EB11114FEA83
:10090000102E4EEA016E10EB0E0041EB11214FEA62
:10091000104E4EEA014E10EB0E0041EB1141401813
:1009200041F100014FEAD00040EA41704FEAD101A5
:100930004FEA810444EA907410EB800544EB010413
:100940006D1944EB0404521BA3414FF0000348BF50
:100950000A3200D530BD401C41F1000130BD2DE907
:10096000F0470D4699469246044600F12408016876
:10097000880604D5E06921F01001216000E0012023
:10098000A84201DD471B00E00027A1697A1902EBAC
:100990000900081AA0612078C00602D42046FFF79B
:1009A000E6FC002608E0D4E901211AF80600904789
:1009B000206A401C761C20624E45F4DB2078C0067D
:1009C0000AD52046FFF7D3FC06E0D4E90121302008
:1009D0009047206A401C2062381EA7F10107F4DC12
:1009E00007E0D4E9012118F805009047206A401C6F
:1009F0002062281EA5F10105F3DC2046FFF7CDFC9F
:100A00002078000602D50220BDE8F0870120FBE730
:100A10002DE9FF4F0C461E464FF0FF378BB0D2E951
:100A20000001DDF860800A908A46C1F30A5505B9D5
:100A30003D46002108464FF00000BAF1000F00F4D7
:100A4000400005DA00EB80004FF4400101EA50005D
:100A50004FEA9059B9F1010F00DDB9460A9850EA02
:100A60004A000ED044F61050A5F2FF3545432F142E
:100A7000B8F1000F1ED07542291E1EDDC9F100021B
:100A80001CE0B8F1010F4FF0000001D0302103E06D
:100A9000F24305E02154401CB042FBDB304600220B
:100AA000002121540B99C1F80880C1E900200FB042
:100AB000BDE8F08FBD1B6D1CDEE74A4600DA6942D7
:100AC00006A800F0F3FB06AB93E8070003AB83E84E
:100AD000070050460A9902F0DBFD8DE80700A0F5FB
:100AE00000501F3800900398002D0ADD42F21F01CC
:100AF0004A460844002303A90390684603F044F8DB
:100B000009E0A0F500504A461F38002303A90390CE
:100B1000684603F04EF88DE807000004000C03D08F
:100B20004FF0FF30410800E01046B8F1000F03D04D
:100B30000022009215461EE0751E05D4FFF7CAFE7E
:100B4000303262556D1EF9D5B3460122084302D0FA
:100B500000227F1C04E02078302801D100227F1E73
:100B6000002A099784D01DE0112D07DAFFF7B2FEA5
:100B7000303262556D1C50EA0102F5D1084302D0B3
:100B80000098C8B10EE00021681E05E0235C625C9D
:100B900063542254401E491C8142F7DBAB46A81B1C
:100BA000401E0990002004F80B000B98099AC0F829
:100BB0000880C0E9002B7AE711264FF0000857E7BC
:100BC0002DE9F04F88460446D21D22F0070191B06E
:100BD000D1E90001CDE90A0103F022F902460B98A0
:100BE000C00F01D02D2007E02068810701D52B2000
:100BF00002E0202101EAC000032A099001D0072A5F
:100C000005DB03464146204600F010FB0BE120784F
:100C1000800601D5E06900E00620B8F1650F814645
:100C200006D0B8F1660F18D0B8F1670F70D131E077
:100C30000020B9F1110F009001DB112301E009F14F
:100C400001030AAA01A90CA8FFF7E2FEDDE90C7076
:100C5000002609F10105834647E001204B4600903C
:100C60004FF000470AAA01A90CA8FFF7D1FEDDE961
:100C70000DB00C995D46002610B909F101000D1860
:100C8000B9EB050003D4C0F1FF3609F10105A5EB6E
:100C900009002BE0B9F1010F01DA4FF00109002042
:100CA000B9F1110F0090484601DD112300E0034621
:100CB0000AAA01A90CA8FFF7ABFEDDE90C704D46AE
:100CC00000268346207800070AD4AB4500DA5D464B
:100CD00001A8012D04DD411911F8011C302907D0AC
:100CE0004F4502DA17F1040F04DA012082460FE0C3
:100CF0006D1EEEE7002F02DCED1B3E4403E0781C86
:100D0000A84200DD7D1CB81B00F1010A4FF000472E
:100D10002078000703D4AA4501DB4FF0FF3A0021F9
:100D2000B7F1004F0DF143088DF8431024D0022095
:100D30002B23002F01DA7F422D230A21021EA0F16E
:100D4000010000DC5FB197FBF1FC97FBF1F201FBC6
:100D50001C7C17460CF1300C08F801CDEEE7A8F129
:100D6000010003702188090501D5452100E06521B6
:100D7000A0F1010800F8011C09980FA9A1EB0807D0
:100D8000FF1D00B10120411901EBEA70A16938444F
:100D9000081A401EA0612078C00602D42046FFF742
:100DA000E6FA099828B1D4E901219047206A401C4D
:100DB00020622078C00622D52046FFF7D8FA1EE030
:100DC000002E04DBB34502DD01A8805D00E0302089
:100DD000D4E901219047206A401C2062761CAAF1C8
:100DE00001005FEA000A0AD100F01CFAC06801683D
:100DF000405CD4E901219047206A401C2062281EF3
:100E0000A5F10105DCDC07E0D4E9012118F8010BAC
:100E10009047206A401C2062381EA7F10107F3DCCE
:100E20002046FFF7BAFA032011B041E62DE9F04F52
:100E300004460D46D21D22F0070089B0D0E9009784
:100E40004846394602F0ECFF0246F80F01D02D2348
:100E500007E02068810701D52B2302E0202101EA69
:100E6000C0038DF820300BB1012000E00020032AE0
:100E7000824601D0072A04DB2946204600F0D6F935
:100E80003FE12078800601D40D2500E0E569C7F335
:100E90000A560D2D49DA00214FEA175B08464FF03C
:100EA0000000002F00F4400007DA00EB80004FF450
:100EB000400100EBD07001EA60008115012901DDDD
:100EC0004FF0FF3100224FEA850CBCF1180F06D31A
:100ED0001346ACF118004FF08052C24003E04FF4CB
:100EE000801323FA0CF30CF10C0CBCF1200F04D38B
:100EF000ACF1200C09FA0CF001E007FA0CF0002923
:100F00004FF0004801DD18B90FE00ED140450CD379
:100F100019EB02095F4121B9404502D19F4329EAFB
:100F20000209BBEB175F00D0761C2088000502D5B4
:100F30007B48784402E07A487844193808AA30237C
:100F400002F80A30037C0AF10101002E0AF1020ABC
:100F500053546A4602DC4FF0300101E04FF031019A
:100F60004FF001088DF8001002D0A6F2FF3603E022
:100F700059EA470100D06B4E002D02DC21780907A9
:100F800004D54FF002082E218DF80110C44600212F
:100F90000BE0C7F303433F01C35C491C6D1E02F81D
:100FA0000830052908F1010801DA002DF1DC0021E3
:100FB0000CE000EB1973491C1B786D1E082902F820
:100FC00008304FEA091908F1010801DA002DF0DCB8
:100FD00021688B0602D516E0A8F10108E04505DD81
:100FE00002EB080313F8013C302BF5D0B8F1000FE9
:100FF00009DD02EB080313F8013C2E2B03D109078E
:1010000001D4A8F10108002D05DD3E2102F80810E9
:101010006D1E08F10108407C002E02F8080008F15E
:10102000010804DA2D20764202F8080002E02B20A5
:1010300002F808000A214FF47A70864208F101088C
:101040000BDB96FBF0F3303302F8083096FBF0F33D
:1010500008F1010800FB136601E0642E0CDB64203C
:1010600096FBF0F3303302F8083096FBF0F308F10A
:10107000010800FB136601E00A2E06DB96FBF1F087
:10108000303002F8080008F1010896FBF1F001FB8E
:101090001060303002F80800A16908F1010808EB7F
:1010A000050202EB0A00081AA0612078C00602D4EB
:1010B0002046FFF75CF9216A08AE01EB0A002062C6
:1010C00004E0D4E9012116F8010B9047BAF1010AB6
:1010D000F7D22078C00602D52046FFF748F96E46C1
:1010E00009E016F8010B3E280FD0D4E90121904702
:1010F000206A401C2062B8F10108F2D22046FFF7B6
:101100004CF909B00320BDE8F08F206A2844206222
:1011100003E0D4E90121302090476D1EEBD3F8E7BE
:10112000D62F000002FCFFFF10B5436913B1AFF3E7
:10113000008001E0FFF754F9012010BD127800F1A2
:1011400024010A7000224A700122EDE711684FF075
:10115000FF32E9E710B5436913B1AFF3008001E056
:10116000FFF7D6F9012010BD128800F12401828416
:101170000022C2840122EDE711684FF0FF32E9E757
:101180002DE9F04116460C46054600F043F8036889
:1011900093F80101012807D0FF2C12D8185D80B107
:1011A00001202C70BDE8F081D3F8070132462146BA
:1011B00003F20713C7182846BC46BDE8F0410023D8
:1011C00060474FF0FF30EDE7754600F0EBF8AE46B4
:1011D00005006946534620F00700854618B020B543
:1011E000FFF736F8BDE820404FF000064FF000074B
:1011F0004FF000084FF0000BAC46ACE8C009ACE87B
:10120000C009ACE8C009ACE8C00921F007018D466F
:101210007047000010B500F005F8001D10BD00BFBC
:10122000652C000000487047300000202DE9F04197
:101230001F46044603260168072A01F4006004DB08
:1012400008B116A505E016A503E008B115A500E054
:1012500015A521F010002060A069C01EA0610FB18B
:10126000401EA0612046FFF782F84FB1D4E901216A
:1012700038469047206A401C2062C01C206206E06D
:10128000206AFAE7D4E9012115F8010B9047761E90
:10129000F8D22046FFF781F8BDE8F0814E414E00BC
:1012A0006E616E00494E4600696E66002DE9F0479A
:1012B000814616468AB0354878440DC88DE80D0041
:1012C00032487844801C03AC0DC884E80D0041F618
:1012D0009B300844372190FBF1F290FBF1F5A5F12A
:1012E000800501FB12041B3C02D56442012000E092
:1012F0000020DFF898A080460027FA44AAF1BE0A31
:101300000EE0E0070AD03246684607EB47010123AA
:101310000AEB810102F04DFC8DE8070064107F1C90
:10132000002CEED1194F7F44AE3F19E0E80715D0ED
:1013300007EB04100DF1180A90E80E008AE80E0081
:10134000C068F04201D1981908903246012306A9DD
:1013500003A802F02EFC03AB83E807006D10641CA9
:10136000002DE3D14FF0010332466946B8F1000F7A
:1013700003A802D002F008FC01E002F01AFCC9E95F
:101380000001C9F808200AB0BDE8F087E02C000091
:1013900010B50446AFF300802046BDE81040FEF7CC
:1013A00042BF000000487047100000204FF0013C91
:1013B00050F8042B51F8043B9A4221D1A2EB0C03C4
:1013C000934313EACC1317D150F8042B51F8043B84
:1013D0009A4215D1A2EB0C03934313EACC130BD121
:1013E00050F8042B51F8043B9A4209D1A2EB0C03AC
:1013F000934313EACC13DBD04FF00000704700BFDB
:10140000D01A01BAB1FA81F101F0180122FA01F003
:10141000CB40DBB2C0B2C01AC1F120012CFA01F3FB
:10142000D11A914311EAC311E6D17047014918203E
:10143000ABBEFEE72600020070470000FFE7FEE7B4
:101440007047000081B0EFF3108072B60090FFE7A4
:10145000FEE7000083B0019000208DF803000198A2
:1014600090F8210002280DD0FFE70199042088633D
:10147000FFE70199002081F82000FFE701208DF8A7
:101480000B0021E001980168086820F00E00086058
:1014900001980168086820F0010008600198C16B9C
:1014A000026C012090404860FFE70199012081F81B
:1014B0002100FFE70199002081F82000FFE79DF857
:1014C00003008DF80B00FFE79DF80B0003B0704799
:1014D00080B588B0079000208DF81B00079890F821
:1014E0002100022807D0FFE7079904208863012024
:1014F0008DF81B0076E007980168086820F00E0060
:10150000086007980168086820F0010008600798E3
:1015100000680821C4F20201884203D1FFE70120DC
:10152000059047E0079800681C21C4F20201884238
:1015300003D1FFE71020049039E0079800683021BC
:10154000C4F20201884204D1FFE74FF48070039097
:101550002AE0079800684421C4F20201884204D1BD
:10156000FFE74FF4805002901BE007980068582175
:10157000C4F20201884204D1FFE74FF480300190A9
:101580000CE0079801686C22C4F202024FF08070F0
:10159000914208BF4FF480100190FFE7019802903C
:1015A000FFE702980390FFE703980490FFE7049891
:1015B0000590FFE705980421C4F20201086007992D
:1015C000012081F82100FFE70799002081F8200021
:1015D000FFE70798406B20B1FFE70798416B88470A
:1015E000FFE7FFE79DF81B0008B080BD90B00F90AB
:1015F0000E9100200D900990FFE70E9800680D995C
:10160000C840002800F07F81FFE70D990120884045
:101610000C900E9800680C9908400B900B980C9950
:10162000884240F06C81FFE70E98406805900028E2
:1016300051D0FFE7059801283AD0FFE70598022826
:101640003FD0FFE7059803285FD0FFE705981128F2
:1016500032D0FFE70598122838D0FFE7059800211F
:10166000C1F21101884236D0FFE705980021C1F28E
:10167000120188422FD0FFE705980021C1F2210115
:10168000884228D0FFE705980021C1F22201884254
:1016900021D0FFE705980021C1F2310188421AD01C
:1016A000FFE705980021C1F23201884213D02FE0F4
:1016B0000E98C06809902CE00E98C068043009901C
:1016C00027E00E98C0680830099022E00E98C068A4
:1016D0000C3009901DE00E98806818B9FFE70420CF
:1016E000099011E00E988068012806D1FFE70820D4
:1016F00009900C980F99086105E0082009900C9852
:101700000F994861FFE7FFE703E00020099000E040
:10171000FFE70B98FF2803D8FFE70F98049003E03A
:101720000F9804300490FFE7049808900B98FF2866
:1017300004D8FFE70D988000039006E00D996FF044
:101740001F0000EB81000390FFE7039807900898C3
:101750000068079A0F2191408843099991400843F6
:10176000089908600E98C079C006002840F1C6802C
:10177000FFE7FFE741F21800C4F20200016841F000
:1017800001010160006800F0010006900698FFE783
:101790000D9820F003000821C4F2010140580A907E
:1017A0000D9800F0030081000F2000FA01F10A9863
:1017B00088430A900F9840F60001C4F20101884264
:1017C00003D1FFE70020029026E00F9840F6004189
:1017D000C4F20101884203D1FFE70120019018E023
:1017E0000F9841F20001C4F20101884203D1FFE7E2
:1017F000022000900AE00F9941F20042C4F2010277
:101800000420914208BF03200090FFE70098019058
:10181000FFE701980290FFE702980D9901F003019C
:10182000890000FA01F10A9808430A900A980D9974
:1018300021F003010822C4F2010288500E98807939
:10184000C006002809D5FFE70B9A40F20841C4F210
:10185000010108681043086008E00B9A40F2084153
:10186000C4F20101086890430860FFE70E98807990
:101870008006002809D5FFE70B9A40F20C41C4F21C
:10188000010108681043086008E00B9A40F20C411F
:10189000C4F20101086890430860FFE70E98807960
:1018A0008007002809D5FFE70B9A40F20441C4F2F3
:1018B000010108681043086008E00B9A40F20441F7
:1018C000C4F20101086890430860FFE70E98807930
:1018D000C00748B1FFE70B9A40F20041C4F2010192
:1018E00008681043086008E00B9A40F20041C4F217
:1018F0000101086890430860FFE7FFE7FFE70D98E4
:1019000001300D9079E610B07047000040F20450AD
:10191000C2F200000068704740F20400C2F200000A
:10192000027840F20451C2F20001086810440860D5
:101930007047000080B582B042F20001C4F202019B
:10194000086840F010000860032000F09BF80020B9
:10195000019000F005F800F03BF8019802B080BD5E
:1019600080B582B0009040F20000C2F20000006832
:1019700040F20401C2F200010A784FF47A71B1FB1F
:10198000F2F1B0FBF1F000F077FD20B1FFE70120AC
:101990008DF8070018E000980F280DD8FFE7009990
:1019A0004FF0FF30002200F053F8009840F2080199
:1019B000C2F20001086003E001208DF8070003E097
:1019C00000208DF80700FFE79DF8070002B080BDFA
:1019D00080B584B0FFE741F21800C4F2020001684C
:1019E00041F001010160006800F0010003900398DC
:1019F000FFE7FFE741F21C00C4F20200016841F07A
:101A000080510160006800F0805002900298FFE76A
:101A1000052000F037F8FFE70421C4F2010108684F
:101A20000190019820F0E0600190019840F0007072
:101A3000019001980860FFE704B080BD80B582B0D6
:101A40008DF807009DF9070001F02CFD02B080BD64
:101A500080B586B08DF817000491039200200290A3
:101A600001F038FD02909DF9170001900298049949
:101A7000039A01F0E7F90146019801F033FD06B041
:101A800080BD000080B582B00190019801F04CFD4E
:101A900002B080BD80B584B002900191029820B957
:101AA000FFE701208DF80F001BE1019842F20001D1
:101AB000C4F20201096801F00701884216D9FFE764
:101AC00042F20000C4F20200016821F00701019A0D
:101AD00011430160006800F007000199884204D0BA
:101AE000FFE701208DF80F00FBE0FFE70298007888
:101AF000800700282AD5FFE70298007840070028D1
:101B000009D5FFE741F20401C4F20201086840F47C
:101B1000E0600860FFE7029800780007002809D518
:101B2000FFE741F20401C4F20201086840F460508A
:101B30000860FFE741F20401C4F20201086820F0E6
:101B4000F000029A926810430860FFE7029800785C
:101B5000C007002860D0FFE70298406801280ED136
:101B6000FFE741F20000C4F2020000688003002891
:101B700004D4FFE701208DF80F00B2E021E00298C5
:101B8000406802280ED1FFE741F20000C4F20200D3
:101B900000688001002804D4FFE701208DF80F00C1
:101BA0009FE00DE041F20000C4F2020000688007EF
:101BB000002804D4FFE701208DF80F0091E0FFE733
:101BC000FFE741F20401C4F20201086820F00300BB
:101BD000029A526810430860FFF798FE0090FFE7F2
:101BE00041F20400C4F20200006800F00C00029907
:101BF0004968B0EB810F0ED0FFE7FFF787FE009931
:101C0000401A41F28931884204D3FFE703208DF85E
:101C10000F0066E0E4E7FFE7019842F20001C4F23A
:101C20000201096801F00701884216D2FFE742F27B
:101C30000000C4F20200016821F00701019A11437B
:101C40000160006800F007000199884204D0FFE7B6
:101C500001208DF80F0044E0FFE70298007840076C
:101C600000280CD5FFE741F20401C4F20201086824
:101C700020F4E060029AD26810430860FFE70298FF
:101C80000078000700280DD5FFE741F20401C4F2F7
:101C90000201086820F46050029A126940EAC2000A
:101CA0000860FFE700F04CF841F20401C4F20201C1
:101CB0000968C9B20A0943F6B471C0F60001895C2B
:101CC000C84040F20001C2F20001086040F2080082
:101CD000C2F200000068FFF743FE00208DF80F00FD
:101CE000FFE79DF80F0004B080BD000040F2000047
:101CF000C2F200000068704780B5FFF7F7FF41F2BD
:101D00000401C4F202010968C1F3022243F6C4715E
:101D1000C0F60001895CC84080BD000080B5FFF7B7
:101D2000E5FF41F20401C4F202010968C1F3C222D5
:101D300043F6C471C0F60001895CC84080BD000054
:101D400086B000200590049003900290019041F22B
:101D50000400C4F2020000680590059800F00C0031
:101D60000146009100283FD0FFE70098042804D0E6
:101D7000FFE70098082806D037E041F20020C0F2C3
:101D80007A00019037E00598C0F3834143F6CC70A8
:101D9000C0F60000405C02909DF81600C007C0B17C
:101DA000FFE741F20400C4F202000068C0F34041C2
:101DB00043F6DC70C0F60000405C0490029841F2EB
:101DC0000021C0F27A0148430499B0FBF1F003907E
:101DD00007E0029840F60011C0F23D01484303902D
:101DE000FFE70398019006E0FFE741F20020C0F210
:101DF0007A000190FFE7019806B0704780B586B081
:101E00000490049820B9FFE701208DF817002EE315
:101E100004980078C007002800F0AE80FFE741F288
:101E20000400C4F20200006800F00C00042813D083
:101E3000FFE741F20400C4F20200006800F00C0069
:101E400008281BD1FFE741F20400C4F20200006839
:101E5000C003002812D5FFE741F20000C4F20200DF
:101E600000688003002808D5FFE70498406820B97F
:101E7000FFE701208DF81700F9E27CE0FFE7049806
:101E80004068B0F5803F09D1FFE741F20001C4F29C
:101E90000201086840F48030086032E0049840682D
:101EA00068B9FFE741F20001C4F20201086820F4BA
:101EB00080300860086820F48020086020E00498E2
:101EC0004068B0F5A02F0DD1FFE741F20001C4F248
:101ED0000201086840F480200860086840F48030FF
:101EE00008600CE041F20001C4F20201086820F42D
:101EF00080300860086820F480200860FFE7FFE772
:101F0000FFE7FFE704984068D0B1FFE7FFF7FEFC6A
:101F10000390FFE741F20000C4F202000068800372
:101F200000280CD4FFE7FFF7F1FC0399401A65285D
:101F300004D3FFE703208DF8170098E2EAE719E0E1
:101F4000FFF7E4FC0390FFE741F20000C4F2020057
:101F50000068800300280CD5FFE7FFF7D7FC039942
:101F6000401A652804D3FFE703208DF817007EE2AE
:101F7000EAE7FFE7FFE7FFE704980078800700281B
:101F800040F18D80FFE741F20400C4F202000068D6
:101F900010F00C0F13D0FFE741F20400C4F202006E
:101FA000006800F00C00082829D1FFE741F2040086
:101FB000C4F202000068C003002820D4FFE741F209
:101FC0000000C4F2020000688007002809D5FFE77E
:101FD00004980069012804D0FFE701208DF817005C
:101FE00045E241F20001C4F20201086820F0F80065
:101FF000049A526940EAC2000860FFE74EE0049884
:10200000006958B3FFE70021C4F2422101200860B3
:10201000FFF77CFC0390FFE741F20000C4F20200EE
:102020000068800700280CD4FFE7FFF76FFC0399D6
:10203000401A032804D3FFE703208DF8170016E2A7
:10204000EAE741F20001C4F20201086820F0F8005A
:10205000049A526940EAC20008601EE00021C4F2FE
:10206000422100200860FFF751FC0390FFE741F296
:102070000000C4F202000068800700280CD5FFE7CA
:10208000FFF744FC0399401A032804D3FFE7032019
:102090008DF81700EBE1EAE7FFE7FFE7FFE70498B9
:1020A00000780007002848D5FFE70498806918B336
:1020B000FFE740F28041C4F2422101200860FFF7AF
:1020C00025FC0390FFE741F22400C4F202000068FF
:1020D000800700280CD4FFE7FFF718FC0399401A8B
:1020E000032804D3FFE703208DF81700BFE1EAE7D8
:1020F000012000F0DFFE1FE040F28041C4F24221E7
:1021000000200860FFF702FC0390FFE741F2240083
:10211000C4F202000068800700280CD5FFE7FFF733
:10212000F5FB0399401A032804D3FFE703208DF839
:1021300017009CE1EAE7FFE7FFE704980078400713
:10214000002840F1D880FFE700208DF8070041F219
:102150001C00C4F202000068C000002813D4FFE78E
:10216000FFE741F21C00C4F20200016841F0805117
:102170000160006800F0805000900098FFE70120A7
:102180008DF80700FFE747F20000C4F20000006886
:10219000C005002822D4FFE747F20001C4F2000185
:1021A000086840F480700860FFF7B0FB0390FFE719
:1021B00047F20000C4F200000068C00500280CD4FB
:1021C000FFE7FFF7A3FB0399401A652804D3FFE755
:1021D00003208DF817004AE1EAE7FFE7FFE70498DC
:1021E000C068012809D1FFE741F22001C4F20201D1
:1021F000086840F00100086031E00498C06868B9E0
:10220000FFE741F22001C4F20201086820F001005A
:102210000860086820F0040008601FE00498C068A7
:1022200005280DD1FFE741F22001C4F20201086840
:1022300040F004000860086840F0010008600CE00D
:1022400041F22001C4F20201086820F00100086098
:10225000086820F004000860FFE7FFE7FFE7FFE7FA
:102260000498C068E0B1FFE7FFF750FB0390FFE779
:1022700041F22000C4F202000068800700280ED45A
:10228000FFE7FFF743FB0399401A41F28931884287
:1022900004D3FFE703208DF81700E8E0E8E71BE030
:1022A000FFF734FB0390FFE741F22000C4F2020085
:1022B0000068800700280ED5FFE7FFF727FB03998A
:1022C000401A41F28931884204D3FFE703208DF898
:1022D0001700CCE0E8E7FFE79DF80700012809D1E7
:1022E000FFE741F21C01C4F20201086820F08050AF
:1022F0000860FFE7FFE70498C069002800F0B3809A
:10230000FFE741F20400C4F20200006800F00C0094
:10231000082800F08280FFE70498C06902285CD199
:10232000FFE76021C4F2422100200860FFF7EEFAC7
:102330000390FFE741F20000C4F202000068800150
:1023400000280CD5FFE7FFF7E1FA0399401A0328AC
:1023500004D3FFE703208DF8170088E0EAE704982C
:10236000006AB0F5803F0CD1FFE741F20401C4F2EE
:102370000201086820F40030049A92681043086053
:10238000FFE741F20401C4F20201086820F474106E
:10239000049B1A6A5B6A1A43104308606021C4F206
:1023A000422101200860FFF7B1FA0390FFE741F2F4
:1023B0000000C4F202000068800100280CD4FFE78E
:1023C000FFF7A4FA0399401A032804D3FFE7032078
:1023D0008DF817004BE0EAE71EE06021C4F24221CD
:1023E00000200860FFF792FA0390FFE741F2000037
:1023F000C4F202000068800100280CD5FFE7FFF757
:1024000085FA0399401A032804D3FFE703208DF8C7
:1024100017002CE0EAE7FFE724E00498C0690128F0
:1024200004D1FFE701208DF8170020E041F20400FD
:10243000C4F2020000680290029800F4803004990F
:10244000096A884208D1FFE7029800F470100499E5
:10245000496A884204D0FFE701208DF8170006E0A2
:10246000FFE7FFE7FFE700208DF81700FFE79DF883
:10247000170006B080BD000080B582B001900198C1
:1024800000F038FD02B080BD80B586B004900391A5
:10249000ADF80A20049890F8420020284DD1FFE7BB
:1024A000039820B1FFE7BDF80A0020B9FFE701203B
:1024B0008DF8170045E00499012008630499002075
:1024C000486304980399BDF80A2000F0FBFE8DF8DC
:1024D00009009DF8090058BBFFE70498006B01282C
:1024E00021D1FFE7FFE70020019004980068006811
:1024F000019004980068406801900198FFE7FFE7A9
:10250000FFE70498006850E8030F40F010000090C7
:10251000FFE700990498026842E803100028F0D110
:10252000FFE7FFE703E001208DF80900FFE7FFE781
:102530009DF809008DF8170003E002208DF81700C0
:10254000FFE79DF8170006B080BD000080B582B09F
:102550000190ADF802100198006844F20041C4F205
:102560000001884216D1FFE7BDF8020040F2722157
:10257000C2F20001088040F27001C2F200010120A5
:10258000087040F27100C2F2000000F0FDFF01F09F
:1025900063F8FFE702B080BD81B0009001B07047E2
:1025A00080B592B011901198006800681090119851
:1025B0000068C0680F901198006840690E90002074
:1025C0000D900C90109800F00F000D900D9888B9A8
:1025D000FFE79DF84000800600280AD5FFE79DF838
:1025E0003C008006002804D5FFE7119800F056FD56
:1025F000E9E1FFE70D98002800F0C280FFE79DF8B1
:102600003800C00738B9FFE7BDF83C0010F4907FF0
:1026100000F0B680FFE79DF84000C00758B1FFE723
:102620009DF83D00C00730B1FFE71199486C40F0BC
:1026300001004864FFE79DF84000400700280BD5E3
:10264000FFE79DF83800C00730B1FFE71199486CEB
:1026500040F002004864FFE79DF840008007002832
:102660000BD5FFE79DF83800C00730B1FFE711999F
:10267000486C40F004004864FFE79DF84000000704
:10268000002811D5FFE79DF83C008006002805D4FE
:10269000FFE79DF83800C00730B1FFE71199486C9B
:1026A00040F008004864FFE71198406C002866D0AD
:1026B000FFE79DF84000800600280AD5FFE79DF857
:1026C0003C008006002804D5FFE7119800F0E6FCE6
:1026D000FFE7119800684069C0F380100C901198D2
:1026E000406C0007002804D4FFE70C9800283ED077
:1026F000FFE7119800F074FC1198006840694006EB
:1027000000282FD5FFE7FFE7FFE71198006850E8A2
:10271000050F20F040000B90FFE70B99119802681D
:1027200042E805100028F0D1FFE7FFE71198C06BE1
:1027300098B1FFE71198C16B42F6C170C0F6000076
:1027400048631198C06BFEF7C3FE28B1FFE71198EC
:10275000C06B416B8847FFE703E01198FFF71CFF50
:10276000FFE703E01198FFF717FFFFE706E0119876
:10277000FFF712FF119900204864FFE7FFE722E10D
:102780001198006B012840F0FE80FFE79DF84000A3
:10279000C006002840F1F780FFE79DF83C00C00626
:1027A000002840F1F080FFE7FFE700200A90119831
:1027B000006800680A901198006840680A900A98BA
:1027C000FFE71198006840694006002840F18180C9
:1027D000FFE71198C06B00684068ADF82600BDF8AF
:1027E0002600002874D0FFE7BDF826001199898DD6
:1027F00088426DDAFFE7BDF826001199C885119867
:10280000C06B8069202858D0FFE7FFE7FFE71198E9
:10281000006850E8030F20F480700890FFE70899E3
:102820001198026842E803100028F0D1FFE7FFE7A3
:10283000FFE7FFE71198006850E8050F20F001005E
:102840000790FFE707991198026842E805100028F1
:10285000F0D1FFE7FFE7FFE7FFE71198006850E8D6
:10286000050F20F040000690FFE7069911980268D6
:1028700042E805100028F0D1FFE7FFE7119920207A
:1028800081F84200119900200863FFE7FFE71198E3
:10289000006850E8030F20F010000590FFE705994D
:1028A0001198026842E803100028F0D1FFE7FFE723
:1028B0001198C06BFEF7CEFDFFE711990220486327
:1028C0001198818DC28D891A89B2FFF73FFEFFE70B
:1028D00079E01199888DC98D401AADF812001198D0
:1028E000C08D00284ED0FFE7BDF81200002849D067
:1028F000FFE7FFE7FFE71198006850E8030F20F4B7
:1029000090700390FFE703991198026842E8031062
:102910000028F0D1FFE7FFE7FFE7FFE71198006825
:1029200050E8050F20F001000290FFE7029911988E
:10293000026842E805100028F0D1FFE7FFE711998F
:10294000202081F84200119900200863FFE7FFE78B
:102950001198006850E8030F20F010000190FFE785
:1029600001991198026842E803100028F0D1FFE7AE
:10297000FFE71199022048631198BDF81210FFF784
:10298000E5FDFFE71FE09DF84000000600280AD59E
:10299000FFE79DF83C000006002804D5FFE71198EA
:1029A00000F0C2FC0FE09DF84000400600280AD568
:1029B000FFE79DF83C004006002804D5FFE711988A
:1029C00000F058FBFFE712B080BD000080B582B078
:1029D0000090009820B9FFE701208DF8070040E043
:1029E0000098806908B1FFE700E0FFE7009890F8E1
:1029F000410040B9FFE70099002081F840000098AD
:102A000000F034F8FFE70099242081F84100009895
:102A10000168C86820F40050C860009800F0F4FB1A
:102A200000980168086920F49040086100980168E6
:102A3000486920F02A00486100980168C86840F49D
:102A40000050C860009900204864009A202182F854
:102A50004110009A82F84210009948638DF80700EF
:102A6000FFE79DF8070002B080BD000080B590B080
:102A70000F9000200E900D900C900B900F98006816
:102A800044F20041C4F20001884241D1FFE7FFE770
:102A900041F21C00C4F20200016841F400310160FF
:102AA000006800F400300A900A98FFE7FFE741F25F
:102AB0001800C4F20200016841F0040101600068DE
:102AC00000F0040009900998FFE704200B90022011
:102AD0000C9003200E9040F60000C4F20100039019
:102AE0000BA90491FEF782FD0398049908220B922A
:102AF000002205920C920D92FEF778FD059A262091
:102B000006900121FEF7A4FF0698FEF797FF42E02A
:102B10000F98006844F60001C4F20001884239D1E0
:102B2000FFE7FFE741F21C00C4F20200016841F434
:102B300080210160006800F4802008900898FFE779
:102B4000FFE741F21800C4F20200016841F00801F9
:102B50000160006800F0080007900798FFE74FF455
:102B600080600B9002200C9003200E9040F60040F5
:102B7000C4F2010001900BA90291FEF737FD019804
:102B800002994FF400620B9200220C920D92FEF714
:102B90002DFDFFE7FFE710B080BD000081B0009081
:102BA00001B0704780B58AB008900791ADF81A203F
:102BB000059300200290089890F84100202878D1D1
:102BC000FFE7079820B1FFE7BDF81A0020B9FFE73B
:102BD00001208DF8270070E00899002048640899CA
:102BE000212081F84100FEF791FE0290BDF81A0005
:102BF00008998884BDF81A000899C88408988068E4
:102C0000B0F5805F09D1FFE70898006928B9FFE7B0
:102C1000002004900798039004E007980490002097
:102C20000390FFE7FFE70898C08C58B3FFE70898C8
:102C3000029B05996A4611608021002200F0BEFBCC
:102C400020B1FFE703208DF8270036E0049858B93B
:102C5000FFE7039800886FF35F20089909684860D0
:102C600003980230039008E00498007808990968F6
:102C70004860049801300490FFE70899C88C013837
:102C8000C884D0E70898029B05996A4611604021E4
:102C9000002200F093FB20B1FFE703208DF827000E
:102CA0000BE00899202081F8410000208DF82700D2
:102CB00003E002208DF82700FFE79DF827000AB007
:102CC00080BD000081B0009001B07047FFE7FEE7D3
:102CD00080B58AB000200990089007900690FFE721
:102CE00041F21800C4F20200016841F010010160D5
:102CF000006800F0100005900598FFE7FFE741F23B
:102D00001800C4F20200016841F02001016000686F
:102D100000F0200004900498FFE7FFE741F218005C
:102D2000C4F20200016841F004010160006800F093
:102D3000040003900398FFE7FFE741F21800C4F294
:102D40000200016841F008010160006800F008001D
:102D500002900298FFE74FF6FF7006900320009064
:102D6000079041F20000C4F2010006A90191FEF7AC
:102D70003DFC0098019949F6F3720692079040F6DF
:102D80000000C4F20100FEF731FC009801994FF2F7
:102D9000FF320692079040F60040C4F20100FEF7B1
:102DA00025FC0098019904220692079041F2004008
:102DB000C4F20100FEF71AFC0AB080BD80B582B0F3
:102DC00040F27440C2F20000019044F20041C4F2AB
:102DD000000101604FF41641416000218160C16033
:102DE00001610C2242618161C161FFF7EFFD18B101
:102DF000FFE7FEF727FBFFE702B080BD80B582B09A
:102E000040F2BC40C2F20000019044F60001C4F25E
:102E1000000101604FF4E131416000218160C16037
:102E200001610C2242618161C161FFF7CFFD18B1E0
:102E3000FFE7FEF707FBFFE702B080BDFFE7FEE715
:102E4000FFE7FEE788B0079006910592079800F02B
:102E5000070004900498C0F10700052803D3FFE79A
:102E60000420019004E00498C0F107000190FFE7FE
:102E70000198039004980430062803D8FFE7002047
:102E8000009003E0049803380090FFE70098029058
:102E900006980399012202FA01F101390840029BC8
:102EA000984005999A40013A1140084308B070478C
:102EB0007047000082B00190019840F20001C2F218
:102EC00000010968C90844F6D352C1F26202A1FBAD
:102ED0000221890948430090FFE700BFFFE70098FF
:102EE000411E00910028F8D1FFE702B070470000B2
:102EF0007047000080B582B0009000980138B0F1B2
:102F0000807F03D3FFE70120019019E0009801388A
:102F10004EF21401CEF2000108604FF0FF300F2195
:102F200000F0E0FA4EF21801CEF200010020086035
:102F30004EF21002CEF20002072111600190FFE76D
:102F4000019802B080BD000080B5FEF7E5FC80BDB1
:102F500080B590B006A800902821FDF7DEF9009812
:102F60000023059304930393029301930122069295
:102F70004FF48031079108930A9202220D920E912C
:102F80004FF4E0110F91FEF739FF18B1FFE7FEF79C
:102F900059FAFFE70F2001900221029100200390CF
:102FA0004FF480620492059001A8FEF773FD18B1FA
:102FB000FFE7FEF747FAFFE710B080BD704700005B
:102FC00080B582B001900198406A0090009900207D
:102FD000C8850099C8840098FFF7DEFA02B080BD6A
:102FE00084B00390FFE7FFE70398006850E8030F01
:102FF00020F490700290FFE702990398026842E87B
:1030000003100028F0D1FFE7FFE7FFE7FFE7039891
:10301000006850E8050F20F001000190FFE70199DA
:103020000398026842E805100028F0D1FFE7FFE7A7
:103030000398006B012814D1FFE7FFE7FFE703982F
:10304000006850E8030F20F010000090FFE700999F
:103050000398026842E803100028F0D1FFE7FFE779
:10306000FFE70399202081F84200039900200863BC
:1030700004B0704780B582B0019001980168C868BB
:1030800020F04000C8600199202081F8410001989B
:10309000FFF718FE002002B080BD000080B586B0AA
:1030A0000490049890F84200222840F0A480FFE7A2
:1030B00004988068B0F5805F15D1FFE70498006937
:1030C00088B9FFE7002003900498806A0290049872
:1030D000006840686FF35F20029908800499886A4D
:1030E0000230886225E00498806A039000200290F4
:1030F00004988068B0F5805F08D0FFE70498806886
:1031000050B9FFE70498006930B9FFE704980068F8
:1031100040680399087007E004980068406800F070
:103120007F0003990870FFE70499886A013088627C
:10313000FFE70499C88D0138C8850004002856D1DE
:10314000FFE704980168C86820F02000C860049870
:103150000168C86820F48070C860049801684869F4
:1031600020F0010048610499202081F84200049970
:10317000002048630498006B012830D1FFE70499D0
:1031800000200863FFE7FFE70498006850E8030F9A
:1031900020F010000190FFE701990498026842E8CE
:1031A00003100028F0D1FFE7FFE7049800680068EB
:1031B000C00600280ED5FFE7FFE700200090049826
:1031C00000680068009004980068406800900098CB
:1031D000FFE7FFE70498818DFFF7B8F903E0049853
:1031E000FFF7DCFCFFE700208DF8170007E0002068
:1031F0008DF8170003E002208DF81700FFE79DF817
:10320000170006B080BD000080B584B0039003981D
:103210000068006920F44050039A1168D268104396
:103220000861039988680A69496910430843029054
:1032300003980068C06841F20C6188430299084312
:1032400003990968C86003980068406920F44070D9
:10325000039A11689269104348610398006843F625
:103260000001C4F20101884204D1FFE7FEF756FDD8
:10327000019003E0FEF740FD0190FFE7019819215E
:103280004843039A116852689200B0FBF2FC48F27E
:103290001F52C5F2EB12ACFB02304309642003FB62
:1032A00010CC322000EB0C10A0FB0202F02000EA50
:1032B000521000EB0310C2F343121044886004B0B4
:1032C00080BD000083B002900191ADF8022001980A
:1032D00002998862BDF8020002998885BDF8020053
:1032E0000299C8850299002048640299222081F839
:1032F00042000298006938B1FFE702980168C86887
:1033000040F48070C860FFE702980168486940F0A7
:103310000100486102980168C86840F02000C86058
:10332000002003B07047000083B00190019890F82E
:10333000410021283AD1FFE701988068B0F5805F0D
:1033400013D1FFE70198006978B9FFE70198006A97
:103350000090009800886FF35F2001990968486029
:103360000199086A0230086208E0019A106A411C5B
:1033700011620078019909684860FFE70199C88CDB
:103380000138C884000468B9FFE701980168C8687B
:1033900020F08000C86001980168C86840F04000D3
:1033A000C860FFE700208DF80B0003E002208DF8D5
:1033B0000B00FFE79DF80B0003B0704780B588B0A5
:1033C000DDF828C0069005918DF813200393FFE7E0
:1033D00006980068006805990840401AB0FA80F025
:1033E00040099DF81310884249D1FFE70A9801303F
:1033F000002843D0FFE70A9840B1FFE7FEF786FABE
:103400000399401A0A99884237D9FFE7FFE7FFE797
:103410000698006850E8030F20F4D0700290FFE790
:1034200002990698026842E803100028F0D1FFE7ED
:10343000FFE7FFE7FFE70698006850E8050F20F078
:1034400001000190FFE701990698026842E8051023
:103450000028F0D1FFE7FFE70699202081F841001E
:10346000069981F84200FFE70699002081F84000A4
:10347000FFE703208DF81F0005E0FFE7A8E7002025
:103480008DF81F00FFE79DF81F0008B080BD000009
:1034900080B540F27440C2F20000FFF781F880BDB1
:1034A000FFE7FEE781B08DF803009DF903000028D7
:1034B0000ED4FFE79DF9031001F01F020120904098
:1034C0004A094EF20011CEF2000141F82200FFE756
:1034D00001B070474EF60C50CEF200000068C0F309
:1034E0000220704782B08DF8070000919DF9070017
:1034F00000280AD4FFE7009800019DF907104EF25A
:103500000042CEF2000288540BE0009800019DF8C2
:10351000071001F00F014EF61452CEF2000288544B
:10352000FFE702B07047000083B00290029800F0FD
:10353000070000904EF60C51CEF200010868019091
:1035400001984FF6FF02104001900198009A40EA5E
:1035500002200022C0F2FA52104301900198086044
:1035600003B0704780B582B000200190FEF7E2F909
:10357000FFF7EEFCFFF7ACFBFFF720FCFFF73EFC8C
:1035800000F06AF8FFE7FEE783B080B585B00993E5
:1035900008920791049040F27420C2F2000001905A
:1035A0004FF40071FCF797FE019807A90291049966
:1035B000029AFCF75FFE0020ADF80E00FFE7BDF8B1
:1035C0000E00B0F5007F2EDAFFE7BDF80E000130E7
:1035D000ADF80C00BDF80E1040F27420C2F20000ED
:1035E000405CC8B9FFE7FFE7BDF80C00B0F5007F0D
:1035F00011DAFFE7BDF80C2040F27420C2F200009F
:103600008118805C01F8010CFFE7BDF80C00013067
:10361000ADF80C00E8E7FFE7FFE7BDF80E0001306A
:10362000ADF80E00CBE740F27420C2F2000000902B
:10363000FCF732FE0099ADF80E00BDF80E2040F206
:103640007440C2F20000C823FFF7ACFA05B0BDE831
:10365000804003B07047000080B582B040F2700136
:10366000C2F200010020087040F27100C2F20000B6
:1036700000904FF400710191FCF72DFE0099019A22
:1036800040F27440C2F20000FEF7FEFE02B080BDC0
:103690005FEA400C08BF91F0000F4FEA8C234FEA1D
:1036A000C12243EA51514FEA1C5018BF00F5F040C7
:1036B0004FEA300018BF41F000415FEA6C5C00F057
:1036C0002980BCF1FF3F08BF40F080407047130CD9
:1036D00006BF12044FF0100C4FF0000C130E04BF85
:1036E00012020CF1080C130F04BF12010CF1040CB0
:1036F000930F04BF92000CF1020CD30F04BF5200D1
:103700000CF1010C11464FF00002A0F11F00A0EBDC
:103710000C00704711F0004F08BF704731F00041B6
:103720003FF4D5AF0B0C06BF09044FF0100C4FF05F
:10373000000C0B0E04BF09020CF1080C0B0F04BFA8
:1037400009010CF1040C8B0F04BF89000CF1020C71
:10375000CB0F04BF49000CF1010CCCF1200322FA7D
:1037600003F341EA030102FA0CF2A0EB0C0000F1B2
:103770000100704723F07F4720F07F4C80EA030070
:1037800000F00040ACEB070303F57C5303F1FF03AB
:103790002DE9804909B44FEA144324EA03484FEA6B
:1037A000154B25EA0B4E0FF2042606EB13273E7845
:1037B00003FB0667C7F5000707FB06F64FEAD64688
:1037C00006F102064FEA543707FB066CCCF1005CA9
:1037D0004FEA1C472CEA074C0CFB06F507FB06F4E6
:1037E00004EB15464FEA961649085FEA320234BFE9
:1037F00000204FF000404FEAD13706FB07FC4FEAAC
:103800001C4C0CFB0BF7D21B03FB0CF761EB070105
:103810000CFB0EF7B0EB074072EB17420CFB08F7FE
:1038200034BFA2EB0742B2EB074261EB17414FEA0C
:103830000C444FEA910706FB07FC4FEA1C4C0CFBBB
:103840000BF7B0EBC74072EB573203FB0CF734BFFA
:10385000A2EBC742B2EBC74261EB57310CFB0EF74C
:10386000B0EBC70072EB57720CFB08F734BFA2EB4A
:10387000C702B2EBC70261EB57714FEA816141EABF
:1038800092114FEA826242EA90124FEA806004EBA2
:10389000CC04039F4FEAD13706FB07FC4FEA1C4CD0
:1038A0000CFB0BF7D21B03FB0CF761EB07010CFBC6
:1038B0000EF7B0EB074072EB17420CFB08F734BF72
:1038C000A2EB0742B2EB074261EB17414FEA8C557E
:1038D00004EB9C244FEA910706FB07FC4FEA1C4CC3
:1038E0000CFB0BF7B0EBC74072EB573203FB0CF746
:1038F00034BFA2EBC742B2EBC74261EB57310CFBBE
:103900000EF7B0EBC70072EB57720CFB08F734BF31
:10391000A2EBC702B2EBC70261EB57714FEA8161BC
:1039200041EA92114FEA826242EA90124FEA8060C5
:1039300015EB4C2544F100044FEAD13706FB07FC98
:103940004FEA1C4C0CFB0BF7D21B03FB0CF761EB93
:1039500007010CFB0EF7B0EB074072EB17420CFBB4
:1039600008F734BFA2EB0742B2EB074261EB174105
:103970004FEA813141EA92414FEA823242EA904273
:103980004FEA80304FEA0C7615EB1C1544F1000429
:1039900048EA03434EEA0B484FF0000EB2EB080C26
:1039A00071EB030724BF624639464EEB0E0E4FF013
:1039B000000B0018524149414BEB0B0BB2EB080CCA
:1039C00071EB03077BF1000B24BF624639464EEBD7
:1039D0000E0E4FF0000B0018524149414BEB0B0B00
:1039E000B2EB080C71EB03077BF1000B24BF6246BE
:1039F00039464EEB0E0E51EA020718BF46F001069B
:103A000016EB0E7655F1000254F1000103D5BDE826
:103A10008901BDE80088BDE88901BDE80048B61904
:103A2000524141EB0101A3F10103704780807F7E89
:103A30007D7C7B7A79787776767574737271717024
:103A40006F6E6E6D6C6C6B6A6A69686867666665D6
:103A50006464636362616160605F5F5E5E5D5D5C64
:103A60005C5B5B5A5A5959585857575656555555D5
:103A70005454535352525251515050504F4F4F4E35
:103A80004E4D4D4D4C4C4C4B4B4B4A4A4A49494983
:103A900048484847474747464646454545444444C5
:103AA0004443434343424242424141419C46002BEE
:103AB00030D477002BD04FEA37071CB503B44FF052
:103AC00010004FF01001BAF1000F06D0BCF1000F4A
:103AD000DCBF40F0080040F008014FF000000FBCD0
:103AE000BDE810400BF1010BBBF1010F08BF5FEA0D
:103AF000170722BF12F1010211F101014FF000413D
:103B000043F1000300F0004043EA00007047F9D39E
:103B10005708D0E746EA06464FEA164613F1400F2B
:103B20001FDD13F1200FDFBF16430A4600212033AB
:103B30005B42BED0C3F1200746EA06464FEA16466E
:103B400002FA07F746EA070622FA03F2C3F1200752
:103B500001FA07F742EA070221FA03F14FF00003E6
:103B6000A7E746EA020646EA06464FEA164646EA4E
:103B70000106BCBF46EA0646360C4FF000034FF084
:103B800000024FF0000194E72DE9804C70B49A4692
:103B9000934691E8380007C831EA400C48BF34EA40
:103BA000430C03D5FFF7E6FDFFF780FFF0BCBDE84F
:103BB000008C2DE9804C70B49A46934691E8380009
:103BC00007C810F0804F08BF13F0804F03D100F0FA
:103BD00005F8FFF76BFFF0BCBDE8008C20F07F47D5
:103BE00023F07F4C80EA030000F0004007EB0C0359
:103BF000A3F57C53A3F1FE0392F0000F00F0B38015
:103C000095F0000F00F077802DE901494FEA11404F
:103C100021EA00484FEA144624EA064700FB06FC66
:103C200008FB06F607FB08F818EB06484CEB164CA9
:103C300000FB07F718EB07484CEB17404FEA124B15
:103C400022EA0B4E4FEA154625EA06470BFB06FC17
:103C50000EFB06F607FB0EFE1EEB064E4CEB164C5B
:103C60000BFB07F71EEB074E4CEB174B18EB0B0843
:103C700040F1000018EB0E0B58EB000840F100007B
:103C80008F1A4FF000014FF000063CBFC943661B7E
:103C900014BFB5EB040C00213CBFC943F61B4FEA2F
:103CA000174427EA04454FEA1C472CEA074C04FB5B
:103CB000076205FB07F70CFB05F616EB074642EB20
:103CC000174204FB0CFC16EB0C4642EB1C421BEBB0
:103CD000060658EB020241414EEA8E0E46EA9E0667
:103CE00001D5BDE80189B619524141EB0101A3F1AB
:103CF0000103BDE801894FEA144524EA05464FEA6D
:103D0000114721EA074C05FB07F406FB07F70CFBFC
:103D100006F111EB074144EB174405FB0CFC11EBDA
:103D20000C4144EB1C444FEA124722EA074C05FBC6
:103D300007F206FB07F70CFB06F616EB074642EB0D
:103D4000174205FB0CFC16EB0C4642EB1C456A18AF
:103D500054F1000148BF7047B619524141EB0101CF
:103D6000A3F10103704795F0000F37D04FEA1142DD
:103D700021EA02464FEA144724EA074C02FB07F106
:103D800006FB07F70CFB06F414EB074441EB174165
:103D900002FB0CFC14EB0C4441EB1C414FEA1547B1
:103DA00025EA074C02FB07F506FB07F70CFB06F6B6
:103DB00016EB074645EB174502FB0CFC16EB0C46D1
:103DC00045EB1C42121951F1000148BF7047B6196A
:103DD000524141EB0101A3F1010370474FEA144541
:103DE00024EA05464FEA114721EA074C05FB07F193
:103DF00006FB07F70CFB06F212EB074241EB1741FB
:103E000005FB0CFC12EB0C4251EB1C414FF0000681
:103E100048BF7047921841EB0101A3F101037047BD
:103E2000490050EAC12018BF04204A0D18BF40F0D5
:103E3000010040F2FF72B2EB515F08BF40F0020098
:103E4000012808BF0520704730380A2801D2012018
:103E5000704700207047000010B500290AD008788C
:103E6000002807D005487844FDF7A0FA002801D0C3
:103E7000002010BD0248784410BD00009A010000E7
:103E80009201000010B500290AD00878002807D058
:103E900005487844FDF78AFA002801D0002010BDBB
:103EA0000248784410BD00008A0100008201000031
:103EB000FCF786BEFCF7BABF00000000000000005F
:103EC0003031323334353637383941424344454650
:103ED000403058003031323334353637383961624A
:103EE000636465664030780004000008000000004C
:103EF000000000020001000010303132333435364A
:103F00003738396162636465667870003031323306
:103F1000343536373839414243444546585000001D
:103F200002400000000000A000000000054000006A
:103F3000000000C8000000000C4000000000409C91
:103F400000000000194000000020BCBE000000007E
:103F500034400000BFC91B8E00000004B5400000C3
:103F6000504BCFD06607E2CF010000006C4100004B
:103F70003E8251AADFEEA73401000000D9420000C2
:103F8000DCB5A0E23A301F97FFFFFFFFB445000009
:103F9000FD25A0C8E9A3C14FFFFFFFFFFF3F0000C1
:103FA0000000008000000000FF3F000000000080D3
:103FB00000000000000000000000000001020304F7
:103FC00006070809000000000102030402030405BB
:103FD000060708090A0B0C0D0E0F10100102000055
:103FE00030410008000000201000000028010008F7
:103FF0004041000810000020F80A000044010008B9
:104000001C00000043000000F8FFFFFF0C00000050
:104010000E0000000F0000002E0000001001000044
:1040200043000000F8FFFFFF004040404040404098
:10403000404041414141414040404040404040407B
:10404000404040404040404040050202020202021F
:10405000020202020202020202202020202020206E
:104060002020200202020202020290909090909082
:104070001010101010101010101010101010101040
:1040800010101010020202020202888888888888B4
:1040900008080808080808080808080808080808A0
:1040A00008080808020202024000000000000000A8
:1040B0000000000000000000000000000000000000
:1040C00000000000000000000000000000000000F0
:1040D00000000000000000000000000000000000E0
:1040E00000000000000000000000000000000000D0
:1040F00000000000000000000000000000000000C0
:1041000000000000000000000000000000000000AF
:10411000000000000000000000000000000000009F
:10412000000000000000000000000000000000008F
:104130000024F40001000000100000000000000056
:04000005080000ED02
:00000001FF
