:020000040800F2
:100000006012002035020008BD300008092F0008EA
:10001000B9300008691400082D37000800000000FE
:100020000000000000000000000000006D3100082A
:100030006D140008000000002D310008C5310008D3
:100040004F0200084F0200084F0200084F0200084C
:100050004F0200084F0200084F0200084F0200083C
:100060004F0200084F0200084F0200084F0200082C
:100070004F0200084F0200084F0200084F0200081C
:100080004F0200084F0200084F0200084F0200080C
:100090004F0200084F0200084F0200084F020008FC
:1000A0004F0200084F0200084F0200084F020008EC
:1000B0004F0200084F0200084F0200084F020008DC
:1000C0004F0200084F0200084F0200084F020008CC
:1000D0004F0200084F0200080D3700081D370008C6
:1000E0004F0200084F0200084F02000800F002F81B
:1000F00000F090F80AA090E8000C82448344AAF132
:100100000107DA4501D100F085F8AFF2090EBAE82F
:100110000F0013F0010F18BFFB1A43F0010318473B
:100120001864000038640000103A24BF78C878C111
:10013000FAD8520724BF30C830C144BF04680C60ED
:10014000704700000023002400250026103A28BF35
:1001500078C1FBD8520728BF30C148BF0B60704739
:100160006E2900F0B981702900F0FB82662906F043
:100170003580652906F03280672906F02F806129D5
:1001800006F02E8003681B0A28BF41F08001692910
:1001900000F06681642900F06381752900F06081B8
:1001A0006F2900F08982782900F0C782E92900F0E0
:1001B0002382E42900F02082F52900F01D82EF2936
:1001C00000F08682F82900F0C6820368DB0928BFA8
:1001D00041F08001632900F0C787732900F0CC87C4
:1001E000E32900F0D787F32900F0DC87002070476F
:1001F0001FB501F02DF804000020002105F0D8FF04
:10020000401C60600020002105F0BCFFE0601FBDC5
:1002100010B510BD00F0EEFF1146FFF7E9FF05F045
:100220008BF901F0CBF803B4FFF7F2FF03BC01F048
:1002300013F900000948804709480047FEE7FEE738
:10024000FEE7FEE7FEE7FEE7FEE7FEE7FEE7FEE786
:1002500004480549054A064B70470000393200083A
:10026000ED000008600C002060120020600E0020ED
:10027000600E00200FB41CB5084B06AA7B446946EB
:100280000090059800F041F904460020694600F00E
:100290004FF920461CBC5DF814FB0000B1020000C1
:1002A0001CB50C46064B7B4469460090204600F086
:1002B0002CF904460020694600F03AF920461CBD9E
:1002C0008702000010B5431C02E010F8011B71B159
:1002D0008107FAD14FF0013202C88C1A8C4314EA1C
:1002E000C211F9D0C01A0A0603D0C01E10BDC01A30
:1002F00010BD0A0401D0801E10BD0902FCD0401EB2
:1003000010BD4FF000020429C0F0128010F0030C61
:1003100000F01B80CCF1040CBCF1020F18BF00F8F8
:10032000012BA8BF20F8022BA1EB0C0100F00DB8A7
:100330005FEAC17C24BF00F8012B00F8012B48BF05
:1003400000F8012B70474FF0000200B513469446A9
:100350009646203922BFA0E80C50A0E80C50B1F11D
:100360002001BFF4F7AF090728BFA0E80C5048BF31
:100370000CC05DF804EB890028BF40F8042B08BFCF
:10038000704748BF20F8022B11F0804F18BF00F8CB
:10039000012B704770477047704770B504468569F8
:1003A0000068C10601D5302600E02026C00707D02E
:1003B00070BDD4E9012130469047206A401C20627C
:1003C0006D1EF6D570BD70B5044685690078C0070E
:1003D00007D170BDD4E9012120209047206A401C3C
:1003E00020626D1EF6D570BD09684A0501D540B280
:1003F0007047C905FCD500B2704709684A0501D5A8
:10040000C0B27047C905FCD580B2704770B50C46C4
:100410000546012A05D02878800600D5EA69002320
:1004200002E0012305E05B1C934202D2E05C00285D
:10043000F9D1A869E618C01AA861286A1844286288
:100440002846FFF7AAFF04E0D5E9012114F8010BC3
:100450009047B442F8D32846FFF7B5FF70BD0000BF
:100460002DE9F0410646002410687529314616A58D
:1004700010D0FFF7B9FF002802DA404213A507E0C9
:1004800031688A0701D512A502E0490704D511A5F4
:10049000012401E0FFF7B1FF00210A2206F1240741
:1004A00009E0B0FBF2FCB0FBF2F302FB1C003030C1
:1004B00078541846491C0028F3D123462A46304672
:1004C000BDE8F04100F061BA000000002D0000001E
:1004D0002B0000002000000011680268006A53052C
:1004E00001D508700AE0D30501D5088006E013069F
:1004F00003D5C217C1E9000200E00860012070477F
:1005000001694A1C02610878704700B58FB0CDE9D7
:1005100001310021059105497944CDE903101146C7
:10052000684600F029F90FB000BD0000E5FFFFFFAD
:100530000A6802F8010B0A60704700002DE9FF5FAE
:1005400015468A460446DFF8AC80F8440027D8E90F
:1005500000103E46CDE9001010E03AF816106A4649
:1005600002A800F023FE411C07D02178890603D59C
:10057000E269391891420DD80744761C207880062C
:1005800002D5E069B84205DDAE42E6DB3AF8160076
:100590000028E2D1A069C01BA0612046FFF7FDFE44
:1005A000D8E90010CDE90010002017E03AF8181043
:1005B0006A4602A800F0FAFDB0F1FF3F81460BD079
:1005C00000250DF1080B05E0D4E901211BF8050019
:1005D00090476D1C4D45F7D308F10100B0428046AD
:1005E000E4DB206A384420622046FFF7ECFEBDE8D9
:1005F000FF9F0000965C00002DE9F0418046D21D6F
:1006000022F007020025D2E90002F52915A614D030
:10061000011E72F1000106DA0023D0EB030063EB48
:10062000020211A608E0D8F800108B0701D50FA62A
:1006300002E0490701D50EA601251146002408F164
:10064000240704E000F05CF930323A55641C50EAAB
:100650000102F7D12B46324621464046BDE8F04123
:1006600000F093B9000000002D0000002B000000F6
:100670002000000030B4002100F1240408E002F062
:100680000705D208303542EA4372DB086554491C3D
:1006900052EA0305F3D10468002310A2250708D508
:1006A00004F020040C4304D0C46901230CA2641E8E
:1006B000C46130BC00F069B910B504462146106829
:1006C000FFF79BFE02462046BDE810400023D1E71D
:1006D000D21D22F00701D1E90023CBE70000000082
:1006E00030000000F0B40D460188090502D5214C08
:1006F0007C4402E01F4C7C440E34002100F12406AF
:1007000008E002F00F071209E75D42EA03721B09D5
:100710007754491C52EA0307F3D1027800231207E9
:1007200004D5702D06D009B1022311342246F0BC45
:1007300000F02BB901231034F8E770B504460D46DC
:1007400021461068FFF759FE024629462046BDE8BB
:1007500070400023C6E7D21D22F00703D3E900232F
:10076000C0E70368126843F0200303600823C361F5
:100770000023B7E7F85A00002DE9F05F89460446E8
:100780004FF0000ADFF874B1FB44C0F820A0204607
:10079000E1688847002874D0252806D0D4E90121D3
:1007A0009047206A401C2062F1E700265F46204601
:1007B000E16888472028054607DB312D05D27819E6
:1007C00010F8200C08B10643F1E7B00701D526F078
:1007D0000406C4F81CA00027C4F818A02A2D09D0CC
:1007E000284605F0C7FC38B304EB8708303DC8F84D
:1007F000185019E059F8041B204604EB8702916158
:10080000E1688847012F054618D1E069002820DA01
:1008100026F020061DE0D8F8180000EB800005EB5C
:1008200040003038C8F818002046E168884705467F
:1008300005F0A0FC0028EED1012F0AD02E2D08D102
:100840002046E16888477F1C0546022F46F02006B7
:10085000C4DBA069002803DA404246F00106A0612B
:10086000F00701D026F010066C2D0BD0682D09D0B2
:100870004C2D39D06A2D35D0742D35D07A2D33D00A
:1008800016E038E0E1682F4620468847B842054622
:1008900009D16C2F26D04FF48060E16806432046D2
:1008A0008847054604E06C2F1AD04FF48070064349
:1008B0000DB3A5F14100192802D8203546F4006691
:1008C0004A462946204626604E46FFF749FC80B13D
:1008D00001280BD0F61D26F0070000F1080956E7A5
:1008E0004020E4E78020D8E70020D6E706F104099D
:1008F0004DE7284652E7206ABDE8F09F885A00007D
:1009000030B5B0F10A0271F100034FEA900E4EEAE1
:10091000817EB0EB0E0061EB91014FEA101E4EEAB2
:10092000017E10EB0E0041EB11114FEA102E4EEA42
:10093000016E10EB0E0041EB11214FEA104E4EEA12
:10094000014E10EB0E0041EB1141401841F1000146
:100950004FEAD00040EA41704FEAD1014FEA8104EA
:1009600044EA907410EB800544EB01046D1944EBEC
:100970000404521BA3414FF0000348BF0A3200D5C4
:1009800030BD401C41F1000130BD2DE9F0470D465E
:1009900099469246044600F124080168880604D569
:1009A000E06921F01001216000E00120A84201DD92
:1009B000471B00E00027A1697A1902EB0900081A19
:1009C000A0612078C00602D42046FFF7E6FC00268E
:1009D00008E0D4E901211AF806009047206A401C7B
:1009E000761C20624E45F4DB2078C0060AD52046EE
:1009F000FFF7D3FC06E0D4E9012130209047206ABC
:100A0000401C2062381EA7F10107F4DC07E0D4E99E
:100A1000012118F805009047206A401C2062281E1A
:100A2000A5F10105F3DC2046FFF7CDFC2078000698
:100A300002D50220BDE8F0870120FBE72DE9FF4F3A
:100A40000C461E464FF0FF378BB0D2E90001DDF8AF
:100A500060800A908A46C1F30A5505B93D460021D7
:100A600008464FF00000BAF1000F00F4400005DA2C
:100A700000EB80004FF4400101EA50004FEA90592A
:100A8000B9F1010F00DDB9460A9850EA4A000ED0CC
:100A900044F61050A5F2FF3545432F14B8F1000F6E
:100AA0001ED07542291E1EDDC9F100021CE0B8F1FE
:100AB000010F4FF0000001D0302103E0F24305E0C8
:100AC0002154401CB042FBDB30460022002121545F
:100AD0000B99C1F80880C1E900200FB0BDE8F08F84
:100AE000BD1B6D1CDEE74A4600DA694206A800F02D
:100AF000F3FB06AB93E8070003AB83E8070050461F
:100B00000A9904F05AFF8DE80700A0F500501F383D
:100B100000900398002D0ADD42F21F014A46084466
:100B2000002303A90390684605F0C4F909E0A0F585
:100B300000504A461F38002303A90390684605F079
:100B4000CEF98DE807000004000C03D04FF0FF3011
:100B5000410800E01046B8F1000F03D000220092D7
:100B600015461EE0751E05D4FFF7CAFE30326255E9
:100B70006D1EF9D5B3460122084302D000227F1C26
:100B800004E02078302801D100227F1E002A099736
:100B900084D01DE0112D07DAFFF7B2FE3032625526
:100BA0006D1C50EA0102F5D1084302D00098C8B18B
:100BB0000EE00021681E05E0235C625C6354225451
:100BC000401E491C8142F7DBAB46A81B401E099022
:100BD000002004F80B000B98099AC0F80880C0E9BF
:100BE000002B7AE711264FF0000857E72DE9F04F68
:100BF00088460446D21D22F0070191B0D1E90001D8
:100C0000CDE90A0105F0A2FA02460B98C00F01D007
:100C10002D2007E02068810701D52B2002E020214C
:100C200001EAC000032A099001D0072A05DB034628
:100C30004146204600F010FB0BE12078800601D5EC
:100C4000E06900E00620B8F1650F814606D0B8F1F2
:100C5000660F18D0B8F1670F70D131E00020B9F1FC
:100C6000110F009001DB112301E009F101030AAA31
:100C700001A90CA8FFF7E2FEDDE90C70002609F1DE
:100C80000105834647E001204B4600904FF00047A6
:100C90000AAA01A90CA8FFF7D1FEDDE90DB00C9955
:100CA0005D46002610B909F101000D18B9EB0500E9
:100CB00003D4C0F1FF3609F10105A5EB09002BE0D3
:100CC000B9F1010F01DA4FF001090020B9F1110F5C
:100CD0000090484601DD112300E003460AAA01A95D
:100CE0000CA8FFF7ABFEDDE90C704D4600268346ED
:100CF000207800070AD4AB4500DA5D4601A8012D33
:100D000004DD411911F8011C302907D04F4502DAE2
:100D100017F1040F04DA012082460FE06D1EEEE7A2
:100D2000002F02DCED1B3E4403E0781CA84200DDEE
:100D30007D1CB81B00F1010A4FF000472078000726
:100D400003D4AA4501DB4FF0FF3A0021B7F1004F71
:100D50000DF143088DF8431024D002202B23002FDF
:100D600001DA7F422D230A21021EA0F1010000DCDE
:100D70005FB197FBF1FC97FBF1F201FB1C7C17467E
:100D80000CF1300C08F801CDEEE7A8F1010003707A
:100D90002188090501D5452100E06521A0F1010860
:100DA00000F8011C09980FA9A1EB0807FF1D00B16D
:100DB0000120411901EBEA70A1693844081A401E6C
:100DC000A0612078C00602D42046FFF7E6FA099811
:100DD00028B1D4E901219047206A401C2062207884
:100DE000C00622D52046FFF7D8FA1EE0002E04DB0D
:100DF000B34502DD01A8805D00E03020D4E9012187
:100E00009047206A401C2062761CAAF101005FEA2C
:100E1000000A0AD100F01CFAC0680168405CD4E9FD
:100E200001219047206A401C2062281EA5F101057F
:100E3000DCDC07E0D4E9012118F8010B9047206AB7
:100E4000401C2062381EA7F10107F3DC2046FFF7A3
:100E5000BAFA032011B041E62DE9F04F04460D46E1
:100E6000D21D22F0070089B0D0E9009748463946E4
:100E700005F06CF90246F80F01D02D2307E0206839
:100E8000810701D52B2302E0202101EAC0038DF860
:100E900020300BB1012000E00020032A824601D05F
:100EA000072A04DB2946204600F0D6F93FE12078E6
:100EB000800601D40D2500E0E569C7F30A560D2D23
:100EC00049DA00214FEA175B08464FF00000002F77
:100ED00000F4400007DA00EB80004FF4400100EB23
:100EE000D07001EA60008115012901DD4FF0FF316A
:100EF00000224FEA850CBCF1180F06D31346ACF163
:100F000018004FF08052C24003E04FF4801323FAE0
:100F10000CF30CF10C0CBCF1200F04D3ACF1200C41
:100F200009FA0CF001E007FA0CF000294FF0004834
:100F300001DD18B90FE00ED140450CD319EB0209C1
:100F40005F4121B9404502D19F4329EA0209BBEB29
:100F5000175F00D0761C2088000502D57B487844B6
:100F600002E07A487844193808AA302302F80A3097
:100F7000037C0AF10101002E0AF1020A53546A4669
:100F800002DC4FF0300101E04FF031014FF0010879
:100F90008DF8001002D0A6F2FF3603E059EA4701AF
:100FA00000D06B4E002D02DC2178090704D54FF0EC
:100FB00002082E218DF80110C44600210BE0C7F372
:100FC00003433F01C35C491C6D1E02F8083005292C
:100FD00008F1010801DA002DF1DC00210CE000EB42
:100FE0001973491C1B786D1E082902F808304FEA56
:100FF000091908F1010801DA002DF0DC21688B06DF
:1010000002D516E0A8F10108E04505DD02EB080372
:1010100013F8013C302BF5D0B8F1000F09DD02EBDD
:10102000080313F8013C2E2B03D1090701D4A8F1C2
:101030000108002D05DD3E2102F808106D1E08F1A3
:101040000108407C002E02F8080008F1010804DACB
:101050002D20764202F8080002E02B2002F808005A
:101060000A214FF47A70864208F101080BDB96FBE7
:10107000F0F3303302F8083096FBF0F308F1010882
:1010800000FB136601E0642E0CDB642096FBF0F39A
:10109000303302F8083096FBF0F308F1010800FB4A
:1010A000136601E00A2E06DB96FBF1F0303002F801
:1010B000080008F1010896FBF1F001FB10603030E8
:1010C00002F80800A16908F1010808EB050202EB2B
:1010D0000A00081AA0612078C00602D42046FFF753
:1010E0005CF9216A08AE01EB0A00206204E0D4E951
:1010F000012116F8010B9047BAF1010AF7D22078C6
:10110000C00602D52046FFF748F96E4609E016F8FA
:10111000010B3E280FD0D4E901219047206A401CE2
:101120002062B8F10108F2D22046FFF74CF909B06D
:101130000320BDE8F08F206A2844206203E0D4E950
:101140000121302090476D1EEBD3F8E7D652000006
:1011500002FCFFFF10B5436913B1AFF3008001E05B
:10116000FFF754F9012010BD127800F124010A7034
:1011700000224A700122EDE711684FF0FF32E9E7E3
:1011800010B5436913B1AFF3008001E0FFF7D6F962
:10119000012010BD128800F1240182840022C28443
:1011A0000122EDE711684FF0FF32E9E72DE9F04148
:1011B00016460C46054600F043F8036893F8010113
:1011C000012807D0FF2C12D8185D80B101202C70A7
:1011D000BDE8F081D3F807013246214603F2071338
:1011E000C7182846BC46BDE8F041002360474FF0D1
:1011F000FF30EDE7754600F0EBF8AE4605006946B6
:10120000534620F00700854618B020B5FFF720F8B8
:10121000BDE820404FF000064FF000074FF00008F7
:101220004FF0000BAC46ACE8C009ACE8C009ACE834
:10123000C009ACE8C00921F007018D4670470000E5
:1012400010B500F005F8001D10BD00BF654F00008F
:1012500000487047300000202DE9F0411F46044649
:1012600003260168072A01F4006004DB08B116A513
:1012700005E016A503E008B115A500E015A521F0CD
:1012800010002060A069C01EA0610FB1401EA061C7
:101290002046FFF782F84FB1D4E901213846904744
:1012A000206A401C2062C01C206206E0206AFAE727
:1012B000D4E9012115F8010B9047761EF8D220469B
:1012C000FFF781F8BDE8F0814E414E006E616E007F
:1012D000494E4600696E66002DE9F0478146164684
:1012E0008AB0354878440DC88DE80D0032487844FE
:1012F000801C03AC0DC884E80D0041F69B30084407
:10130000372190FBF1F290FBF1F5A5F1800501FB8F
:1013100012041B3C02D56442012000E00020DFF8EB
:1013200098A080460027FA44AAF1BE0A0EE0E00722
:101330000AD03246684607EB470101230AEB8101D8
:1013400004F0CDFD8DE8070064107F1C002CEED169
:10135000194F7F44AE3F19E0E80715D007EB0410A2
:101360000DF1180A90E80E008AE80E00C068F042FD
:1013700001D1981908903246012306A903A804F068
:10138000AEFD03AB83E807006D10641C002DE3D1B4
:101390004FF0010332466946B8F1000F03A802D0AE
:1013A00004F088FD01E004F09AFDC9E90001C9F8E4
:1013B00008200AB0BDE8F087E04F000010B50446F1
:1013C000AFF300802046BDE81040FEF72CBF0000C0
:1013D00000487047100000204FF0013C50F8042BEB
:1013E00051F8043B9A4221D1A2EB0C03934313EA38
:1013F000CC1317D150F8042B51F8043B9A4215D165
:10140000A2EB0C03934313EACC130BD150F8042B3B
:1014100051F8043B9A4209D1A2EB0C03934313EA1F
:10142000CC13DBD04FF00000704700BFD01A01BAD8
:10143000B1FA81F101F0180122FA01F0CB40DBB2E0
:10144000C0B2C01AC1F120012CFA01F3D11A9143A4
:1014500011EAC311E6D1704701491820ABBEFEE77F
:101460002600020070470000FFE7FEE7704700001B
:1014700081B0EFF3108072B60090FFE7FEE7000046
:1014800083B0019000208DF80300019890F82100AE
:1014900002280DD0FFE7019904208863FFE7019936
:1014A000002081F82000FFE701208DF80B0021E0EB
:1014B00001980168086820F00E0008600198016832
:1014C000086820F0010008600198C16B026C0120DF
:1014D00090404860FFE70199012081F82100FFE773
:1014E0000199002081F82000FFE79DF803008DF8A6
:1014F0000B00FFE79DF80B0003B0704780B588B084
:10150000079000208DF81B00079890F82100022812
:1015100007D0FFE707990420886301208DF81B009E
:1015200076E007980168086820F00E0008600798C8
:101530000168086820F00100086007980068082129
:10154000C4F20201884203D1FFE70120059047E081
:10155000079800681C21C4F20201884203D1FFE70A
:101560001020049039E0079800683021C4F202018D
:10157000884204D1FFE74FF4807003902AE0079877
:1015800000684421C4F20201884204D1FFE74FF40D
:10159000805002901BE0079800685821C4F20201B5
:1015A000884204D1FFE74FF4803001900CE00798A7
:1015B00001686C22C4F202024FF08070914208BFB1
:1015C0004FF480100190FFE701980290FFE7029826
:1015D0000390FFE703980490FFE704980590FFE766
:1015E00005980421C4F2020108600799012081F8DE
:1015F0002100FFE70799002081F82000FFE7079806
:10160000406B20B1FFE70798416B8847FFE7FFE792
:101610009DF81B0008B080BD90B00F900E91002087
:101620000D900990FFE70E9800680D99C8400028BA
:1016300000F07F81FFE70D99012088400C900E9803
:1016400000680C9908400B900B980C99884240F068
:101650006C81FFE70E9840680590002851D0FFE7A5
:10166000059801283AD0FFE7059802283FD0FFE708
:10167000059803285FD0FFE70598112832D0FFE7CF
:101680000598122838D0FFE705980021C1F2110112
:10169000884236D0FFE705980021C1F21201884246
:1016A0002FD0FFE705980021C1F22101884228D000
:1016B000FFE705980021C1F22201884221D0FFE70F
:1016C00005980021C1F2310188421AD0FFE7059840
:1016D0000021C1F23201884213D02FE00E98C06879
:1016E00009902CE00E98C0680430099027E00E980D
:1016F000C0680830099022E00E98C0680C3009904C
:101700001DE00E98806818B9FFE70420099011E0E9
:101710000E988068012806D1FFE7082009900C98F0
:101720000F99086105E0082009900C980F9948610D
:10173000FFE7FFE703E00020099000E0FFE70B98D8
:10174000FF2803D8FFE70F98049003E00F980430B8
:101750000490FFE7049808900B98FF2804D8FFE74F
:101760000D988000039006E00D996FF01F0000EBCC
:1017700081000390FFE70398079008980068079A94
:101780000F219140884309999140084308990860C6
:101790000E98C079C006002840F1C680FFE7FFE739
:1017A00041F21800C4F20200016841F00101016039
:1017B000006800F0010006900698FFE70D9820F001
:1017C00003000821C4F2010140580A900D9800F06E
:1017D000030081000F2000FA01F10A9888430A9063
:1017E0000F9840F60001C4F20101884203D1FFE7DF
:1017F0000020029026E00F9840F60041C4F201015B
:10180000884203D1FFE70120019018E00F9841F2D0
:101810000001C4F20101884203D1FFE702200090D9
:101820000AE00F9941F20042C4F201020420914201
:1018300008BF03200090FFE700980190FFE70198A0
:101840000290FFE702980D9901F00301890000FA68
:1018500001F10A9808430A900A980D9921F00301B2
:101860000822C4F2010288500E988079C006002830
:1018700009D5FFE70B9A40F20841C4F2010108685C
:101880001043086008E00B9A40F20841C4F20101DD
:10189000086890430860FFE70E988079800600286A
:1018A00009D5FFE70B9A40F20C41C4F20101086828
:1018B0001043086008E00B9A40F20C41C4F20101A9
:1018C000086890430860FFE70E9880798007002839
:1018D00009D5FFE70B9A40F20441C4F20101086800
:1018E0001043086008E00B9A40F20441C4F2010181
:1018F000086890430860FFE70E988079C00748B1F8
:10190000FFE70B9A40F20041C4F20101086810435E
:10191000086008E00B9A40F20041C4F20101086837
:1019200090430860FFE7FFE7FFE70D9801300D9057
:1019300079E610B07047000040F65C40C2F200004B
:101940000068704740F20500C2F20000027840F6DD
:101950005C41C2F200010868104408607047000052
:1019600080B582B042F20001C4F20201086840F082
:10197000100008600320019000F09AF8019800F030
:1019800005F800F03BF8002002B080BD80B582B0C1
:10199000009040F20000C2F20000006840F2050131
:1019A000C2F200010A784FF47A71B1FBF2F1B0FB98
:1019B000F1F000F091FD20B1FFE701208DF8070064
:1019C00018E000980F280DD8FFE700994FF0FF307E
:1019D000002200F053F8009840F20801C2F2000122
:1019E000086003E001208DF8070003E000208DF877
:1019F0000700FFE79DF8070002B080BD80B584B006
:101A0000FFE741F21800C4F20200016841F0010151
:101A10000160006800F0010003900398FFE7FFE712
:101A200041F21C00C4F20200016841F080510160E3
:101A3000006800F0805002900298FFE7052000F057
:101A400037F8FFE70421C4F201010868019001980A
:101A500020F0E0600190019840F000700190019842
:101A60000860FFE704B080BD80B582B08DF8070044
:101A70009DF9070001F05CFE02B080BD80B586B024
:101A80008DF81700049103920020029001F068FE87
:101A900002909DF91700019002980499039A01F0B1
:101AA0000FFB0146019801F063FE06B080BD000007
:101AB00080B582B00190019801F07CFE02B080BD3B
:101AC00080B584B002900191029820B9FFE701200F
:101AD0008DF80F001BE1019842F20001C4F20201EF
:101AE000096801F00701884216D9FFE742F20000B9
:101AF000C4F20200016821F00701019A114301605C
:101B0000006800F007000199884204D0FFE7012037
:101B10008DF80F00FBE0FFE70298007880070028AF
:101B20002AD5FFE7029800784007002809D5FFE78B
:101B300041F20401C4F20201086840F4E060086068
:101B4000FFE7029800780007002809D5FFE741F277
:101B50000401C4F20201086840F460500860FFE725
:101B600041F20401C4F20201086820F0F000029A78
:101B7000926810430860FFE702980078C0070028C9
:101B800060D0FFE70298406801280ED1FFE741F2DC
:101B90000000C4F2020000688003002804D4FFE7BC
:101BA00001208DF80F00B2E021E002984068022881
:101BB0000ED1FFE741F20000C4F20200006880018C
:101BC000002804D4FFE701208DF80F009FE00DE00E
:101BD00041F20000C4F2020000688007002804D42B
:101BE000FFE701208DF80F0091E0FFE7FFE741F2EA
:101BF0000401C4F20201086820F00300029A52684E
:101C000010430860FFF798FE0090FFE741F20400E0
:101C1000C4F20200006800F00C0002994968B0EBC1
:101C2000810F0ED0FFE7FFF787FE0099401A41F2BF
:101C30008931884204D3FFE703208DF80F0066E066
:101C4000E4E7FFE7019842F20001C4F202010968EB
:101C500001F00701884216D2FFE742F20000C4F209
:101C60000200016821F00701019A11430160006838
:101C700000F007000199884204D0FFE701208DF8A9
:101C80000F0044E0FFE702980078400700280CD5D9
:101C9000FFE741F20401C4F20201086820F4E060A9
:101CA000029AD26810430860FFE7029800780007A4
:101CB00000280DD5FFE741F20401C4F202010868D3
:101CC00020F46050029A126940EAC2000860FFE7FF
:101CD00000F04CF841F20401C4F202010968C9B2F3
:101CE0000A0946F2E021C0F60001895CC84040F2D2
:101CF0000001C2F20001086040F20800C2F20000D8
:101D00000068FFF743FE00208DF80F00FFE79DF805
:101D10000F0004B080BD000040F20000C2F20000DD
:101D20000068704780B5FFF7F7FF41F20401C4F285
:101D300002010968C1F3022246F2F021C0F6000157
:101D4000895CC84080BD000080B5FFF7E5FF41F227
:101D50000401C4F202010968C1F3C22246F2F02173
:101D6000C0F60001895CC84080BD000086B000203C
:101D70000590049003900290019041F20400C4F297
:101D8000020000680590059800F00C0001460091E3
:101D900000283FD0FFE70098042804D0FFE7009810
:101DA000082806D037E041F20020C0F27A00019006
:101DB00037E00598C0F3834146F2F820C0F60000F2
:101DC000405C02909DF81600C007C0B1FFE741F2E9
:101DD0000400C4F202000068C0F3404146F208303B
:101DE000C0F60000405C0490029841F20021C0F26D
:101DF0007A0148430499B0FBF1F0039007E00298A0
:101E000040F60011C0F23D0148430390FFE70398FC
:101E1000019006E0FFE741F20020C0F27A00019055
:101E2000FFE7019806B0704780B586B0049004982B
:101E300020B9FFE701208DF817002EE30498007801
:101E4000C007002800F0AE80FFE741F20400C4F2B2
:101E50000200006800F00C00042813D0FFE741F2F4
:101E60000400C4F20200006800F00C0008281BD136
:101E7000FFE741F20400C4F202000068C00300283A
:101E800012D5FFE741F20000C4F2020000688003AF
:101E9000002808D5FFE70498406820B9FFE7012033
:101EA0008DF81700F9E27CE0FFE704984068B0F590
:101EB000803F09D1FFE741F20001C4F20201086846
:101EC00040F48030086032E00498406868B9FFE769
:101ED00041F20001C4F20201086820F48030086079
:101EE000086820F48020086020E004984068B0F57D
:101EF000A02F0DD1FFE741F20001C4F202010868F2
:101F000040F480200860086840F4803008600CE0ED
:101F100041F20001C4F20201086820F48030086038
:101F2000086820F480200860FFE7FFE7FFE7FFE78D
:101F300004984068D0B1FFE7FFF7FEFC0390FFE78D
:101F400041F20000C4F202000068800300280CD4B3
:101F5000FFE7FFF7F1FC0399401A652804D3FFE778
:101F600003208DF8170098E2EAE719E0FFF7E4FC98
:101F70000390FFE741F20000C4F202000068800312
:101F800000280CD5FFE7FFF7D7FC0399401A652816
:101F900004D3FFE703208DF817007EE2EAE7FFE7AE
:101FA000FFE7FFE7049800788007002840F18D8064
:101FB000FFE741F20400C4F20200006810F00C0FC9
:101FC00013D0FFE741F20400C4F20200006800F001
:101FD0000C00082829D1FFE741F20400C4F20200F6
:101FE0000068C003002820D4FFE741F20000C4F2DB
:101FF000020000688007002809D5FFE704980069FF
:10200000012804D0FFE701208DF8170045E241F2D6
:102010000001C4F20201086820F0F800049A526935
:1020200040EAC2000860FFE74EE00498006958B338
:10203000FFE70021C4F2422101200860FFF77CFC89
:102040000390FFE741F20000C4F20200006880073D
:1020500000280CD4FFE7FFF76FFC0399401A032810
:1020600004D3FFE703208DF8170016E2EAE741F2F8
:102070000001C4F20201086820F0F800049A5269D5
:1020800040EAC20008601EE00021C4F242210020A4
:102090000860FFF751FC0390FFE741F20000C4F233
:1020A00002000068800700280CD5FFE7FFF744FC1A
:1020B0000399401A032804D3FFE703208DF8170083
:1020C000EBE1EAE7FFE7FFE7FFE7049800780007A6
:1020D000002848D5FFE70498806918B3FFE740F26D
:1020E0008041C4F2422101200860FFF725FC0390E3
:1020F000FFE741F22400C4F20200006880070028D4
:102100000CD4FFE7FFF718FC0399401A032804D307
:10211000FFE703208DF81700BFE1EAE7012001F097
:1021200007F81FE040F28041C4F24221002008601D
:10213000FFF702FC0390FFE741F22400C4F2020023
:102140000068800700280CD5FFE7FFF7F5FB03992F
:10215000401A032804D3FFE703208DF817009CE101
:10216000EAE7FFE7FFE7049800784007002840F11E
:10217000D880FFE700208DF8070041F21C00C4F270
:1021800002000068C000002813D4FFE7FFE741F217
:102190001C00C4F20200016841F080510160006837
:1021A00000F0805000900098FFE701208DF80700B4
:1021B000FFE747F20000C4F200000068C0050028F5
:1021C00022D4FFE747F20001C4F20001086840F49E
:1021D00080700860FFF7B0FB0390FFE747F2000054
:1021E000C4F200000068C00500280CD4FFE7FFF728
:1021F000A3FB0399401A652804D3FFE703208DF859
:1022000017004AE1EAE7FFE7FFE70498C068012802
:1022100009D1FFE741F22001C4F20201086840F051
:102220000100086031E00498C06868B9FFE741F236
:102230002001C4F20201086820F00100086008686B
:1022400020F0040008601FE00498C06805280DD144
:10225000FFE741F22001C4F20201086840F00400E7
:102260000860086840F0010008600CE041F22001BD
:10227000C4F20201086820F001000860086820F03C
:1022800004000860FFE7FFE7FFE7FFE70498C06886
:10229000E0B1FFE7FFF750FB0390FFE741F22000BA
:1022A000C4F202000068800700280ED4FFE7FFF7A1
:1022B00043FB0399401A41F28931884204D3FFE776
:1022C00003208DF81700E8E0E8E71BE0FFF734FB98
:1022D0000390FFE741F22000C4F20200006880078B
:1022E00000280ED5FFE7FFF727FB0399401A41F2BC
:1022F0008931884204D3FFE703208DF81700CCE032
:10230000E8E7FFE79DF80700012809D1FFE741F260
:102310001C01C4F20201086820F080500860FFE749
:10232000FFE70498C069002800F0B380FFE741F29E
:102330000400C4F20200006800F00C00082800F05D
:102340008280FFE70498C06902285CD1FFE7602122
:10235000C4F2422100200860FFF7EEFA0390FFE785
:1023600041F20000C4F202000068800100280CD590
:10237000FFE7FFF7E1FA0399401A032804D3FFE7C8
:1023800003208DF8170088E0EAE70498006AB0F5AA
:10239000803F0CD1FFE741F20401C4F2020108685A
:1023A00020F40030049A926810430860FFE741F27D
:1023B0000401C4F20201086820F47410049B1A6A34
:1023C0005B6A1A43104308606021C4F24221012075
:1023D0000860FFF7B1FA0390FFE741F20000C4F292
:1023E00002000068800100280CD4FFE7FFF7A4FA80
:1023F0000399401A032804D3FFE703208DF8170040
:102400004BE0EAE71EE06021C4F2422100200860B0
:10241000FFF792FA0390FFE741F20000C4F20200D6
:102420000068800100280CD5FFE7FFF785FA0399C3
:10243000401A032804D3FFE703208DF817002CE08F
:10244000EAE7FFE724E00498C069012804D1FFE728
:1024500001208DF8170020E041F20400C4F20200D0
:1024600000680290029800F480300499096A88425A
:1024700008D1FFE7029800F470100499496A884275
:1024800004D0FFE701208DF8170006E0FFE7FFE723
:10249000FFE700208DF81700FFE79DF8170006B052
:1024A00080BD000081B000900098042809D1FFE7AA
:1024B0004EF21001CEF20001086840F004000860FE
:1024C00008E04EF21001CEF20001086820F004008E
:1024D0000860FFE701B0704780B582B001900198B5
:1024E00000F046FE02B080BD80B586B00490039136
:1024F000ADF80A20049890F8420020284DD1FFE75B
:10250000039820B1FFE7BDF80A0020B9FFE70120DA
:102510008DF8170045E00499012008630499002014
:10252000486304980399BDF80A2001F009F88DF872
:1025300009009DF8090058BBFFE70498006B0128CB
:1025400021D1FFE7FFE700200190049800680068B0
:10255000019004980068406801900198FFE7FFE748
:10256000FFE70498006850E8030F40F01000009067
:10257000FFE700990498026842E803100028F0D1B0
:10258000FFE7FFE703E001208DF80900FFE7FFE721
:102590009DF809008DF8170003E002208DF8170060
:1025A000FFE79DF8170006B080BD000080B582B03F
:1025B0000190ADF802100198006844F20041C4F2A5
:1025C000000188421ED1FFE746F2EC40C0F6000051
:1025D00002F0D8FFBDF8022040F27821C2F20001DB
:1025E000B1F800086FF3DF3200F400401044A1F8A6
:1025F0000008B1F8000840F40040A1F8000803F01A
:1026000027F844E00198006844F60001C4F2000194
:1026100088423BD1FFE7BDF8020040F27221C2F2CE
:102620000001088040F27011C2F200010120087020
:1026300040F27110C2F200004078012807D1FFE794
:1026400040F20401C2F20001012008700FE040F2E4
:102650007110C2F200004078022807D1FFE740F273
:102660000401C2F2000102200870FFE7FFE740F614
:102670001440C2F2000040F27111C2F200010A22BD
:10268000C82300F0ADFB02F0F1FFFFE7FFE702B067
:1026900080BD000080B582B001900198006800689C
:1026A00000F008010020B0EBD10F1CD0FFE7FFE7DE
:1026B0000020009001980068006800900198006870
:1026C000406800900098FFE7019800680068019852
:1026D000006840680199202081F84200019900209B
:1026E00081F84000FFE70198006844F20041C4F21D
:1026F0000001884209D1FFE746F20050C0F6000011
:1027000002F040FF02F0A4FF19E00198006844F6CF
:102710000001C4F20001884209D1FFE746F21350DC
:10272000C0F6000002F02EFF02F0A0FF06E046F225
:102730002650C0F6000002F025FFFFE7FFE702B0D9
:1027400080BD000080B592B01190119800680068BB
:10275000109011980068C0680F9011980068406947
:102760000E9000200D900C90109800F00F000D902E
:102770000D9888B9FFE79DF84000800600280AD52B
:10278000FFE79DF83C008006002804D5FFE711987C
:1027900000F0C2FDE9E1FFE70D98002800F0C280DB
:1027A000FFE79DF83800C00738B9FFE7BDF83C00E7
:1027B00010F4907F00F0B680FFE79DF84000C0075E
:1027C00058B1FFE79DF83D00C00730B1FFE7119910
:1027D000486C40F001004864FFE79DF84000400766
:1027E00000280BD5FFE79DF83800C00730B1FFE7A0
:1027F0001199486C40F002004864FFE79DF84000E2
:10280000800700280BD5FFE79DF83800C00730B1DE
:10281000FFE71199486C40F004004864FFE79DF819
:1028200040000007002811D5FFE79DF83C00800616
:10283000002805D4FFE79DF83800C00730B1FFE756
:102840001199486C40F008004864FFE71198406C0B
:10285000002866D0FFE79DF84000800600280AD5D2
:10286000FFE79DF83C008006002804D5FFE711989B
:1028700000F052FDFFE7119800684069C0F3801036
:102880000C901198406C0007002804D4FFE70C98C6
:1028900000283ED0FFE7119800F0E0FC1198006896
:1028A0004069400600282FD5FFE7FFE7FFE71198B2
:1028B000006850E8050F20F040000B90FFE70B99EF
:1028C0001198026842E805100028F0D1FFE7FFE701
:1028D0001198C06B98B1FFE71198C16B43F23D208E
:1028E000C0F6000048631198C06BFEF707FE28B1E0
:1028F000FFE71198C06B416B8847FFE703E0119831
:10290000FFF7C8FEFFE703E01198FFF7C3FEFFE7FC
:1029100006E01198FFF7BEFE119900204864FFE71A
:10292000FFE722E11198006B012840F0FE80FFE7ED
:102930009DF84000C006002840F1F780FFE79DF8B1
:102940003C00C006002840F1F080FFE7FFE70020D0
:102950000A901198006800680A9011980068406811
:102960000A900A98FFE7119800684069400600281D
:1029700040F18180FFE71198C06B00684068ADF8B6
:102980002600BDF82600002874D0FFE7BDF8260019
:102990001199898D88426DDAFFE7BDF826001199FB
:1029A000C8851198C06B8069202858D0FFE7FFE7E1
:1029B000FFE71198006850E8030F20F4807008903A
:1029C000FFE708991198026842E803100028F0D147
:1029D000FFE7FFE7FFE7FFE71198006850E8050F02
:1029E00020F001000790FFE707991198026842E87C
:1029F00005100028F0D1FFE7FFE7FFE7FFE7119898
:102A0000006850E8050F20F040000690FFE70699A7
:102A10001198026842E805100028F0D1FFE7FFE7AF
:102A20001199202081F84200119900200863FFE7E6
:102A3000FFE71198006850E8030F20F010000590A0
:102A4000FFE705991198026842E803100028F0D1C9
:102A5000FFE7FFE71198C06BFEF712FDFFE7119942
:102A6000022048631198818DC28D891A89B2FFF7BF
:102A70009DFDFFE779E01199888DC98D401AADF869
:102A800012001198C08D00284ED0FFE7BDF812004B
:102A9000002849D0FFE7FFE7FFE71198006850E8FA
:102AA000030F20F490700390FFE7039911980268D8
:102AB00042E803100028F0D1FFE7FFE7FFE7FFE758
:102AC0001198006850E8050F20F001000290FFE720
:102AD00002991198026842E805100028F0D1FFE73A
:102AE000FFE71199202081F8420011990020086326
:102AF000FFE7FFE71198006850E8030F20F010008F
:102B00000190FFE701991198026842E8031000283C
:102B1000F0D1FFE7FFE71199022048631198BDF853
:102B20001210FFF743FDFFE71FE09DF8400000068D
:102B300000280AD5FFE79DF83C000006002804D5D0
:102B4000FFE7119800F02EFD0FE09DF840004006D1
:102B500000280AD5FFE79DF83C004006002804D570
:102B6000FFE7119800F0C4FBFFE712B080BD000042
:102B700080B582B00090009820B9FFE701208DF861
:102B8000070040E00098806908B1FFE700E0FFE738
:102B9000009890F8410040B9FFE70099002081F8C3
:102BA0004000009800F034F8FFE70099242081F8F5
:102BB000410000980168C86820F40050C86000987F
:102BC00000F060FC00980168086920F490400861FA
:102BD00000980168486920F02A004861009801685F
:102BE000C86840F40050C860009900204864009A0A
:102BF000202182F84110009A82F84210009948631F
:102C00008DF80700FFE79DF8070002B080BD0000C7
:102C100080B594B0139000201290119010900F90F6
:102C20001398006843F60001C4F20101884239D1CB
:102C3000FFE7FFE741F21800C4F20200016841F427
:102C400080410160006800F480400E900E98FFE71C
:102C5000FFE741F21800C4F20200016841F00401EC
:102C60000160006800F004000D900D98FFE74FF43C
:102C700000700F90022010900320129040F6000088
:102C8000C4F2010007900FA90891FEF7C5FC079850
:102C900008994FF480620F92002210921192FEF771
:102CA000BBFC96E01398006844F20041C4F20001B6
:102CB000884240D1FFE7FFE741F21C00C4F2020066
:102CC000016841F400310160006800F400300C90AC
:102CD0000C98FFE7FFE741F21800C4F20200016818
:102CE00041F004010160006800F004000B900B98B3
:102CF000FFE704200F90022010900320129040F66E
:102D00000000C4F2010004900FA90591FEF784FCB5
:102D10000498059908220F92002210921192FEF752
:102D20007BFC2620069001221146FEF7A7FE06989E
:102D3000FEF79AFE4CE01398006844F60001C4F2D6
:102D40000001884243D1FFE7FFE741F21C00C4F2D3
:102D50000200016841F480210160006800F48020D5
:102D60000A900A98FFE7FFE741F21800C4F2020058
:102D7000016841F008010160006800F00800099056
:102D80000998FFE74FF480600F9002201090032015
:102D9000129040F60040C4F2010000900FA901918A
:102DA000FEF73AFC009801994FF400620F9200225E
:102DB000029210921192FEF72FFC029A27200390A4
:102DC0000121FEF75BFE0398FEF74EFEFFE7FFE7EB
:102DD000FFE714B080BD000081B0009001B07047E3
:102DE00080B58AB008900791ADF81A2005930020AD
:102DF0000290089890F84100202878D1FFE70798C2
:102E000020B1FFE7BDF81A0020B9FFE701208DF8D7
:102E1000270070E00899002048640899212081F873
:102E20004100FEF789FD0290BDF81A0008998884D8
:102E3000BDF81A000899C88408988068B0F5805FCA
:102E400009D1FFE70898006928B9FFE7002004903E
:102E50000798039004E00798049000200390FFE790
:102E6000FFE70898C08C58B3FFE70898029B0599C4
:102E70006A4611608021002200F0DEFB20B1FFE7EE
:102E800003208DF8270036E0049858B9FFE703982F
:102E900000886FF35F200899096848600398023042
:102EA000039008E00498007808990968486004983D
:102EB00001300490FFE70899C88C0138C884D0E736
:102EC0000898029B05996A4611604021002200F093
:102ED000B3FB20B1FFE703208DF827000BE0089932
:102EE000202081F8410000208DF8270003E0022017
:102EF0008DF82700FFE79DF827000AB080BD00008D
:102F000081B0009001B07047FFE7FEE780B58AB05E
:102F100000200990089007900690FFE741F2180002
:102F2000C4F20200016841F010010160006800F085
:102F3000100005900598FFE7FFE741F21800C4F282
:102F40000200016841F020010160006800F02000EB
:102F500004900498FFE7FFE741F21800C4F2020072
:102F6000016841F004010160006800F00400039072
:102F70000398FFE7FFE741F21800C4F2020001687E
:102F800041F008010160006800F00800029002981A
:102F9000FFE74FF6FF70069003200090079041F284
:102FA0000000C4F2010006A90191FEF735FB00986C
:102FB000019949F6F3120692079040F60000C4F218
:102FC0000100FEF729FB009801994FF2FF320692AB
:102FD000079040F60040C4F20100FEF71DFB009888
:102FE000019904220692079041F20040C4F20100C8
:102FF000FEF712FB0AB080BD80B582B040F6843087
:10300000C2F20000019043F60001C4F20101016028
:103010004FF4E131416000218160C16001610C2207
:1030200042618161C161FFF7A3FD18B1FFE7FEF7BF
:103030001FFAFFE702B080BD80B582B040F6CC3009
:10304000C2F20000019044F20041C4F200010160AC
:103050004FF41641416000218160C16001610C2282
:1030600042618161C161FFF783FD18B1FFE7FEF79F
:10307000FFF9FFE702B080BD80B582B040F6144092
:10308000C2F20000019044F60001C4F200010160A8
:103090004FF4E131416000218160C16001610C2287
:1030A00042618161C161FFF763FD18B1FFE7FEF77F
:1030B000DFF9FFE702B080BDFFE7FEE7FFE7FEE7CD
:1030C00088B0079006910592079800F007000490D9
:1030D0000498C0F10700052803D3FFE704200190FE
:1030E00004E00498C0F107000190FFE70198039005
:1030F00004980430062803D8FFE70020009003E07E
:10310000049803380090FFE700980290069803990E
:10311000012202FA01F101390840029B9840059909
:103120009A40013A1140084308B0704770470000C8
:1031300082B00190019840F20001C2F200010968DA
:10314000C90844F6D352C1F26202A1FB02218909E7
:1031500048430090FFE700BFFFE70098411E009141
:103160000028F8D1FFE702B0704700007047000068
:1031700080B582B0009000980138B0F1807F03D311
:10318000FFE70120019019E0009801384EF2140188
:10319000CEF2000108604FF0FF300F2100F0E8FA96
:1031A0004EF21801CEF20001002008604EF210022B
:1031B000CEF20002072111600190FFE7019802B0F2
:1031C00080BD000080B5FEF7BDFB80BD80B590B02E
:1031D00006A800902821FDF7B6F800980023059373
:1031E0000493039302930193012206924FF48031DA
:1031F000079108930A9202220D920E914FF4E0116A
:103200000F91FEF711FE18B1FFE7FEF731F9FFE766
:103210000F20019002210291002003904FF4806260
:103220000492059001A8FEF74BFC18B1FFE7FEF7EA
:103230001FF9FFE710B080BD7047000080B582B075
:1032400001900198406A009000990020C88500997B
:10325000C8840098FFF71EFA02B080BD84B00390C6
:10326000FFE7FFE70398006850E8030F20F4907031
:103270000290FFE702990398026842E803100028D1
:10328000F0D1FFE7FFE7FFE7FFE70398006850E8AA
:10329000050F20F001000190FFE7019903980268F3
:1032A00042E805100028F0D1FFE7FFE70398006B24
:1032B000012814D1FFE7FFE7FFE70398006850E813
:1032C000030F20F010000090FFE7009903980268B8
:1032D00042E803100028F0D1FFE7FFE7FFE703997A
:1032E000202081F8420003990020086304B0704751
:1032F00080B582B0019001980168C86820F0400054
:10330000C8600199202081F841000198FFF7F8FD7D
:10331000002002B080BD000080B586B00490049803
:1033200090F84200222840F0A480FFE704988068CB
:10333000B0F5805F15D1FFE70498006988B9FFE711
:10334000002003900498806A029004980068406806
:103350006FF35F20029908800499886A02308862BE
:1033600025E00498806A0390002002900498806809
:10337000B0F5805F08D0FFE70498806850B9FFE798
:103380000498006930B9FFE7049800684068039921
:10339000087007E004980068406800F07F00039917
:1033A0000870FFE70499886A01308862FFE7049992
:1033B000C88D0138C8850004002856D1FFE704985D
:1033C0000168C86820F02000C86004980168C868D7
:1033D00020F48070C86004980168486920F00100FA
:1033E00048610499202081F8420004990020486334
:1033F0000498006B012830D1FFE70499002008638E
:10340000FFE7FFE70498006850E8030F20F0100082
:103410000190FFE701990498026842E80310002830
:10342000F0D1FFE7FFE7049800680068C0060028B5
:103430000ED5FFE7FFE700200090049800680068C1
:10344000009004980068406800900098FFE7FFE74C
:103450000498818DFFF7AAF803E00498FFF7BCFCFD
:10346000FFE700208DF8170007E000208DF8170017
:1034700003E002208DF81700FFE79DF8170006B063
:1034800080BD000080B584B0039003980068006997
:1034900020F44050039A1168D268104308610399E0
:1034A00088680A69496910430843029003980068D4
:1034B000C06841F20C618843029908430399096886
:1034C000C86003980068406920F44070039A11684E
:1034D0009269104348610398006843F60001C4F202
:1034E0000101884204D1FFE7FEF72EFC019003E0C2
:1034F000FEF718FC0190FFE7019819214843039A51
:10350000116852689200B0FBF2FC48F21F52C5F2FB
:10351000EB12ACFB02304309642003FB10CC3220D9
:1035200000EB0C10A0FB0202F02000EA521000EBAE
:103530000310C2F343121044886004B080BD000041
:1035400083B002900191ADF802200198029988623F
:10355000BDF8020002998885BDF802000299C8856D
:103560000299002048640299222081F842000298C2
:10357000006938B1FFE702980168C86840F48070BC
:10358000C860FFE702980168486940F0010048619F
:1035900002980168C86840F02000C860002003B0AD
:1035A0007047000083B00190019890F841002128F5
:1035B0003AD1FFE701988068B0F5805F13D1FFE74B
:1035C0000198006978B9FFE70198006A00900098B7
:1035D00000886FF35F200199096848600199086AC3
:1035E0000230086208E0019A106A411C11620078FA
:1035F000019909684860FFE70199C88C0138C884BF
:10360000000468B9FFE701980168C86820F08000ED
:10361000C86001980168C86840F04000C860FFE7D2
:1036200000208DF80B0003E002208DF80B00FFE76F
:103630009DF80B0003B0704780B588B0DDF828C056
:10364000069005918DF813200393FFE70698006814
:10365000006805990840401AB0FA80F040099DF8CA
:103660001310884249D1FFE70A980130002843D05F
:10367000FFE70A9840B1FFE7FEF75EF90399401AA9
:103680000A99884237D9FFE7FFE7FFE70698006805
:1036900050E8030F20F4D0700290FFE702990698DB
:1036A000026842E803100028F0D1FFE7FFE7FFE7D8
:1036B000FFE70698006850E8050F20F00100019030
:1036C000FFE701990698026842E805100028F0D14A
:1036D000FFE7FFE70699202081F84100069981F86D
:1036E0004200FFE70699002081F84000FFE7032031
:1036F0008DF81F0005E0FFE7A8E700208DF81F0008
:10370000FFE79DF81F0008B080BD000080B540F6BF
:10371000CC30C2F20000FFF715F880BD80B540F64E
:103720001440C2F20000FFF70DF880BDFFE7FEE78E
:1037300081B08DF803009DF9030000280ED4FFE747
:103740009DF9031001F01F02012090404A094EF23A
:103750000011CEF2000141F82200FFE701B07047EE
:103760004EF60C50CEF200000068C0F30220704705
:1037700082B08DF8070000919DF9070000280AD457
:10378000FFE7009800019DF907104EF20042CEF2CB
:10379000000288540BE0009800019DF8071001F02A
:1037A0000F014EF61452CEF200028854FFE702B029
:1037B0007047000083B00290029800F0070000906C
:1037C0004EF60C51CEF200010868019001984FF6B8
:1037D000FF02104001900198009A40EA0220002266
:1037E000C0F2FA52104301900198086003B070478C
:1037F00088B006908DF81710049203930020ADF85E
:103800000600069820B9FFE703208DF81F0061E04D
:103810000498006820B9FFE703208DF81F0059E0E5
:10382000069801300290FFE70298017800200D29E8
:10383000009007D0FFE7029840780A3818BF0120AF
:103840000090FFE70098C007C0B3FFE79DF817009E
:10385000F8B9FFE70298BDF80610401A049908600D
:10386000039808B9FFE729E0029800782C280BD0CC
:10387000FFE7029800782A2806D0FFE7BDF8060087
:103880000130ADF8060015E0BDF806000399088088
:1038900014E0029800782C2805D0FFE70298007801
:1038A0002A2806D1FFE79DF8170001388DF8170088
:1038B000FFE7FFE7029801300290B5E79DF8170097
:1038C00020B1FFE701208DF81F0003E000208DF8F4
:1038D0001F00FFE79DF81F0008B0704780B58CB04F
:1038E0000A9009910A9818B1FFE7099820B9FFE7F3
:1038F00003208DF82F003BE20A9807AA00231946FF
:10390000FFF776FF8DF823009DF8230078B9FFE7D5
:103910000798807847280AD1FFE70798C07847289A
:1039200005D1FFE707980079412804D0FFE703207D
:103930008DF82F001CE20A98012107AA0023FFF747
:1039400057FF8DF82300079806A90DF1170201F023
:103950005DFA01469DF8230008448DF823009DF888
:10396000230028B9FFE79DF81700032804D0FFE7DC
:1039700001208DF82F00FBE106984CF66B21C6F66E
:103980005F3180FB0101881500EBD17348F21F51B4
:10399000C5F2EB1183FB0102500900EBD2706422E7
:1039A00000FB1230099B187006984BF28953C1F244
:1039B000F84380FB0303581300EBD37383FB010C24
:1039C0004FEA5C1000EBDC7000FB1230099B587072
:1039D000069B44F6D350C1F2620083FB003C4FEAE1
:1039E000AC1303EBDC7383FB011C4FEA5C1101EBAE
:1039F000DC7101FB1231099A9170069A82FB000179
:103A0000880900EBD1704FF47A7100FB11200999FD
:103A100088800A98022107AA0023FFF7E9FE8DF8A3
:103A20002300079806A90DF1170201F0EFF90146EE
:103A30009DF8230008448DF823009DF8230020B151
:103A4000FFE701208DF82F0092E19DF8171006A8DE
:103A5000052201F0CFF806994CF66B20C6F65F30D0
:103A600081FB0012911501EBD27148F2A062C0F205
:103A700001025143099AD160069A82FB0001881520
:103A800000EBD17049F28061C0F2980100FB112176
:103A900048F68900C8F6880081FB002001444811DF
:103AA00000EBD1720999C8681044C8600A980321D4
:103AB00007AA0023FFF79CFE8DF823009DF8230042
:103AC00050B9FFE7079800784E2809D0FFE707981C
:103AD0000078532804D0FFE701208DF82F0047E13C
:103AE000079800784E3818BF0120099908720A9883
:103AF000042107AA0023FFF77BFE8DF82300079817
:103B000006A90DF1170201F081F901469DF8230085
:103B100008448DF823009DF8230020B1FFE7012021
:103B20008DF82F0024E19DF8171006A805220492B5
:103B300001F060F80499069A4CF66B20C6F65F30E7
:103B400082FB00239A1502EBD37248F2A063C0F205
:103B500001035A43099B5A61069B83FB000290159F
:103B600000EBD27049F28062C0F2980200FB123280
:103B700048F68900C8F6880082FB003002445011E4
:103B800000EBD273099A5069184450610A9807AA49
:103B90000023FFF72DFE8DF823009DF8230050B978
:103BA000FFE707980078452809D0FFE707980078D5
:103BB000572804D0FFE701208DF82F00D8E00798A0
:103BC0000078453818BF0120099908740A98062121
:103BD00007AA0023FFF70CFE8DF82300079806A91B
:103BE0000DF1170201F012F901469DF82300084477
:103BF0008DF823009DF8230020B9FFE79DF81700FA
:103C000020B1FFE701208DF82F00B1E00698039066
:103C100040B1FFE70398012808D0FFE70398022886
:103C200008D00BE00999002008760BE009990120E3
:103C3000087607E009990220087603E001208DF854
:103C40002F0095E00A98072107AA0023FFF7D0FD6F
:103C50008DF82300079806A90DF1170201F0D6F898
:103C600001469DF8230008448DF823009DF82300A9
:103C700020B9FFE79DF8170020B1FFE701208DF87C
:103C80002F0075E00698099948760A98082107AA36
:103C90000023FFF7ADFD8DF82300079806A90DF16D
:103CA000170201F0B3F801469DF8230008448DF88F
:103CB00023009DF8230020B1FFE701208DF82F009D
:103CC00056E09DF8171006A80290012200F092FF1E
:103CD0000698099948830A98092107AA0023FFF743
:103CE00087FD02998DF8230007980DF1170201F066
:103CF0008DF801469DF8230008448DF823009DF8B7
:103D0000230020B1FFE701208DF82F0030E09DF85F
:103D1000171006A80190012200F06CFF069809997F
:103D2000C8610A980E2107AA0023FFF761FD0199D7
:103D30008DF8230007980DF1170201F067F801468E
:103D40009DF8230008448DF823009DF8230020B936
:103D5000FFE79DF8170020B1FFE701208DF82F0045
:103D600006E006980999088400208DF82F00FFE7E7
:103D70009DF82F000CB080BD80B58CB00A900991E1
:103D80000020ADF81A000A9818B1FFE7099820B989
:103D9000FFE703208DF82F003AE10A9807AA0023D5
:103DA0001946FFF725FD8DF823009DF8230078B90B
:103DB000FFE70798807847280AD1FFE70798C0787F
:103DC000532805D1FFE707980079412804D0FFE781
:103DD00003208DF82F001BE10A98012107AA002378
:103DE000FFF706FD8DF823009DF8230050B9FFE78B
:103DF000079800784D2809D0FFE7079800784128F8
:103E000004D0FFE701208DF82F0001E1079800782A
:103E10004D3818BF0120099908700A98022107AA95
:103E20000023FFF7E5FC8DF82300079805A90DF1A5
:103E3000130200F0EBFF01469DF8230008448DF8C3
:103E400023009DF8230020B9FFE79DF8130020B15F
:103E5000FFE701208DF82F00DAE005980390012894
:103E600008D0FFE70398022808D0FFE7039803284B
:103E700008D00BE00999002048700BE00999012057
:103E8000487007E009990220487003E001208DF88E
:103E90002F00BDE000208DF81200FFE79DF8120012
:103EA0000B2840DCFFE70A989DF812100331C9B2D5
:103EB00007AA0DF11A03FFF79BFC8DF823009DF86C
:103EC000230020B1FFE701208DF82F00A0E0BDF80E
:103ED0001A0038B9FFE709989DF812100144002034
:103EE00088701AE0079805A90DF1130200F08EFF03
:103EF0008DF823009DF8230020B9FFE79DF81300FB
:103F000020B1FFE701208DF82F0081E00598099985
:103F10009DF8122011448870FFE79DF812000130CF
:103F20008DF81200BAE70A980F2107AA0023FFF7BD
:103F30005FFC8DF82300079805A90DF1130200F02E
:103F400065FF01469DF8230008448DF823009DF885
:103F5000230020B1FFE701208DF82F0058E09DF8E5
:103F6000131005A80290012200F044FE059809995B
:103F7000C8810A98102107AA0023FFF739FC02998B
:103F80008DF8230007980DF1130200F03FFF014662
:103F90009DF8230008448DF823009DF8230020B1EC
:103FA000FFE701208DF82F0032E09DF8131005A8DF
:103FB0000190012200F01EFE0598099908820A98D6
:103FC000112107AA0023FFF713FC01998DF82300A4
:103FD00007980DF1130200F019FF01469DF8230028
:103FE00008448DF823009DF8230020B1FFE701204D
:103FF0008DF82F000CE09DF8131005A8012200F0A9
:10400000F9FD05980999488200208DF82F00FFE7F7
:104010009DF82F000CB080BD80B58AB00890079144
:10402000089818B1FFE7079820B9FFE703208DF83B
:10403000270046E2089805AA00231946FFF7D8FB97
:104040008DF81B009DF81B0078B9FFE70598807874
:1040500047280AD1FFE70598C078532805D1FFE724
:1040600005980079562804D0FFE703208DF8270033
:1040700027E205980078472809D1FFE7059840789E
:10408000502804D1FFE705208DF8030012E00598C1
:104090000078422809D1FFE705984078442804D1E8
:1040A000FFE706208DF8030003E001208DF82700CC
:1040B00007E2FFE70898012105AA0023FFF798FB14
:1040C0008DF81B00059803A90DF10B0200F09EFE70
:1040D00001469DF81B0008448DF81B009DF81B004D
:1040E00020B9FFE79DF80B0020B1FFE701208DF814
:1040F0002700E6E103988DF80A000898032105AA35
:104100000023FFF775FB8DF81B00059803A90DF13F
:104110000B0200F07BFE01469DF81B0008448DF861
:104120001B009DF81B00A8B9FFE79DF80B0088B99C
:10413000FFE703989DF80A206FF0030101EB82016D
:10414000884207DBFFE703989DF80A10B0EB810F68
:1041500004DDFFE701208DF82700B2E103980799FD
:104160000870079800780D2807DBFFE707990C20F7
:10417000087003208DF80A00FFE700208DF8090081
:10418000FFE79DF809009DF80A10884280F29581AA
:10419000FFE708989DF803109DF809200132D2B27C
:1041A00001AB00F061FD8DF81B009DF81B0020B1F4
:1041B000FFE701208DF8270083E10198012105AA7E
:1041C0000023FFF715FB8DF81B00059803A90DF1DF
:1041D0000B0200F01BFE01469DF81B0008448DF801
:1041E0001B009DF81B0050B9FFE79DF80B0030B98C
:1041F000FFE703989DF80A10884204DAFFE70120E0
:104200008DF827005DE10198022105AA0023FFF740
:10421000EFFA8DF81B00059803A90DF10B0200F0D1
:10422000F5FD01469DF81B0008448DF81B009DF824
:104230001B0058B9FFE79DF80B0038B9FFE703985A
:104240009DF809100131884204D0FFE701208DF864
:10425000270036E10198032105AA0023FFF7C8FAD9
:104260008DF81B00059803A90DF10B0200F0CEFD9F
:1042700001469DF81B0008448DF81B009DF81B00AB
:1042800050B9FFE79DF80B0030B9FFE70398079995
:104290000978884204DAFFE701208DF8270010E151
:1042A00000208DF80200FFE79DF80200032800F3CC
:1042B000FD80FFE701989DF80220042101EB8201B7
:1042C000C9B205AA0023FFF793FA8DF81B000598E1
:1042D00003A90DF10B0200F099FD8DF81B009DF86C
:1042E0001B0020B9FFE79DF80B0020B1FFE701207C
:1042F0008DF82700E5E0039807999DF809309DF8AF
:10430000022002EB830201EBC201488001989DF874
:104310000220052101EB8201C9B205AA0023FFF7A3
:1043200067FA8DF81B00059803A90DF10B0200F048
:104330006DFD01469DF81B0008448DF81B009DF89B
:104340001B0020B9FFE79DF80B0020B1FFE701201B
:104350008DF82700B5E0039807999DF809309DF87E
:10436000022002EB830201EBC201087101989DF863
:104370000220062101EB8201C9B205AA0023FFF742
:1043800037FA8DF81B00059803A90DF10B0200F018
:104390003DFD01469DF81B0008448DF81B009DF86B
:1043A0001B0020B9FFE79DF80B0020B1FFE70120BB
:1043B0008DF8270085E0039807999DF809309DF84E
:1043C000022002EB830201EBC201C88001989DF834
:1043D0000220072101EB8201C9B205AA0DF11203E7
:1043E000FFF706FA8DF81B009DF81B0020B1FFE7D0
:1043F00001208DF8270064E0BDF81200F0B9FFE756
:1044000007989DF809209DF8021001EB820100EB4E
:10441000C101002008729DF809009DF80A100139B9
:1044200088420AD1FFE79DF8020007990A78032124
:104430009143884201D1FFE738E031E0059803A9B4
:104440000DF10B0200F0E2FC8DF81B009DF81B0043
:1044500020B9FFE79DF80B0020B1FFE701208DF8A0
:1044600027002EE0039807999DF809309DF8022057
:1044700002EB830201EBC20108729DF809009DF86E
:104480000A10013988420AD1FFE79DF80200079916
:104490000A7803219143884201D1FFE706E0FFE754
:1044A0009DF8020001308DF80200FDE6FFE79DF85F
:1044B000090001308DF8090063E600208DF827001F
:1044C000FFE79DF827000AB080BD000080B58CB0E2
:1044D0000A9009910A9818B1FFE7099820B9FFE7F7
:1044E00003208DF82F0070E20A9807AA00231946CE
:1044F000FFF77EF98DF823009DF8230078B9FFE7D8
:104500000798807852280AD1FFE70798C0784D288D
:1045100005D1FFE707980079432804D0FFE703207F
:104520008DF82F0051E20A98012107AA0023FFF716
:104530005FF98DF82300079806A90DF1170200F026
:1045400065FC01469DF8230008448DF823009DF882
:10455000230028B9FFE79DF81700032804D0FFE7E0
:1045600001208DF82F0030E206984CF66B21C6F63C
:104570005F3180FB0101881500EBD17348F21F51B8
:10458000C5F2EB1183FB0102500900EBD2706422EB
:1045900000FB1230099B187006984BF28953C1F248
:1045A000F84380FB0303581300EBD37383FB010C28
:1045B0004FEA5C1000EBDC7000FB1230099B587076
:1045C000069B44F6D350C1F2620083FB003C4FEAE5
:1045D000AC1303EBDC7383FB011C4FEA5C1101EBB2
:1045E000DC7101FB1231099A9170069A82FB00017D
:1045F000880900EBD1704FF47A7100FB1120099902
:1046000088800A98022107AA0023FFF7F1F88DF8A5
:1046100023009DF8230050B9FFE70798007856283B
:1046200009D0FFE707980078412804D0FFE7012070
:104630008DF82F00C9E107980078563818BF01207F
:10464000099988720A98032107AA0023FFF7D0F876
:104650008DF82300079806A90DF1170200F0D6FB8C
:1046600001469DF8230008448DF823009DF823009F
:1046700020B1FFE701208DF82F00A6E19DF817106B
:1046800006A8052200F0B6FA06994CF66B20C6F68D
:104690005F3081FB0012911501EBD27148F2A062EC
:1046A000C0F201025143099A1161069A82FB00018E
:1046B000881500EBD17049F28061C0F2980100FBCF
:1046C000112148F68900C8F6880081FB00200144CA
:1046D000481100EBD17209990869104408610A98E1
:1046E000042107AA0023FFF783F88DF823009DF823
:1046F000230050B9FFE7079800784E2809D0FFE75C
:1047000007980078532804D0FFE701208DF82F0088
:104710005BE1079800784E3818BF012009990873AB
:104720000A98052107AA0023FFF762F88DF82300F5
:10473000079806A90DF1170200F068FB01469DF8E5
:10474000230008448DF823009DF8230020B1FFE7E3
:1047500001208DF82F0038E19DF8171006A80522DA
:1047600000F048FA06994CF66B20C6F65F3081FBE4
:104770000012911501EBD27148F2A062C0F2010261
:104780005143099A9161069A82FB0001881500EB5A
:10479000D17049F28061C0F2980100FB112148F606
:1047A0008900C8F6880081FB00200144481100EB15
:1047B000D17209998869104488610A98062107AA6C
:1047C0000023FFF715F88DF823009DF8230050B95A
:1047D000FFE707980078452809D0FFE70798007899
:1047E000572804D0FFE701208DF82F00EDE007984F
:1047F0000078453818BF0120099908750A980721E3
:1048000007AA0023FEF7F4FF8DF82300079806A9F6
:104810000DF1170200F0FAFA01469DF82300084452
:104820008DF823009DF8230020B1FFE701208DF8CB
:104830002F00CAE09DF8171006A80490012200F08E
:10484000D9F90698099988830A98082107AA0023AC
:10485000FEF7CEFF04998DF8230007980DF117029B
:1048600000F0D4FA01469DF8230008448DF8230097
:104870009DF8230020B1FFE701208DF82F00A4E070
:104880009DF8171006A80390012200F0B3F90698CE
:104890000999C8830A98092107AA0023FEF7A8FFEF
:1048A00003998DF8230007980DF1170200F0AEFA76
:1048B00001469DF8230008448DF823009DF823004D
:1048C00020B9FFE79DF8170020B1FFE701208DF820
:1048D0002F007AE0069B48F21F50C5F2EB1083FBD5
:1048E0000012510901EBD272642102FB113202F570
:1048F000FA62099BDA80069A82FB00235A1102EBC6
:10490000D37383FB002C4FEA5C1202EBDC7202FBD8
:104910001132099B1A72069A48F6AD33C6F6DB03CC
:1049200082FB03231A1302EBD37282FB00035809A4
:1049300000EBD37000FB1120099948720A980C21F2
:1049400007AA0023FEF754FF8DF823009DF82300EB
:10495000A0B9FFE7079800784E2813D0FFE7079823
:10496000007841280ED0FFE707980078442809D046
:10497000FFE707980078452804D0FFE701208DF86D
:104980002F0022E0079800784E2803D1FFE700208F
:10499000029012E007980078412803D1FFE7012038
:1049A000019007E0079801780320442908BF0220FE
:1049B0000190FFE701980290FFE70298099981F8BA
:1049C000200000208DF82F00FFE79DF82F000CB08D
:1049D00080BD000080B58AB008900791089818B192
:1049E000FFE7079820B9FFE703208DF82700FDE0D7
:1049F000089805AA00231946FEF7FAFE8DF81B0059
:104A00009DF81B0078B9FFE70598807856280AD1F1
:104A1000FFE70598C078542805D1FFE7059800798D
:104A2000472804D0FFE703208DF82700DEE0089830
:104A3000012105AA0023FEF7DBFE8DF81B00059877
:104A400003A90DF10B0200F0E1F901469DF81B00EE
:104A500008448DF81B009DF81B0028B9FFE79DF85E
:104A60000B00012804D0FFE701208DF82700BDE0EE
:104A70000398079908800898032105AA0DF11203ED
:104A8000FEF7B6FE8DF81B009DF81B0020B1FFE776
:104A900001208DF82700A9E0BDF8120020B9FFE73A
:104AA00007990020488013E0059803A90DF10B0237
:104AB00000F0ACF98DF81B009DF81B0020B1FFE75A
:104AC00001208DF8270091E0039807994880FFE7BF
:104AD0000898052105AA0023FEF78AFE8DF81B0021
:104AE000059803A90DF10B0200F090F901469DF81D
:104AF0001B0008448DF81B009DF81B0028B9FFE738
:104B00009DF80B00012804D0FFE701208DF8270055
:104B10006CE00398079988800898072105AA00236C
:104B2000FEF766FE8DF81B00059803A90DF10B0238
:104B300000F06CF901469DF81B0008448DF81B003D
:104B40009DF81B0028B9FFE79DF80B00012804D051
:104B5000FFE701208DF8270048E003980799C880F7
:104B60000898092105AA0023FEF742FE8DF81B00D4
:104B70009DF81B00A0B9FFE7059800784E2813D0D8
:104B8000FFE70598007841280ED0FFE705980078E8
:104B9000442809D0FFE705980078452804D0FFE7AE
:104BA00001208DF8270021E0059800784E2803D1D8
:104BB000FFE70020019012E005980078412803D11A
:104BC000FFE70120009007E00598017803204429C1
:104BD00008BF02200090FFE700980190FFE70198CE
:104BE0000799087200208DF82700FFE79DF827003D
:104BF0000AB080BD82B001908DF803108DF80220BC
:104C0000019808B9FFE72DE0FFE79DF803009DF844
:104C10000210884212DDFFE70199086846F26762D8
:104C2000C6F2666280FB0202901000EBD270086050
:104C30009DF8030001388DF80300E6E7FFE79DF8D3
:104C400003009DF8021088420CDAFFE7019908681A
:104C500000EB8000400008609DF8030001308DF8F3
:104C60000300ECE702B0704780B58AB008908DF879
:104C70001F108DF81E200693089818B1FFE70698BC
:104C800020B9FFE703208DF82700BAE09DF81E0049
:104C900020B9FFE701208DF81E00FFE79DF81F00F7
:104CA00001460191092861D80199DFE801F0050E5C
:104CB000172029323B444D5646F21031C0F6000110
:104CC0000DF11200FBF7D6FA54E046F23431C0F68B
:104CD00000010DF11200FBF7CDFA4BE046F21C315A
:104CE000C0F600010DF11200FBF7C4FA42E046F2F3
:104CF0002231C0F600010DF11200FBF7BBFA39E0DA
:104D000046F21631C0F600010DF11200FBF7B2FABF
:104D100030E046F24031C0F600010DF11200FBF721
:104D2000A9FA27E046F23A31C0F600010DF112006F
:104D3000FBF7A0FA1EE046F22831C0F600010DF1A3
:104D40001200FBF797FA15E046F22E31C0F600018B
:104D50000DF11200FBF78EFA0CE046F20A31C0F6B4
:104D600000010DF11200FBF785FA03E003208DF836
:104D7000270046E008980390FFE703980078E0B327
:104D8000FFE703980078242832D1FFE700208DF850
:104D90000B00FFE79DF80B00042813DCFFE70398E6
:104DA0009DF80B20104440780DF11201895C884277
:104DB00001D0FFE706E0FFE79DF80B0001308DF81A
:104DC0000B00E7E79DF80B00052810D1FFE79DF8E1
:104DD0001E0001388DF81E00000638B9FFE7039861
:104DE0000699086000208DF827000AE0FFE7FFE73A
:104DF000FFE7039801300390BFE701208DF82700FB
:104E0000FFE79DF827000AB080BD00008BB0099035
:104E10000891079209980690002004908DF80F00E1
:104E2000099818B1FFE7089820B9FFE703208DF82B
:104E30002B0087E0069800782D280ED0FFE7069813
:104E40000078302805DBFFE7069800783A2804DB75
:104E5000FFE703208DF82B0074E0069800782D28DA
:104E600007D1FFE7069801300690FF208DF8170064
:104E700003E001208DF81700FFE7FFE706980178AF
:104E800001202E29029012D0FFE706980178002019
:104E90003029019008DBFFE70698017800203A29C5
:104EA000B8BF01200190FFE701980290FFE7029848
:104EB000C00748B3FFE79DF80F0030B1FFE79DF84A
:104EC0000F0001308DF80F00FFE7069800782E28BC
:104ED00009D1FFE79DF80F0001308DF80F0006980B
:104EE00001300690CAE70698007830388DF8160031
:104EF000049800EB80019DF8160000EB410004903F
:104F0000069801300690B9E704989DF917104843B8
:104F100008990860079888B1FFE79DF80F0028B14D
:104F2000FFE79DF80F000138009003E09DF80F00A7
:104F30000090FFE7009807990870FFE700208DF8C0
:104F40002B00FFE79DF82B000BB0704781B040F2BB
:104F50007820C2F20000B0F800180120B0EBD13F79
:104F60000CD1FFE740F27820C2F20000B0F8002830
:104F70006FF3DF3200218154009002E000200090A6
:104F8000FFE7009801B0704780B540F27821C2F287
:104F90000001B1F8000800F40040A1F80008B1F8E1
:104FA00000086FF3DF30A1F8000800F051FB80BD6E
:104FB00080B5D8B0DDF874C1DDF870C1DDF86CC122
:104FC000DDF868C156905591549253935698B0B9F4
:104FD000FFE7559898B9FFE7549880B9FFE75398D1
:104FE00068B9FFE75A9850B9FFE75B9838B9FFE70F
:104FF0005C9820B9FFE703208DF85F0129E20020CB
:105000008DF83C018DF814018DF8FE008DF89A00A2
:105010008DF834008DF80E00FFF7B6FFFFE75D98BE
:10502000002800F01282FFE7FFF790FF519051989F
:10503000002800F0E781FFE7549818B9FFE75A9875
:1050400098B3FFE79DF83C0178BBFFE75198002239
:1050500050AB1146FFF708FE8DF84B019DF84B0150
:1050600010BBFFE7509846A9FEF738FC8DF84B01BE
:105070009DF84B01B8B9FFE7FF208DF83C0154982B
:1050800020B1FFE74D9854990880FFE75A9848B13E
:10509000FFE79DF830015A9908709DF831015A993F
:1050A0004870FFE7FFE7FFE703E0FF208DF83C01D2
:1050B000FFE75A9800284AD0FFE79DF8140100281E
:1050C00045D1FFE751980221002250ABFFF7CCFDFC
:1050D0008DF84B019DF84B01C0BBFFE7509840A9EC
:1050E000FEF74AFE8DF84B019DF84B0168BBFFE7C8
:1050F000FF208DF814019DF801015A998870002055
:105100008DF80300FFE79DF803000B2810DCFFE794
:105110009DF8032040A8104480785A9901EB420181
:105120008880FFE79DF8030001308DF80300EAE76F
:10513000BDF80E015A998883BDF810015A99C883A9
:10514000BDF812015A990884FFE7FFE703E0FF204A
:105150008DF81401FFE75B9800285ED0FFE79DF80B
:10516000FE00002859D1FFE751980521002250ABDD
:10517000FFF77AFD8DF84B019DF84B0100284BD1CC
:10518000FFE7509827A9FEF747FF8DF84B019DF8E0
:105190004B0100283FD1FFE7FF208DF8FE009DF86E
:1051A0009C005B99087000208DF80300FFE79DF8D4
:1051B00003009DF89C1088422CDAFFE727A80230F4
:1051C0009DF8033030F833105B9A02EBC302518034
:1051D0009DF8033000EBC30189785B9A02EBC302B0
:1051E00011719DF8033000EBC30189885B9A02EBD3
:1051F000C302D1809DF8032000EBC20080795B9947
:1052000001EBC2010872FFE79DF8030001308DF841
:105210000300CCE7FFE7FFE703E0FF208DF8FE0087
:10522000FFE75C9800285ED0FFE79DF89A00002811
:1052300059D1FFE751980621002250ABFFF714FD2A
:105240008DF84B019DF84B0100284BD1FFE750989A
:105250000EA9FEF7E1FE8DF84B019DF84B010028E9
:105260003FD1FFE7FF208DF89A009DF838005C9948
:10527000087000208DF80300FFE79DF803009DF8FB
:10528000381088422CDAFFE70EA802309DF8033070
:1052900030F833105C9A02EBC30251809DF8033062
:1052A00000EBC30189785C9A02EBC30211719DF88F
:1052B000033000EBC30189885C9A02EBC302D18002
:1052C0009DF8032000EBC20080795C9901EBC201DC
:1052D0000872FFE79DF8030001308DF80300CCE76A
:1052E000FFE7FFE703E0FF208DF89A00FFE75698FD
:1052F00020B9FFE75598002854D0FFE79DF8340007
:1053000000284FD1FFE751980721002250ABFFF74B
:10531000ABFC8DF84B019DF84B01002841D1FFE714
:10532000509804A9FFF7D2F88DF84B019DF84B0176
:10533000B0BBFFE7FF208DF834005698E8B1FFE7D7
:10534000BDF81600569908809DF818005699887087
:105350009DF819005699C8709DF81000569908716B
:105360009DF81100569948719DF812005699887160
:10537000BDF8140056990881FFE7559878B1FFE70A
:105380000898559948609DF81C00559908700A982E
:105390005599C8609DF8240055990872FFE7FFE70A
:1053A000FFE703E0FF208DF83400FFE7539820B3B8
:1053B000FFE79DF80E0000BBFFE75198082100228F
:1053C00050ABFFF751FC8DF84B019DF84B0198B99C
:1053D000FFE7FF208DF80E00509801A9FFF7FAFAB9
:1053E0008DF84B019DF84B0128B9FFE7BDF80A0085
:1053F00053990880FFE7FFE703E0FF208DF80E00D8
:10540000FFE7FFE79DF83C01C0B1FFE79DF81401FD
:10541000A0B1FFE79DF8FE0080B1FFE79DF89A007C
:1054200060B1FFE79DF8340040B1FFE79DF80E0042
:1054300020B1FFE700208DF85F010AE05D98013898
:105440005D90012000F01AF8E9E502208DF85F0177
:10545000FFE79DF85F0158B080BD000080B582B0C5
:105460008DF807000420FDF71DF89DF8070040F2B5
:105470007421C2F20001086002B080BD80B582B024
:10548000ADF8060000200090FFE70098BDF8061078
:10549000884209D2FFE74FF47A7000F007F8FFE77F
:1054A000009801300090F0E702B080BD86B0059012
:1054B000002001904EF21400CEF20000006800902F
:1054C000059840F27421C2F2000109684843049033
:1054D0004EF21800CEF2000000680390FFE74EF293
:1054E0001800CEF2000000680290029803998842EA
:1054F0001ED0FFE702980399884207D2FFE703987E
:105500000299411A01980844019008E00098029914
:10551000401A03990144019808440190FFE702985A
:10552000039001980499884201D3FFE701E0FFE767
:10553000D5E706B07047000080B582B0002001902A
:10554000FCF70EFAFDF742FEFDF7E0FCFDF774FDF7
:10555000FDF792FDFDF750FD4820FFF77FFF46F273
:105560004630C0F6000000F00DF800F071F800F0D1
:105570007DF8FFE700F096F84FF44870FFF77EFFE4
:10558000F8E7000083B080B585B0099308920791D1
:10559000049040F27000C2F2000001904FF480715C
:1055A000FAF7AFFE019807A902910499029AFAF757
:1055B00077FE0020ADF80E00FFE7BDF80E00FF28D3
:1055C0002DDCFFE7BDF80E000130ADF80C00BDF892
:1055D0000E1040F27000C2F20000405CC0B9FFE75C
:1055E000FFE7BDF80C00FF2811DCFFE7BDF80C2039
:1055F00040F27000C2F200008118805C01F8010CDA
:10560000FFE7BDF80C000130ADF80C00E9E7FFE75B
:10561000FFE7BDF80E000130ADF80E00CDE740F217
:105620007000C2F200000090FAF74CFE0099ADF84D
:105630000E00BDF80E2040F68430C2F20000C823F0
:10564000FDF7CEFB05B0BDE8804003B07047000019
:1056500080B540F6CC30C2F2000040F27821C2F2B0
:1056600000014FF40062FCF73FFF80BD80B582B0BF
:1056700040F27011C2F200010020087040F2711077
:10568000C2F2000000904FF480710191FAF739FEE8
:105690000099019A40F61440C2F20000FCF724FF82
:1056A00002B080BDB0B5CCB040F67C20C2F20000A4
:1056B0004FF48471FAF747FE22A862210791FAF7A6
:1056C00020FE079909A8FAF71CFE694641F28830C6
:1056D000C8600020886048603BA8086049A845A9C8
:1056E0000DF5897244ABFFF763FC8DF82F019DF82F
:1056F0002F01002840F05881FFE746F29E40C0F697
:105700000000FFF73FFFBDF824119DF826219DF80A
:1057100027319DF828019DF829E19DF82A41BDF81F
:105720002C51EC46CCF80C50CCF80840CCF804E0F6
:10573000CCF8000046F20040C0F60000FFF722FF60
:10574000489A500945F6C524C0F67C24A0FB0410F5
:10575000C10948F2A060C0F2010001FB10229DF8CF
:105760001CE146F2B54CC0F6000C46F2BB43C0F655
:105770000003BEF1000F08BF6346DDF818C14FEA11
:105780005C1EAEFB044E4FEADE1E0EFB10C09DF801
:10579000145146F2B74CC0F6000C46F2B944C0F6BC
:1057A0000004002D08BF6446EC46CCF80840CCF855
:1057B00000E0CCF8040046F28340C0F60000FFF79A
:1057C000E1FEBDF9120146F26761C6F2666180FB37
:1057D0000112911001EBD27101EB8102A0EB4202A8
:1057E00046F22F40C0F60000FFF7CCFEBDF81001D6
:1057F0004CF6CD41CCF6CC41A0FB0121C90801EB10
:105800008102A0EB420246F25E30C0F60000FFF7D4
:10581000B9FE9DF8EC0030B9FFE746F2E040C0F673
:10582000000006900EE09DF8EC2046F2D741C0F64D
:10583000000146F2C140C0F60000012A08BF084638
:105840000690FFE7069946F27140C0F60000FFF7A8
:1058500099FE9DF8ED1046F27130C0F60000FFF79A
:1058600091FE9DF8EE0030B9FFE746F2E040C0F649
:10587000000005900EE09DF8EE2046F2AF41C0F624
:10588000000146F2B240C0F60000012A08BF0846F7
:105890000590FFE7059946F26240C0F60000FFF769
:1058A00071FE00208DF82300FFE79DF823009DF88E
:1058B000ED1088422DDAFFE79DF8230038B9FFE7A5
:1058C00046F2A140C0F60000FFF75CFEFFE79DF83E
:1058D00023103BA800EB4100818846F2BD40C0F692
:1058E0000000FFF74FFE9DF823009DF8ED100139F1
:1058F000884207D1FFE746F29E40C0F60000FFF75E
:1059000041FEFFE7FFE79DF8230001308DF82300FB
:10591000CBE7BDF808014CF6CD41CCF6CC41049163
:10592000A0FB0121C90801EB8102A0EB420246F273
:10593000E430C0F60000FFF725FE0499BDF80A0127
:10594000A0FB0121C90801EB8102A0EB420246F253
:10595000D630C0F60000FFF715FE0499BDF80C0123
:10596000A0FB0121C90801EB8102A0EB420246F233
:10597000F230C0F60000FFF705FE9DF8881046F2F1
:105980008730C0F60000FFF7FDFD9DF8241046F2B9
:10599000AD30C0F60000FFF7F5FD46F29E40C0F6C0
:1059A0000000FFF7EFFD06E046F24240C0F60000BF
:1059B000FFF7E8FDFFE74CB0B0BD5FEA400C08BF61
:1059C00091F0000F4FEA8C234FEAC12243EA515174
:1059D0004FEA1C5018BF00F5F0404FEA300018BFE6
:1059E00041F000415FEA6C5C00F02980BCF1FF3FB0
:1059F00008BF40F080407047130C06BF12044FF000
:105A0000100C4FF0000C130E04BF12020CF1080C26
:105A1000130F04BF12010CF1040C930F04BF92008A
:105A20000CF1020CD30F04BF52000CF1010C114613
:105A30004FF00002A0F11F00A0EB0C00704711F026
:105A4000004F08BF704731F000413FF4D5AF0B0C59
:105A500006BF09044FF0100C4FF0000C0B0E04BFF2
:105A600009020CF1080C0B0F04BF09010CF1040C26
:105A70008B0F04BF89000CF1020CCB0F04BF49004F
:105A80000CF1010CCCF1200322FA03F341EA0301EB
:105A900002FA0CF2A0EB0C0000F1010070470000CC
:105AA00023F07F4720F07F4C80EA030000F00040A5
:105AB000ACEB070303F57C5303F1FF032DE98049A9
:105AC00009B44FEA144324EA03484FEA154B25EA88
:105AD0000B4E0FF2042606EB13273E7803FB0667F6
